:040000009831A82C5F
:1000080070084001AE007108AD007208AC007308BA
:10001800AB007408AA007508A9007608A80077083C
:10002800A7007808A6007908A5007A08A4007B082C
:10003800A3007C08A20080314E018C1E1D298C1261
:1000480001304201EC070030ED3DEE3DEF3DC030A0
:1000580040019C00E0309D0041014D0842016F02C3
:10006800031D462841014C0842016E02031D462823
:1000780041014B0842016D02031D462841014A080F
:1000880042016C02031C1D290A304101CA070030D5
:10009800CB3DCC3DCD3D40018D1A542874145528D4
:1000A80074108F18592803145A28031074186028DC
:1000B80003186028741061287414741CAB28430159
:1000C8002008F0002108F1002208F2002308F300BC
:1000D800E830F4000330F500F601F701C421700898
:1000E80042016C074301C900710842016D3D43019B
:1000F800CA00720842016E3D4301CB0073084201F9
:100108006F3D4301CC0041012008F0002108F100B7
:100118002208F2002308F300E830F4000330F50069
:10012800F601F701C421700842016C074301AA00D7
:10013800710842016D3D4301AB00720842016E3DFA
:100148004301AC00730842016F3D4301AD0040011B
:100158008D1AB0280314B1280310031CD128FA30D3
:10016800410160020318B928E00A6008193A031D22
:10017800BF284301B41541016008FA3A0130031D54
:100188000030F100F0014001161AF00A7108F0057C
:100198000319D0284301B416E82841016008023C3D
:1001A800013003180030F1001930600201300318E3
:1001B8000030F0007108F0050319E72843013415F1
:1001C8004101E001E828E00140018F18ED280314FF
:1001D800EE280310031C0629400119306F0203188A
:1001E800F628EF0A6F08143A0130031D0030F100B9
:1001F800F0010F19F00A7108F005031905294301E8
:1002080034161D2940016F08013C013003180030E5
:10021800F1000A306F02013003180030F000710855
:10022800F00503191C29430134174001EF011D296A
:10023800EF0140012E08F0002D08F1002C08F20013
:100248002B08F3002A08F4002908F5002808F6000E
:100258002708F7002608F8002508F9002408FA00FE
:0A0268002308FB002208FC00090037
:10027200400196154230FD00FD0B3D290000161588
:100282004230FD00FD0B4329000016114230FD00F3
:10029200FD0B4929000096114230FD00FD0B4F294C
:0402A2000000080050
:1002A600F10108307102031870294401C21B5E294E
:1002B600400116116029400116154230FD00FD0B64
:1002C6006229000096154230FD00FD0B68290000EA
:1002D60096114401C235F10A5429400116154230DF
:1002E600FD00FD0B74290000961500300C19013035
:1002F600F2004230FD00FD0B7E29000096114230CF
:0E030600FD00FD0B842900007208F0000800C5
:100314004001F801F9011030FC00710DF80DF90DE0
:100324007408F8027508031C750FF9020318A12953
:100334007408F80775080318750FF9070310F00D12
:08034400F10DFC0B8F290800EC
:10034C0040017008F100F0010830FC007108F40C59
:10035C000318B429FC0BAD29F10100340310B929A1
:10036C00F40C0318F107F10CF00CFC0BB629080087
:0C037C003A30FD00FD0BC0290000080015
:1003880040012230FC00F801F901FA01FB01FC03ED
:100398000319F9290310FB0CFA0CF90CF80CF30CEF
:1003A800F20CF10CF00C031CCB29FC030319EB290C
:1003B8007408F80775080318750FF9077608031805
:1003C800760FFA0777080318770FFB07CF29740809
:1003D800F80775080318750FF90776080318760FDC
:0C03E800FA0777080318770FFB070800DE
:1003F400400116114230FD00FD0BFE290000961548
:100404004230FD00FD0B042A000016154230FD00A9
:08041400FD0B0A2A000008009C
:10041C0041014E0844013C07BF00392141014F08FE
:10042C004401C20053214401C201532144013B0841
:10043C00B03EC200532144013F080F3C031C2A2A42
:10044C003F08BD00BE013B2A3F08F200F236F236EF
:10045C00F236F2367208BE007208F000F035F03554
:10046C00F035F03570083F02BD003D08C200532145
:10047C0044013E08103EC2005321392141014F086E
:10048C004401C200532140304401C20053210800F2
:10049C004401BF0105303F0203185E2A3F083D07A7
:1004AC00860000303E3D870020308100BF0A502A74
:1004BC003F083D07860000303E3D87008101BF03A9
:1004CC003F083D07C00000303E3DC1000A30F4003B
:1004DC00F5013B08F0003C08F1008A217808F00097
:1004EC007908F1003030F0074401400886004108DB
:1004FC008700700881000A30F400F5013B08F00019
:10050C003C08F1008A2170084401BB007108BC0052
:10051C0000307106031D942A00307006031D972AC3
:08052C00992ABF03662A0800AA
:10053400FB14FB1FA42AFF30F300F200F100F000CB
:08054400FA0DF20CFF30080073
:10054C007B15FB1FB02A0130F300F201F101F00121
:08055C00FA0DF20CFF3008005B
:1005640040304401B3001F30B400B501B60140303F
:10057400F0001F30F1000030F2000030F3003108C9
:10058400F4003208F500F601F701C42170084401B3
:10059400B3007108B4007208B5007308B6000030E7
:1005A4007302031DDF2A00307202031DDF2A0230AA
:1005B4007102031DDF2AB23070020318E22A112BE4
:1005C400B230B3020230B43B0030B53BB63B053029
:1005D400F00070080319F42AB636B50CB40CB30C49
:1005E400FF3EEC2A3308F0003408F1003508F2002D
:1005F4003608F3000130B3020030B43BB53BB63BE0
:1006040070087104720473040319112B00000000B4
:10061400000000000000000000000000F42A0800B0
:0E062400F201F101F001F801F30100300800CD
:10063200392141014F084401C20053218030440155
:10064200C200532144013108C2005321FA2108009B
:100652004001FB01FA01F9018030F800F10CF00CC5
:10066200031C3C2B7408F90775080318750FFA0769
:100672000318FB0A0310F01F442B7408FA077508CD
:100682000318750FFB07FB0CFA0CF90CF80C031C92
:100692002F2B7B08F3007A08F2007908F100780822
:0406A200F00008005C
:0806A600FA1FF21300300800F6
:1006AE00392141014F084401C20053214030440119
:1006BE00C200532144013108BB003208BC000E2297
:1006CE004401B601350836020318F82B36083307F5
:1006DE0084000030343D85000008003A031D792B5C
:1006EE00B801822B3608330784000030343D850074
:1006FE0020300002B800B7013708043C031CF02B71
:10070E003808F0000530F400A62144013708F00740
:10071E000030F13DB830700784009D30713D85008A
:10072E000008B9003108023A0319C62BB919A12BDA
:10073E00BA13A22BBA17B919A62B3A13A72B3A172D
:10074E003919AB2BBA12AC2BBA163919B02B3A1287
:10075E00B12B3A16B918B52BBA11B62BBA15B91862
:10076E00BA2B3A11BB2B3A153918BF2BBA10C02B26
:10077E00BA143918C42B3A10C52B3A14E62B391972
:10078E00CA2BBA13CB2BBA173919CF2B3A13D02B3E
:10079E003A17B918D42BBA12D52BBA16B918D92BB9
:1007AE003A12DA2B3A163918DE2BBA11DF2BBA159C
:1007BE003918E32B3A11E42B3A15BA103A103A08CD
:1007CE00C200532144013A08C20053214401B70A22
:1007DE00832BC20153214401C20153214401B60AA5
:1007EE00692B310ABB003208BC000E224401B6014F
:1007FE00350836020318962C36083307840000306D
:10080E00343D85000008003A031D0F2CB801182C4A
:10081E003608330784000030343D85002030000256
:10082E00B800B7013708043C031C8E2C3808F000C2
:10083E000530F400A62144013708F0070030F13DE1
:10084E00B830700784009D30713D85000008B900F6
:10085E003108023A03195C2CB91B372CBA13382C09
:10086E00BA17B91B3C2C3A133D2C3A17391B412CA5
:10087E00BA12422CBA16391B462C3A12472C3A168B
:10088E00B91A4B2CBA114C2CBA15B91A502C3A1164
:10089E00512C3A15391A552CBA10562CBA14391A3D
:1008AE005A2C3A105B2C3A14842C391B602CBA1338
:1008BE00612CBA17391B652C3A13662C3A17B91AE4
:1008CE006A2CBA126B2CBA16B91A6F2C3A12702CFB
:1008DE003A16391A742CBA11752CBA15391A792C94
:1008EE003A117A2C3A15B9197E2CBA107F2CBA14FB
:1008FE00B919832C3A10842C3A143A08C2005321A9
:10090E0044013A08C20053214401B70A192CC2010E
:10091E0053214401C20153214401B60AFF2BFA218F
:02092E000800BF
:100930003F304401310541019E00BE2113140000E7
:10094000131CA32CA02C0C08F0000D08F1000800CB
:100950004401B701B8013108B9003208BA0080304B
:100960003206F00080307002031DB82C00303102D6
:100970000318C62C0130B7000030B8003108003C25
:10098000B9003208031C013EBA01BA023908BB00A3
:100990003A08BC003308BD003408BE004E220630C1
:1009A000B5000030B6003608003C031DD92C3508D0
:1009B000003C0318F42C3508330786003608343D14
:1009C000870001303502F0000030363BF10070083E
:1009D000330784007108343D850000088100013030
:1009E000B5020030B63BD32C3308860034088700AC
:1009F000203081003708380403191A2DB501B601DB
:100A00003508330784003608343D85000008203A55
:100A1000031D0E2DB50A0319B60A002D0130B502CB
:100A20000030B63B3508330786003608343D870072
:060A30002D3081000800DA
:100A360044013108F2003208F3007208F00073082E
:100A4600F100F20A0319F30A7008840071088500A0
:100A5600000803192F2D202D31087202F0003208EC
:0E0A6600733BF1000130F0020030F13B08005C
:100A740044013108BB003208BC000E224401B60117
:100A84003508360203186F2D36083307840000300A
:100A9400343D850020300002B800B701053037022C
:100AA40003186A2D3808F0000530F400A62144012B
:100AB4003708F0070030F13DB830700784009D30EE
:100AC400713D85000008C20053214401B70A502D2E
:0E0AD400C20153214401B60A422DFA21080046
:100AE20098304301AE000430AF003130B000023024
:100AF200B10041019301940195019601EC309A05F0
:100B0200133044013105F000700841019A04C030ED
:100B120044013105F0000319A42DC0303105F20063
:100B22000630F1007208F000710803199B2DF036AF
:100B3200FF3E962D700852018C008C170C1BA32DC2
:100B420000009F2DA72D5201FC308C054101131688
:060B5200131593170800C3
:100B5800392141014F084401C2005321403044016A
:100B6800C20053214401B2013208073C031CCE2DB8
:100B78003208BB00BC010E224401B101440180309F
:100B880031020318CB2DB10AC2015321C22D4401F1
:080B9800B20AB82DFA21080091
:100BA00040019711AC2501304401B100B2015C3025
:100BB000B3000030B4001230B5003A2503304401D0
:100BC000B100B2013F30B3000030B4000C30B500CA
:100BD0003A2554304401B1000030B2001B257008A2
:100BE000B5000330B1005430B2004C30B3000030D7
:100BF000B4003A257A30FB00C130FC008130FD00A2
:100C0000FD0B002EFC0B002EFB0B002E0000000045
:100C10008D1A0C2E03140D2E0310031C112E000030
:060C2000082E97150800E4
:100C26007408F8027508031C750FF9027608031C90
:100C3600760FFA027708031C770FFB02F30D0730D5
:100C4600FC00730DF80DF90DFA0DFB0D7408731CFD
:100C56003A2EF8027508031C750FF9027608031C74
:100C6600760FFA027708031C770FFB02472EF80768
:100C760075080318750FF90776080318760FFA0733
:100C860077080318770FFB07F30DFC0B242E720D64
:100C9600F80DF90DFA0DFB0D7408731C602EF802A1
:100CA6007508031C750FF9027608031C760FFA0205
:100CB6007708031C770FFB026D2EF80775080318DB
:100CC600750FF90776080318760FFA0777080318E1
:100CD600770FFB07F20D0730FC00720DF80DF90DCA
:100CE600FA0DFB0D7408721C862EF8027508031C9B
:100CF600750FF9027608031C760FFA027708031CB3
:100D0600770FFB02932EF80775080318750FF9077E
:100D160076080318760FFA0777080318770FFB078C
:100D2600F20DFC0B702E710DF80DF90DFA0DFB0D81
:100D36007408721CAC2EF8027508031C750FF902B4
:100D46007608031C760FFA027708031C770FFB025E
:100D5600B92EF80775080318750FF90776080318F2
:100D6600760FFA0777080318770FFB07F10D0730A0
:100D7600FC00710DF80DF90DFA0DFB0D7408711CD0
:100D8600D22EF8027508031C750FF9027608031CAB
:100D9600760FFA027708031C770FFB02DF2EF8079F
:100DA60075080318750FF90776080318760FFA0702
:100DB60077080318770FFB07F10DFC0BBC2E700D9F
:100DC600F80DF90DFA0DFB0D7408711CF82EF802DA
:100DD6007508031C750FF9027608031C760FFA02D4
:100DE6007708031C770FFB02052FF8077508031811
:100DF600750FF90776080318760FFA0777080318B0
:100E0600770FFB07F00D0730FC00700DF80DF90D9C
:100E1600FA0DFB0D7408701C1E2FF8027508031CD2
:100E2600750FF9027608031C760FFA027708031C81
:100E3600770FFB022B2FF80775080318750FF907B4
:100E460076080318760FFA0777080318770FFB075B
:100E5600F00DFC0B082F70183E2F7408F807750864
:100E66000318750FF90776080318760FFA0777083F
:080E76000318770FFB070800C9
:100E7E0044012E18452F40019917472F4001991311
:100E8E004401AE184D2F400119174F2F4001191371
:100E9E0044012E19552F40019916572F40019912D2
:100EAE004401AE195D2F400119165F2F4001191232
:100EBE0044012E1A652F40019817672F4001981391
:100ECE004401AE1A6D2F400118176F2F40011813F1
:100EDE0044012E1B752F40019816772F4001981252
:100EEE0044012F187D2F400196167F2F4001961238
:100EFE004401AF18852F40019A14872F40019A1094
:100F0E0044012F198D2F400196178F2F40019613F4
:100F1E004401AF19952F40011617972F4001161354
:100F2E0044012F1A9D2F400118149F2F40011810B5
:100F3E004401AF1AA52F40019814A72F4001981015
:100F4E0044012F1BAD2F40011815AF2F4001181172
:100F5E0044013018B52F40011A10B72F40011A1452
:100F6E009915430128084401B100430129084401A1
:100F7E00B200B222400199111A30FD00FD0BC52FAF
:100F8E0000001812430128084401B100430129084A
:100F9E004401B200B2224001181643012808440150
:100FAE00B100430129084401B200B2224001991355
:100FBE0019139912191298131813981296129A104F
:0E0FCE00961316131810981018111A10080018
:040FDC00FA210800EE
:100FE000FB09FA09F909F809F80A0319F90A0319BA
:080FF000FA0A0319FB0A0800CC
:101000004401AE010A302E0203182928803139210B
:10101000883141014F084401C20080315321883199
:101020007008003A031D152829288031FA218831DB
:101030000D30FB002D30FC00D730FD00FD0B1E28CD
:10104000FC0B1E28FB0B1E28000000004401AE0A0A
:1010500002284401C201803153218831AE3044015D
:10106000C200803153218831D5304401C200803123
:101070005321883180304401C200803153218831AE
:10108000A8304401C2008031532188313F304401EF
:10109000C200803153218831D3304401C2008031F5
:1010A00053218831410151084401C200803153214C
:1010B000883140304401C2008031532188318D3065
:1010C0004401C20080315321883114304401C200F0
:1010D00080315321883181304401C2008031532155
:1010E0008831FF304401C200803153218831D9302A
:1010F0004401C200803153218831F1304401C200E3
:1011000080315321883120304401C2008031532185
:10111000883102304401C2008031532188312130AE
:101120004401C2008031532188314401C201803121
:10113000532188317F304401C200803153218831EE
:101140002E304401C20080315321883141015208C0
:101150000319B728A0304401C200803153218831DF
:10116000C0304401C200803153218831C328A130EE
:101170004401C200803153218831C8304401C2008B
:10118000803153218831DA304401C200803153214B
:10119000883102304401C200803153218831DB3074
:1011A0004401C20080315321883140304401C200E3
:1011B000803153218831A4304401C2008031532151
:1011C0008831A6304401C2008031532188318031FA
:1011D000FA2188318031AC258831AF304401B1002B
:0811E000803119238831080059
:1011E800003044012F06031DFB2800302E06031D86
:1011F8000B290230B1003C30B200A430B3000030FB
:10120800B4000430B5008031572388312E294401B9
:101218002E08B1002F08B200B530B3000130B40079
:101228008031A824883143013808BD002E30BE0023
:101238003908BF003A08C00002304401B1003C3010
:10124800B200BD30B3000130B4000430B5008031C5
:0612580057238831080055
:06125E00FB15FF30080043
:1012640043304401B1008031712588310230FC00E3
:101274000830FD00FD0B3C29FC0B3C290000093023
:101284004401B1008031982488310B30F4000030DF
:10129400F50080312923883170084301C7007108A3
:0412A400C800080076
:1012A8007C188A29FC185B297C19AF295429A101CB
:1012B8007208031D7B297108F2007008F100780894
:1012C800F000F801A1157208031D7B297108F200CE
:1012D8007008F100F001A11121167208031D7B2985
:1012E8007108F200F101A115720803199D2921085E
:1012F800F302031D031CA3290310F21B8A29F80D0E
:10130800F00DF10DF20DF30B8129A3297B1B701C45
:10131800A929F81FA929F00A0319F10A0319F20AE1
:10132800031DA929F20CF10CF00CF30A0319AF29DB
:10133800A9290130FC00803112238831B4290230F8
:10134800FC008031A6228831B4290430FC008031A9
:1013580053238831B4290830FC0080319A2288311F
:041368000000080079
:10136C0080313921883141014F084401C20080315C
:10137C005321883140304401C200803153218831DF
:10138C004401AF012F08033C031CF5292F08BB00B7
:10139C007330BC0080310E2288314401AE012E081E
:1013AC000A3C031CF3292F08F0000B30F4008031A9
:1013BC00A621883144012E08F0070030F13D683039
:1013CC0070078400A030713D85000008C200803198
:1013DC00532188314401AE0AD529AF0AC82980317E
:0613EC00FA21883108001F
:1013F200A1017208031D0E2A7108F2007008F100A3
:10140200F001A1157208031D0E2A7108F200F10104
:10141200A1112116720803191C2A2108F302031DC7
:10142200031C222A0310F21B282AF00DF10DF20DE3
:10143200F30B142A222A0130FC0080311223883156
:101442002D2A0230FC008031A62288312D2A043058
:0A145200FC008031532388310800AC
:10145C007B14FB1F392AF201FA1FFF30F200F10056
:0A146C00F000FA0DF20CFF3008004A
:101476007408003A031D542A7508003A031D542ABD
:101486007608003A031D542A7708003A031D542AA9
:10149600FF30F000FF30F100FF30F2007F30F30044
:1014A600F02A4001FC01F71BFC0AFD01FB01FA01D1
:1014B600F901F80173087204710470040319E92A2A
:1014C60073087706A000A01BFD09F71F752AF4090B
:1014D600F509F609F709F40A0319F50A0319F60AD4
:1014E6000319F70AF31F822AF009F109F209F30931
:1014F600F00A0319F10A0319F20A0319F30A730829
:101506007704A000A01BA52A803113268831FC1B76
:10151600C22AFD1FE92AF009F109F209F309F00AC6
:101526000319F10A0319F20A0319F30AF809F9096A
:10153600FA09FB09F80A0319F90A0319FA0A031941
:10154600FB0AE92AF71FBC2AF31BB62A7308FB001D
:101556007208FA007108F9007008F800F301F20148
:10156600F101F0018C2AF301F201F101F001F00A18
:101576000034F309F209F109F009FC17872AF80A81
:101586000319F90A0319FA0A0319FB0A74087802FF
:10159600031D8C2A75087902031D8C2A76087A02A7
:1015A600031D8C2A77087B02031D8C2AFB01FA0196
:1015B600F901F801F00A0319F10A0319F20A0319ED
:1015C600F30AF31F8C2AA0012016FF34A0017C1C0D
:0C15D600EF2A8031F0278831003E080029
:1015E200400116160930FB001E30FC00E430FD00FD
:1015F200FD0BF92AFC0BF92AFB0BF92A00008031BA
:10160200EE2788316830FC00E430FD00FD0B072B2B
:10161200FC0B072B000000204301341C182B8031E7
:10162200D0258831430134108031AC258831440102
:10163200B101B2014030B3000130B4000930B5004D
:10164200803157238831B62102304401B100B20102
:101652004E30B3000130B4000930B5008031572359
:1016620088314401B1012A30B2005830B300013050
:10167200B4000130B5008031572388310230440173
:10168200B1002A30B2004A30B3000130B400013058
:10169200B5008031572388310F304201CC0027300A
:1016A200CD006430E2000030E3000F304301A600B9
:1016B2002730A700A401A5014401AE01AF01F42027
:1016C200013042016C07E80000306D3DE900003056
:1016D2006E3DEA0000306F3DEB006C08E4006D08DF
:1016E200E5006E08E6006F08E70043013411B4110B
:1016F200B412341334122008F0002108F100220839
:10170200F2002308F300E830F4000330F500F6019C
:10171200F7018031C4218831700842016C0743010E
:10172200C900710842016D3D4301CA0072084201BD
:101732006E3D4301CB00730842016F3D4301CC0073
:1017420041012008F0002108F1002208F2002308DC
:10175200F300E830F4000330F500F601F7018031C0
:10176200C4218831700842016C074301AA00710844
:1017720042016D3D4301AB00720842016E3D4301DF
:0E178200AC00730842016F3D4301AD0008004A
:10179000400172087606A100F801F901730877028A
:1017A000031CEA2B7708FD007308F7007D08F3009F
:1017B0007608FD007208F6007D08F2007508FD004D
:1017C0007108F5007D08F1007408FD007008F40050
:1017D0007D08F00077080319652C7208FA00F217EB
:1017E000F61777087302F70003191D2C08307702EB
:1017F000031C132CF7007408F9007508F400760830
:10180000F500F60108307702031C132CF70074086A
:10181000F9007508F400F50108307702031C132C59
:101820007A08F200652C770803191D2C0310F60CBA
:10183000F50CF40CF90CF70B162CA11F2A2CF90946
:10184000F409F509F609F90A0319F40A0319F50A66
:101850000319F60A7908F80774080318740FF007DB
:1018600075080318750FF10776080318760FF2074D
:10187000A11B432C031C532CF20CF10CF00CF80CA4
:10188000F30F532C5F2C0318572CF809F009F109BA
:10189000F209F80A0319F00A0319F10A0319F20A06
:1018A0008030FA065B2C0130FC005421672C02309A
:1018B000FC005421672C0430FC00F921672C08300F
:1018C000FC0080319A228831672C0030FC00000037
:0218D00008000E
:1018D2004001FB017308031D77080319BF2C72082E
:1018E2007606FA007708F3077E30031C7C2CF3029D
:1018F2000318C42C7F2CF302031CC92C7208F800B5
:101902007108FC007008FD00F817F6170310F201C9
:10191200F101F0011830A1007D1C992C7408F00728
:1019220075080318750FF10776080318760FF2078A
:10193200F20CF10CF00CF80CFC0CFD0C0310A10BDA
:101942008D2CF21BA92CF80DF00DF10DF20DF30305
:101952007B1B701CBB2CF81FBB2CF00A0319F10A6D
:101962000319F20A031DBB2CF20CF10CF00CF30A62
:101972000319C42CFA1FF2130030CD2C0130803130
:1019820012238831CD2C023080319A228831CD2C1D
:0C19920004308031A622883100000800DB
:10199E004001FB01730803190B2D7208FA00F217B0
:1019AE008E30F302F31F0E2DF309F30A0830730283
:1019BE00031CF12CF300F10D7208F100F201083056
:1019CE007302031CF12CF300F10DF1017308031DDA
:1019DE000310F92C73080319F92C0310F20CF10CF7
:1019EE00F30BF42C7B1B711C032D031C032DF10A2E
:1019FE000319F20AF21B1A2DFA1F1D2DF209F10915
:101A0E00F10A0319F20A1D2DF201F1011D2D7B14AD
:101A1E00FB1F202DF201FA1F202DFF30F200F100E6
:101A2E00FA0DF20C202D0130FC00222D0030FC00AE
:101A3E00222DFF30FC00FC080319262D2E227108E2
:081A4E00F0007208F10008002D
:101A56007408003A031D442D7508003A031D442DF1
:101A66007608003A031D442D7708003A031D442DDD
:101A7600FF30F000FF30F1007F30F200FF30F3005E
:101A8600E42D400177080319D22D73080319D52DCB
:101A9600720876068039FA00F217F617A101720865
:101AA600F8007108FC007008FD007408FD02750856
:101AB600031C750FFC027608031C760FF802F8016A
:101AC600FC01FD01031C6E2D0310F20CF10CF00C51
:101AD600F80C0130A1007708F302031C782D7E3044
:101AE6002107F3070318DA2D7D2D7E302107F30732
:101AF600031CDF2D1830FA07FD0DFC0DF80DF00D57
:101B0600F10DF20DA10D7408F0027508031C750F96
:101B1600F1027608031C760FF202760DA104211C51
:101B2600962D7D14A12D7408F00775080318750FFE
:101B3600F10776080318760AF2077D10FA031F30BC
:101B46007A05031D7F2D7B1B7D1CC82D0310F00D10
:101B5600F10DF20DA10D7408F0027508031C750F46
:101B6600F1027608031C760FF202760D2104013984
:101B7600FD070318FC0A0319F80A031DC82DF80C03
:101B8600FC0CFD0CF30A0319DA2DFA1FF81378087A
:101B9600F2007C08F1007D08F0000030E32D0130F2
:101BA6002F21E32D0230803112238831E32D0430BA
:101BB60080319A228831E32D08308031A62288317F
:041BC6000000080013
:101BCA004101EF014201DC01DA014401AE01AF013A
:0A1BDA00B00180313F278831080078
:101BE40040017008F8007108F0007208F1007308F1
:101BF400F200F301FB01FC019E30F300FA01F21F35
:101C04000F2EF809F009F109F209F80A0319F00A8C
:101C14000319F10A0319F20AFA170230FC005421DD
:021C24000800B6
:101C260043304401B1008031712588310230FC0017
:101C36000830FD00FD0B1D2EFC0B1D2E00000A308A
:101C46004401B10080319824883170084401AC0009
:101C56007108AD007108033A031D332EFF3070067C
:101C6600031D502E8330B10080317125883102303A
:101C7600FC000830FD00FD0B3E2EFC0B3E2E000046
:101C86000A304401B100803198248831700844013B
:101C9600AC007108AD00AC35AD0D2D08073A031D3B
:101CA600562EFE302C06031DA72EB101803171255C
:101CB60088310230FC000830FD00FD0B602EFC0B65
:101CC600602E00000A304401B1008031982488312A
:101CD60070084401AC007108AD007108033A031D99
:101CE600762EFF307006031D7A2E4301B41432217E
:101CF60044012C08F4002D08F500F601F701430114
:101D06004708F0004808F1000030F11BFF30F200F0
:101D1600F3008031C42188310A30F8007008F400DD
:101D26007108F5007208F6007308F70078080319C1
:101D3600A22EF736F60CF50CF40CFF3E9A2E74081C
:101D46004401AC007508AD002C08F0002D08F10028
:021D5600080083
:101D580043304401B1008031712588310230FC00E4
:101D68000830FD00FD0BB62EFC0BB62E0000083027
:101D78004401B10080319824883170084401AC00D6
:101D88007108AD007108033A031DCC2EFF307006B0
:101D9800031DE92E8330B10080317125883102306E
:101DA800FC000830FD00FD0BD72EFC0BD72E0000E1
:101DB80008304401B100803198248831700844010A
:101DC800AC007108AD00AC35AD0D2D08073A031D08
:101DD800EF2EFE302C06031D402FB10180317125F6
:101DE80088310230FC000830FD00FD0BF92EFC0B99
:101DF800F92E000008304401B10080319824883160
:101E080070084401AC007108AD007108033A031D65
:101E18000F2FFF307006031D132F4301B414322116
:101E280044012C08F4002D08F500F601F7014301E0
:101E38004708F0004808F1000030F11BFF30F200BD
:101E4800F3008031C42188310A30F8007008F400AA
:101E58007108F5007208F6007308F700780803198E
:101E68003B2FF736F60CF50CF40CFF3E332F7408B5
:101E78004401AC007508AD002C08F0002D08F100F5
:021E8800080050
:101E8A00003044012506031D4C2F00302406031D93
:101E9A005B2FB1013C30B2005D30B3000130B400B9
:101EAA000330B500803157238831BD2F00304401FB
:101EBA002502031D622F0A3024020318772F2408F3
:101ECA00B1002508B200B530B3000130B40080314A
:101EDA00A824883130304301BD002E30BE003A08B4
:101EEA00BF00B02F003044012502031D7E2F64304D
:101EFA0024020318932F2408B1002508B200B53034
:101F0A00B3000130B4008031A82488314301390874
:101F1A00BD002E30BE003A08BF00B02F0530440184
:101F2A002407F0000030253DF1007008A400710874
:101F3A00A5007008B1007108B200B530B3000130D5
:101F4A00B4008031A824883120304301BD0038080C
:101F5A00BE003908BF004401B1013C30B200BD30B7
:101F6A00B3000130B4000330B50080315723883103
:021F7A0008005D
:101F7C00710DF80DF90D7408F8027508031C750F36
:101F8C00F902F00DF10D0F30FC00710DF80DF90D8B
:101F9C007408701CD72FF8027508031C750FF90212
:101FAC00DC2FF80775080318750FF907F00DF10D04
:101FBC00FC0BCB2F7018E82F7408F8077508031862
:081FCC00750FF9070000080081
:101FD4004001971116169031602588314301450858
:101FE400A4004608A50040019715430134120800D7
:081FF40090315B2788310800E1
:10200000400197118831E525903102304401B1003B
:10201000B2012F30B3000030B4000930B500803178
:10202000572390311930FB005A30FC00B130FD00CD
:10203000FD0B1828FC0B1828FB0B182800000000CB
:1020400002304401B100B2013930B3000030B400B5
:102050000530B50080315723903102304401B10082
:102060002A30B200D930B3000030B4000130B500DE
:1020700080315723903102304401B1003C30B2002E
:10208000DB30B3000030B4000430B500803157239A
:10209000903164304201E2000030E3000D30FB007B
:1020A0002D30FC00D730FD00FD0B5428FC0B5428CC
:1020B000FB0B542800000000400197154301341128
:1020C00034134101E00142016C08E8006D08E900A9
:1020D0006E08EA006F08EB006C08E4006D08E5008C
:0A20E0006E08E6006F08E700080034
:1020EA008831AC2690317008A4007108A500003030
:1020FA00A51BFF30A600A70088311326903170086F
:10210A00A8007108A9000030A91BFF30AA00AB0083
:10211A002408F0002508F1002608F2002708F30039
:10212A008831F22590313D30F4000A30F5006730ED
:10213A00F6008130F70088312B2590310030F40009
:10214A000030F5005C30F6008530F70088316924EC
:10215A0090310030F4000030F5007A30F600883013
:10216A00F70088312B2590317008F4007108F500CA
:10217A007208F6007308F70088316924903100303C
:10218A00F4000030F5002030F6008130F700883185
:10219A002B2590310030F4000030F5000030F600B5
:1021AA007E30F7008831C82390318831CF249031AE
:1021BA0070084301B2007108B3008030F200803029
:1021CA0071067202031DEB287008003C03184029AF
:1021DA004001161E3D2943012008F0002108F100A4
:1021EA002208F2002308F300E830F4000330F50077
:1021FA00F601F7018031C4219031700842016C0761
:10220A004301C900710842016D3D4301CA007208C9
:10221A0042016E3D4301CB00730842016F3D430109
:10222A00CC0041012008F0002108F1002208F20048
:10223A002308F300E830F4000330F500F601F70153
:10224A008031C4219031700842016C074301AA0011
:10225A00710842016D3D4301AB00720842016E3DB7
:10226A004301AC00730842016F3D4301AD004029B0
:10227A008831F1229031803044012B06F000803001
:10228A0027067002031D532926082A02031D532913
:10229A0025082902031D532924082802031C5C2946
:1022AA00E730A4000330A500A601A701A629280843
:1022BA002407F0002908253DF1002A08263DF200EE
:1022CA002B08273DF3006430F400F501F601F7010D
:1022DA008031C421903144012408F4002508F50016
:1022EA002608F6002708F7002808F4022908F53B13
:1022FA002A08F63B2B08F73B88313B2290317008BD
:10230A004401A4007108A5007208A6007308A7007A
:10231A008030F400803073067402031D9E2972080F
:10232A00003C031D9E297108033C031D9E29700869
:10233A00E73C0318A629E730A4000330A500A6014C
:10234A00A70124084301C500440125084301C6002A
:02235A00080079
:10235C007408003A031DBB297508003A031DBB29FC
:10236C00FF30F0007F30F100152A4001FD01F9012A
:10237C00F801710870040319003471087506FA002D
:10238C00FA1BFD09FB01F51FD029F409F509F40A24
:10239C000319F50AF11FD729F009F109F00A0319FD
:1023AC00F10A71087504FA00FA1BEC298831BE2772
:1023BC0090317B18012AFD1F0034F009F109F00A55
:1023CC000319F10AF809F909F80A0319F90A003492
:1023DC00F51FFD29F11BF9297108F9007008F800A7
:1023EC00F101F001E129F101F001F00A0034F109E9
:1023FC00F009FB0ADE29F80A0319F90A74087802B5
:10240C00031DE12975087902031DE129F901F80181
:10241C00F00A0319F10AF11FE1290000FF3408004A
:10242C002C304301EE000130EF002C304401A000B1
:10243C000130A100A201A3017520430180303306B5
:10244C00F0008030410162067002031D302A6108E1
:10245C0043013202031C422A803041016406F00021
:10246C008030430133067002031D3F2A32084101BC
:10247C006302031C422AAF2A4301341D4A2A00205E
:10248C004301C501C601AF2AB41E4F2AC501C601BE
:10249C00AF2A75206F08003C031D562A6E08003CBD
:1024AC000318702A0130EE020030EF3B3308440170
:1024BC002302031D652A430132084401220203183A
:1024CC006F2A430132084401A2004301330844013E
:1024DC00A300AE2A4401230843012706031D792AD1
:1024EC002608440122060319832A44012208A40069
:1024FC002308A50088314527903144012208430167
:10250C00A600440123084301A7004401A201A30132
:10251C002C304301EE000130EF0044012108003C57
:10252C00031D9A2A2008003C0318A12A0130A0029E
:10253C000030A13BA52A4301C501C601AF2A0B30CF
:10254C00FC006230FD00FD0BA92AFC0BA92A00003F
:04255C00232A080026
:1025600003304301ED004201DC0141016F084401E9
:10257000AE00AF0142015A084401B00080313F274C
:10258000903116221430F4000030F5004301450864
:10259000F0004608F100AE21700843014507EB004A
:1025A0007108463DEC006D08EA006A081F3C031CF8
:1025B000312B41016F084401AE0043016A08440118
:1025C000AF0042015A084401B00080313F279031EA
:1025D0001622803043014606F00080306C067002FF
:1025E000031DF42A6B08450203182F2B1430F40046
:1025F0000030F5004508F0004608F100AE217008F3
:1026000043014507EB007108463DEC006A084201B2
:10261000DC0043016D084201DB00803043014606C7
:10262000F00080307002031D172B7830450203182C
:102630001A2B312B6D086A07F1007108EA00710846
:10264000093A031D262B0830EA002E2B6A08113A9E
:10265000031D2E2B1030EA000430ED00302B312BFF
:10266000D52A41016F084401AE0042015C084401D3
:10267000AF0042015A084401B00080313F27903139
:02268000080050
:10268200420161084301E4004201610841016F0710
:10269200F10071084301E60071081F3C0318532B37
:1026A2001F30E60041016F084301640203185F2BEB
:1026B200640841016F024301E700602BE7016708EC
:1026C2004101EF00430167084401AE0042015C088A
:1026D2004401AF0042015A084401B00080313F2753
:1026E20090311622003043014606031D7A2B00303A
:1026F2004506031D7D2B012C4508E8004608E9002C
:10270200670AE50065086602031CF22B65084401AE
:10271200AE0042015C084401AF0042015A08440184
:10272200B00080313F279031162200304301460627
:10273200031D9D2B00304506031DA02B012C80306C
:102742004606F000803069067002031DAA2B680855
:102752004502031CB62B6830FC00E430FD00FD0B83
:10276200B02BFC0BB02B0000162280304301460632
:10277200F000803069067002031DC12B6808450213
:10278200031CCD2B6830FC00E430FD00FD0BC72B91
:10279200FC0BC72B00001622803043014606F000D6
:1027A200803069067002031DD82B680845020318A1
:1027B200EF2B4508E8004608E90065084101EF00F3
:1027C200803043014606F00080307002031DEB2B7F
:1027D200783045020318EE2BF22BF02BF22BE50A90
:1027E200832B41016F084401AE0042015C084401A1
:1027F200AF0042015A084401B00080313F279031B6
:022802000800CC
:1028040003304301E900E50169084201E1000330B6
:102814004301E6001430F4000030F5004508F000F0
:102824004608F100AE21700843014507E70071082E
:10283400463DE8006908E40064081F3C031C7F2C43
:1028440064084401AE0042015C084401AF00420147
:102854005A084401B00080313F279031B02216223B
:10286400803043014606F000803068067002031D84
:102874003D2C6708450203187D2C1430F400003009
:10288400F5004508F0004608F100AE217008430148
:102894004507E7007108463DE80064084101EF0080
:1028A40042015C084301E50069084201E1005B085C
:1028B4004301E60080304606F00080307002031DBC
:1028C400652C783045020318682C7F2C690864074E
:1028D400F1007108E4007108093A031D742C0830F2
:1028E400E4007C2C6408113A031D7C2C1030E400B5
:1028F4000430E9007E2C7F2C1E2C65084201DC008C
:1029040041016F084401AE00430165084401AF0072
:1029140042015A084401B00080313F2790314301FD
:1029240066084201DB006830FC00E430FD00FD0B6A
:0A293400992CFC0B992C0000080000
:10293E0042015B084301E40042015B085C07F100C1
:10294E0071084301E60071081F3C0318B02C1F30BC
:10295E00E60042015C08430164020318BC2C6408C3
:10296E0042015C024301E700BD2CE701670842010A
:10297E00DC0041016F084401AE00430167084401C9
:10298E00AF0042015A084401B00080313F27903118
:10299E001622003043014606031DD72C0030450693
:1029AE00031DDA2C5F2D4508E8004608E900670A8A
:1029BE00E50065086602031C502D41016F084401B5
:1029CE00AE00430165084401AF0042015A084401BC
:1029DE00B00080313F279031162200304301460669
:1029EE00031DFB2C00304506031DFE2C5F2D803091
:1029FE004606F000803069067002031D082D680837
:102A0E004502031C142D6830FC00E430FD00FD0B64
:102A1E000E2DFC0B0E2D00001622803043014606B3
:102A2E00F000803069067002031D1F2D68084502F4
:102A3E00031C2B2D6830FC00E430FD00FD0B252D12
:102A4E00FC0B252D00001622803043014606F000B7
:102A5E00803069067002031D362D68084502031882
:102A6E004D2D4508E8004608E90065084201DC00E6
:102A7E00803043014606F00080307002031D492D60
:102A8E007830450203184C2D502D4E2D502DE50A51
:102A9E00E02C41016F084401AE0042015C08440184
:102AAE00AF0042015A084401B00080313F279031F7
:022ABE0008000E
:102AC0006400400119110530FB000F30FC00F130AB
:102AD000FD00FD0B692DFC0B692DFB0B692D1622EA
:102AE000803043014606F00080307002031D7A2DCD
:102AF0006E30450203187F2D40011915002F8831D3
:102B0000E52590310330FB000830FC007730FD00F4
:102B1000FD0B882DFC0B882DFB0B882D1622803099
:102B200043014606F00080307002031D992D6E307F
:102B3000450203189E2D40011915002F4301450839
:102B4000DE004608DF000224003043014606031D74
:102B5000AB2D00304506031DB22D8831E52590319F
:102B60001915002F1622803043014606F0008030F0
:102B70007002031DBD2D783045020318C22D40019F
:102B80001915002F4123003043014606031DCA2DAD
:102B900000304506031DD12D8831E52590311915EA
:102BA000002F1622803043014606F000803070026C
:102BB000031DDC2D783045020318E12D4001191565
:102BC000002F9F24003043014606031DE92D0030ED
:102BD0004506031DF02D8831E52590311915002F8C
:102BE0001622803043014606F00080307002031D3B
:102BF000FB2D783045020318002E40011915002FD7
:102C0000803043014606F00080307002031D0A2E1A
:102C1000C830450203182C2E80304606F000803064
:102C20005F067002031D162E5E08450203182C2E47
:102C300045085E02F10046085F3BF2008030F0007C
:102C4000803072067002031D272E7108643C031841
:102C50002C2E40011915002F43014508DE004608BF
:102C6000DF0041016F084301E000E10142015C081F
:102C70004301E200E30142015A08013A031D422EDA
:102C8000DA01442E0130DA008831E5259031410126
:102C90006F084401AE0042015C084401AF004201EC
:102CA0005A084401B00080313F2790310330FB00C7
:102CB0000830FC007730FD00FD0B5C2EFC0B5C2E19
:102CC000FB0B5C2E1622803043014606F00080305C
:102CD0007002031D6D2E783045020318722E4001DC
:102CE0001915002F0224003043014606031D7A2ED9
:102CF00000304506031D812E8831E52590311915D8
:102D0000002F1622803043014606F000803070020A
:102D1000031D8C2E783045020318912E40011915A1
:102D2000002F4123003043014606031D992E003039
:102D30004506031DA02E8831E52590311915002F79
:102D40001622803043014606F00080307002031DD9
:102D5000AB2E783045020318B02E40011915002F14
:102D60009F24003043014606031DB82E003045065F
:102D7000031DBF2E8831E52590311915002F16222D
:102D8000803043014606F00080307002031DCA2ED9
:102D9000783045020318CF2E40011915002F8030DE
:102DA00043015F06F000803046067002031DDA2EF4
:102DB00045085E020318FC2E42015A08013A031D21
:102DC000E32EDA01E52E0130DA004301600841010B
:102DD000EF00430162084201DC0043016008440146
:102DE000AE00430162084401AF0042015A084401A9
:102DF000B00080313F279031640016224001191540
:022E00000800C8
:102E02004001971102304401B100B201E530B30034
:102E12000030B4000930B50080315723903160256D
:102E220043014508A4004608A50045084201E20006
:102E3200430146084201E30002304401B100B201FD
:102E4200C330B3000030B4000430B50080315723E2
:102E5200903102304401B1002A30B200C830B300D0
:102E62000030B4000130B500803157239031430166
:102E720024084401AE00430125084401AF00883113
:102E8200F420903197154301B41134124101E0014D
:102E920042016C08E8006D08E9006E08EA006F085C
:102EA200EB006C08E4006D08E5006E08E6006F08B0
:042EB200E70008002D
:102EB6008B1340019E134E018C1216167E01CA1208
:102EC600C91640011A15161A852F16160930FB0069
:102ED6001E30FC00E430FD00FD0B6F2FFC0B6F2F46
:102EE600FB0B6F2F00008031EE2790316830FC001D
:102EF600E430FD00FD0B7D2FFC0B7D2F000088319B
:102F0600002090318031AC25903101304401B10070
:102F1600B201B730B3000030B4000B30B5008031D9
:102F2600572390315230FB002B30FC000030FD005F
:102F3600FD0B9B2FFC0B9B2FFB0B9B2F00001612F0
:102F4600171697154301D5015508003A031DBA2FE8
:102F56000530FB000F30FC00F130FD00FD0BB12FFA
:102F6600FC0BB12FFB0BB12F7E01CA1263000000D0
:102F76000530FB000F30FC00F130FD00FD0BC12FCA
:102F8600FC0BC12FFB0BC12F40018D1ACC2F031454
:102F9600CD2F0310031CD22F4301D50AD42F430192
:102FA600D50155080F3C0318D92FDA2FA72F4E014C
:102FB60016127E01C912CA1240019E178B171A11EA
:102FC600430134148831F122903140018D1AED2FDE
:102FD6000314EE2F0310031CF22F0000E82F41010B
:0C2FE600E00142016C084301D500080026
:1030000080313921983141014F084401C20080319B
:103010005321983140304401C2008031532198310E
:103020000A30F4000030F50043015508F00056085E
:10303000F1009031AE21983170084301D50071083C
:10304000D60080307106F2008030013A7202031D12
:103050002B282C307002031832282C30D500013078
:10306000D60042288030013AF000803056067002C7
:10307000031D3C285508A43C03184228A430D50061
:103080000130D6002C305502F3000130563BF400DD
:103090007308D5007408D6000530F2007308F000FC
:1030A0007408F100720803195928F035F10DFF3E3C
:1030B00053287008D5007108D6007830F40000302D
:1030C000F5009031AE21983170084301D8001930D5
:1030D0007002031C752818305802D9000830DA0035
:1030E0000830DB000830DC00932811305802031C44
:1030F0008228D90110305802DA000830DB0008308D
:10310000DC00932809305802031C8E28D901DA010B
:1031100008305802DB000830DC009328D901DA01BE
:10312000DB015808DC008030DD0001305902F0007E
:10313000F1010030F13B7008F1005D08F00071080A
:103140000319A528F036FF3EA0287008FF3CDD00DB
:10315000DD0A0330DD044401BB017730BC0080315F
:103160000E22983143015D084401C2008031532191
:10317000983143015D084401C200803153219831E8
:1031800043015D084401C2008031532198311F3052
:103190004301DD044401BB017530BC0080310E22C7
:1031A000983143015D084401C200803153219831B8
:1031B00043015D084401C20080315321983144012C
:1031C000BB017A30BC0080310E22983143015D088A
:1031D0004401C20080315321983143015D0844010C
:1031E000C20080315321983180304301DD0001302D
:1031F0005A02F000F1010030F13B7008F1005D0867
:10320000F000710803190729F036FF3E0229700803
:10321000FF3CDD00DD0A01304401BB007530BC001D
:1032200080310E2298314301D7015708063C031C18
:1032300022295D084401C2008031532198314301A5
:10324000D70A15298030DD0001305B02F000F10162
:103250000030F13B7008F1005D08F00071080319BF
:103260003429F036FF3E2F297008FF3CDD00DD0ACF
:1032700002304401BB007530BC0080310E22983111
:103280004301D7015708063C031C4F295D08440140
:10329000C2008031532198314301D70A422980303E
:1032A000DD0001305C02F000F1010030F13B7008FC
:1032B000F1005D08F000710803196129F036FF3E46
:1032C0005C297008FF3CDD00DD0AC030DD040330FE
:1032D0004401BB007530BC0080310E22983143019F
:1032E000D7015708063C031C7E295D084401C20033
:1032F0008031532198314301D70A71298031FA2155
:0433000098310800F8
:103304006430410153024301CF0000304101543B7A
:103314004301D0000330FB000830FC007730FD008F
:10332400FD0B9229FC0B9229FB0B92295830CE00FD
:10333400D101D201D301D401CD014E084D020318AD
:10334400C52990317520983180305206F0008030C4
:1033540033067002031DB029320851020318BA293A
:103364003208D1003308D2004508D3004608D400FF
:103374000B30FC006230FD00FD0BBE29FC0BBE29A6
:103384000000CD0A9F298030F00080305206700280
:10339400031DCE295108003C0318232A4001161EA0
:1033A400202A43012008F0002108F1002208F2003D
:1033B4002308F300E830F4000330F500F601F701C8
:1033C4008031C4219831700842016C074301C9005F
:1033D400710842016D3D4301CA00720842016E3D0D
:1033E4004301CB00730842016F3D4301CC0041010E
:1033F4002008F0002108F1002208F2002308F3005D
:10340400E830F4000330F500F601F7018031C421FF
:103414009831700842016C074301AA007108420107
:103424006D3D4301AB00720842016E3D4301AC00A7
:10343400730842016F3D4301AD00232A8831F12214
:10344400983152082706031D292A26085106031914
:10345400572AB41C3B2A4401B1012A30B200D530AA
:10346400B3000030B4000130B500803157239831E7
:10347400482A4401B1012A30B200D730B3000030E9
:10348400B4000130B500803157239831430151080D
:10349400A6005208A70051084401A40043015208A1
:1034A4004401A5008831452798318030F0008030F0
:1034B400430154067002031D612A5308633C031838
:1034C400922A54082506031D692A24085306031961
:1034D400922A5308A4005408A50080305206F00034
:1034E40080307002031D782A0A3051020318872A9B
:1034F400D301D40124084401AE004301250844014A
:10350400AF008831F4209831A32B430124084401EF
:10351400AE00430125084401AF008831F4209831FE
:103524004301B41C092B0330CE004E08003A0319A2
:10353400D32A02304401B1000630B2002230B30075
:103544000130B4000930B50080315723983115306B
:10355400FB004B30FC00BE30FD00FD0BAF2AFC0B22
:10356400AF2AFB0BAF2A000002304401B100B201C4
:103574002C30B3000130B4000930B500803157233A
:1035840098311530FB004B30FC00BE30FD00FD0BC4
:10359400C92AFC0BC92AFB0BC92A00004301CE032C
:1035A400972A02304401B100B2013630B300013031
:1035B400B4000930B50080315723983102304401FA
:1035C400B1002A30B2002030B3000130B400013021
:1035D400B500803157239831430153084401AE00AC
:1035E400430154084401AF008831F4209831153068
:1035F400FB004B30FC00BE30FD00FD0BFF2AFC0B32
:10360400FF2AFB0BFF2A00004301B410A32B8030D8
:103614005206F0008030410162067002031D152B32
:10362400610843015102031C362B430180305206CA
:10363400F0008030410164067002031D242B6308EE
:10364400430151020318362B430180305406F00025
:103654008030410154067002031D332B530843018B
:103664005302031C362B442B43018030033AF000F1
:10367400803054067002031D412B5308843C031C04
:10368400442BA32B803042016306F00080304301B9
:1036940054067002031D512B5308420162020318A1
:1036A4006A2B4201620843015302F100420163089C
:1036B4004301543BF20080305006F0008030720623
:1036C4007002031D672B71084F0203186A2B9F2B8E
:1036D400430180305406F0008030420163067002DA
:1036E400031D772B6208430153020318912B4301F6
:1036F400530842016202F100430154084201633B52
:10370400F200803043015006F000803072067002EF
:10371400031D8E2B71084F020318912B9F2B43011D
:103724008030033AF000803054067002031D9C2B55
:103734005308843C031C9F2BA32B90310127983101
:04374400A32B0800AB
:1037480098304301AE000430AF003130B000023091
:10375800B10041019301940195019601EC309A055D
:08376800131613159317080056
:103770007E01B801C3014314C3144315CE01E40113
:10378000D90153019013941340018C018D018E01D6
:103790008F01900196019701103098000630990032
:1037A0009A019101273092009301940195017E01C5
:1037B0003A15BA15DB145B1540019F121F179F13B2
:1037C0001E16C0309C00E0309D004E018C1240015E
:1037D0009E174E0196161E304F019600FE30970040
:1037E000473098007F30990077309A00DF309B0097
:1037F0008B170530FB000F30FC00F130FD00FD0B96
:0C380000FF2BFC0BFF2BFB0BFF2B080029
:10380C00883132219831480842014D06031D112C94
:10381C004C08430147060319212C43014708420178
:10382C00CC00430148084201CD0043014708D500B4
:10383C004808D600002080300E3AF000803043015A
:10384C0048067002031D2C2C4708743C0318402CAE
:10385C004001971117160230FB003830FC00AD30D8
:10386C00FD00FD0B372CFC0B372CFB0B372C971565
:10387C001716702C80300E3AF00080304301480649
:10388C007002031D4B2C4708063C03185F2C4001AB
:10389C00971117120230FB003830FC00AD30FD00E0
:1038AC00FD0B562CFC0B562CFB0B562C9715171698
:1038BC00702C4001171297150230FB003830FC00B9
:1038CC00AD30FD00FD0B682CFC0B682CFB0B682C41
:1038DC0017169715803043014806F00080300D3ADA
:1038EC007002031D7B2C4830470203189E2C80313C
:1038FC00AC25983101304401B100B201AB30B300BA
:10390C000030B4000B30B500803157239831523061
:10391C00FB002B30FC000030FD00FD0B932CFC0B4E
:10392C00932CFB0B932C0000161290315B279831D3
:02393C00080081
:10393E0012001E00F003031D9F2CF103031D9F2C8C
:02394E0008006F
:10395000A031B2209831B823400117161915430140
:1039600034148831F122983140011A11A423430103
:10397000B4102008F0002108F1002208F20023080A
:10398000F300E830F4000330F500F601F701803170
:10399000C4219831700842016C074301C9007108C5
:1039A00042016D3D4301CA00720842016E3D430170
:1039B000CB00730842016F3D4301CC004101200858
:1039C000F0002108F1002208F2002308F300E8309B
:1039D000F4000330F500F601F7018031C42198317D
:1039E000700842016C074301AA00710842016D3D55
:1039F0004301AB00720842016E3D4301AC00730805
:103A000042016F3D4301AD00410129084301A80077
:103A100041012A084301A90042016B086F02031DFE
:103A20001B2D6A086E02031D1B2D69086D02031D04
:103A30001B2D68086C02031C252DB830E8070B30DD
:103A4000E93D0030EA3DEB3D0624420167086F0284
:103A5000031D342D66086E02031D342D65086D02AA
:103A6000031D342D64086C02031C3E2D2C30E4072A
:103A70000130E53D0030E63DE73D822143014C0841
:103A800042016F02031D542D43014B0842016E0297
:103A9000031D542D43014A0842016D02031D542D9C
:103AA0004301490842016C02031C582D40011612C3
:103AB00043012D0842016F02031D6E2D43012C08A6
:103AC00042016E02031D6E2D43012B0842016D025F
:103AD000031D6E2D43012A0842016C02031C732D45
:103AE00090315B2798314301341D802D4001161E13
:103AF0007D2D903100209831802D8831F122983130
:103B00004301B41D8D2D4001161E8A2D90310127D1
:103B100098318D2D8831F12298314301B41E9A2DB0
:103B20004001161E972D8831FA2798319A2D883139
:103B3000F1229831341FA52D4001161AA22D88318B
:103B4000F12298319031002098314301341EB52D77
:103B50004001161AB22D8831EA2798318831F122B6
:0E3B60009831B52D9031012798310C2DB62DDE
:10416400983084009F3085004030F0000130F10029
:104174002F3086000030870098319F24A0313A30D8
:104184008400A03085002E30F0000130F100A03012
:1041940086000030870098319F24A031FC308400D1
:1041A400873085000130F0000130F1006F30860067
:1041B4000030870098319F24A031D83084009F308C
:1041C40085002130F0000130F100CE30860000304F
:1041D400870098319F24A03100308400A0308500EE
:1041E4003A30F0000130F1002030860001308700C1
:1041F40098319F24A0310330840080308500013041
:10420400F0000130F100EF30860000308700983173
:104214009F24A03194308400A03085001630F00033
:104224000130F1005A3086000130870098319F2414
:10423400A031AA308400A03085000830F00001309D
:10424400F100A03086000130870098319F24A0310E
:02425400080060
:020006000034C4
:020FF8000034C3
:103B700000340034003400340034003400345F3446
:103B80000034003400340734003407340034143473
:103B90007F3414347F34143424342A347F342A3468
:103BA00012342334133408346434623436344934E0
:103BB0005534223450340034053403340034003496
:103BC00000341C3422344134003400344134223473
:103BD0001C34003408342A341C342A3408340834A1
:103BE00008343E340834083400345034303400345F
:103BF00000340834083408340834083400343034CD
:103C000030340034003420341034083404340234A6
:103C10003E345134493445343E34003442347F34E8
:103C20004034003442346134513449344634213410
:103C3000413445344B3431341834143412347F3425
:103C40001034273445344534453439343C344A340F
:103C5000493449343034013471340934053403347F
:103C600036344934493449343634063449344934D5
:103C700029341E34003436343634003400340034F1
:103C800056343634003400340034083414342234CA
:103C9000413414341434143414341434413422347C
:103CA00014340834003402340134513409340634F5
:103CB00032344934793441343E347E341134113451
:103CC00011347E347F3449344934493436343E34F7
:103CD00041344134413422347F344134413422343C
:103CE0001C347F3449344934493441347F340934F5
:103CF0000934013401343E344134413451343234D6
:103D00007F340834083408347F34003441347F343D
:103D1000413400342034403441343F3401347F3462
:103D200008341434223441347F3440344034403435
:103D300040347F340234043402347F347F3404341A
:103D4000083410347F343E344134413441343E34FD
:103D50007F3409340934093406343E344134513453
:103D600021345E347F3409341934293446344634DE
:103D70004934493449343134013401347F34013415
:103D800001343F344034403440343F341F34203415
:103D9000403420341F347F342034183420347F34AE
:103DA00063341434083414346334033404347834FE
:103DB00004340334613451344934453443340034D9
:103DC00000347F3441344134023404340834103434
:103DD0002034413441347F3400340034043402341C
:103DE00001340234043440344034403440344034EC
:103DF0000034013402340434003420345434543454
:103E0000543478347F344834443444343834383487
:103E1000443444344434203438344434443448340E
:103E20007F343834543454345434183408347E34A1
:103E300009340134023408341434543454343C34D6
:103E40007F340834043404347834003444347D340A
:103E5000403400342034403444343D3400340034A1
:103E60007F34103428344434003441347F344034B7
:103E700000347C3404341834043478347C3408340A
:103E800004340434783438344434443444343834D6
:103E90007C34143414341434083408341434143492
:103EA00018347C347C340834043404340834483402
:103EB000543454345434203404343F34443440347F
:103EC00020343C344034403420347C341C3420349E
:103ED000403420341C343C344034303440343C349E
:103EE000443428341034283444340C34503450349E
:103EF00050343C344434643454344C34443400340A
:103F00000834363441340034003400347F34003413
:103F10000034003441343634083400340834083472
:103F20002A341C34083408341C342A340834083445
:103F300052344534533445345434203420342034FE
:043F400020340034F5
:0C3F4400533457345234203420340034FD
:103F500020344634573420345634453452345334A4
:0A3F600049344F344E34203400344D
:103F6A0031342E343434203452344D345334003402
:103F7A0031342E343434203452344D3453340034F2
:103F8A002034443445345334493447344E34453468
:103F9A00443420344234593420344E34373444348F
:063FAA00443443340034EE
:023FB0000234D9
:043FB200783400342B
:023FB600403495
:023FB8000134D2
:043FBA008234003419
:043FBE003E34003459
:043FC2003D34003456
:043FC6003D34003452
:0A3FCA0030342E343034303400342B
:023FD4000034B7
:043FD6000A34003475
:043FDA0096340034E5
:103FDE00543455344E344534203420342034203477
:043FEE002034003447
:044000003D34003417
:104004004F345634453452344C344F3441344434B0
:044014002034003420
:1040180020342034203420342034203420342034F8
:04402800203400340C
:10402C005334573452342034203420342034203448
:04403C0020340034F8
:104040005034573452342034203420342034203437
:0440500057340034AD
:044054003D340034C3
:0440580000340034FC
:10405C005334573452342034203420342034203418
:04406C0020340034C8
:044070003D340034A7
:08407400083407340034003465
:0A407C0030342E3430343034003478
:0440860007340034C7
:10408A00203420344C344F345734203442344134B1
:08409A00543454342034003486
:1040A200203450344F3457344534523420344F3452
:0840B20046344634203400348A
:0A40BA0053345734523420340034DC
:0440C4003D34003453
:0840C800003400340034003420
:1040D000F834F8341F341F340334033403341F34EA
:1040E0001F34F834F834FF34FF3400340034003423
:1040F0000034003400340034FF34FF34FF34FF3424
:104100000034003400340034003400340034FF3410
:10411000FF34FF34FF34C034C034C034C034C03442
:08412000C034C034FF34FF3449
:02412800003461
:02412A0000345F
:02412C0000345D
:08412E0030342E34303400342B
:02413600003453
:0441380064340034B7
:08413C000034003400340034AB
:084144000034003400340034A3
:08414C0000340034003400349B
:084154002C3401340034003466
:04415C0000340034F7
:044160000F342734BD
:020000040001F9
:0A000E000429213E1F3F03300300C8
:00000001FF
