:04000000983100280B
:1000080070084001AE007108AD007208AC007308BA
:10001800AB007408AA007508A9007608A80077083C
:10002800A7007808A6007908A5007A08A4007B082C
:10003800A3007C08A20080314E018C1E30288C124F
:1000480001304101A8070030A93DAA3DAB3DC030B1
:1000580040019C00E0309D00410137082B02031D40
:100068003F2836082A02031D3F2835082902031DA8
:100078003F2834082802031C47290A30B4070030F7
:10008800B53DB63DB73D40018D1A4C2874144D2836
:1000980074108F1851280314522803107418582804
:1000A80003185828741059287414741C9C2841018A
:1000B8002008F0002108F1002208F2002308F300CC
:1000C800E830F4000330F500F601F7010D27700859
:1000D800410128074201A00071084101293D420160
:1000E800A100720841012A3D4201A20073084101A2
:1000F8002B3D4201A30041012408F0002508F1002E
:100108002608F2002708F300E830F4000330F50071
:10011800F601F7010D27700841012807EA00710868
:10012800293DEB0072082A3DEC0073082B3DED00D9
:1001380040018D1AA1280314A2280310031CC0280B
:10014800FA30410130020318AA28B00A3008193AD7
:10015800031DAF2869163008FA3A0130031D003034
:10016800F100F0014001161AF00A7108F0050319B0
:10017800BF284101E916D52841013008023C013069
:1001880003180030F1001930300201300318003034
:10019800F0007108F0050319D428E915B001D52835
:1001A800B00140018F18DA280314DB280310031C60
:1001B800F928FA30410131020318E328B10A31085D
:1001C800193A0130031D0030F10040010F19EE28E3
:1001D8000314EF280310F0010318F00A7108F00562
:1001E8000319F8284101E9140E2941013108023C9C
:1001F800013003180030F1001930310201300318C2
:100208000030F0007108F00503190D296914B101D7
:100218000E29B10140010F191329031414290310E1
:10022800031C3229FA304101320203181C29B20A90
:100238003208193A0130031D0030F10040010F194E
:100248002729031428290310F0010318F00A71085C
:10025800F00503193129410169174729410132087D
:10026800023C013003180030F1001930320201302D
:1002780003180030F0007108F005031946296915C4
:10028800B2014729B20140012E08F0002D08F10003
:100298002C08F2002B08F3002A08F4002908F500BE
:1002A8002808F6002708F7002608F8002508F900AE
:0E02B8002408FA002308FB002208FC000900BD
:0C02C6003A30FD00FD0B65290000080027
:0E02D200F201F101F001F801F3010030080023
:1002E0007B15FB1F7A290130F300F201F101F001C7
:0802F000FA0DF20CFF300800CA
:0802F800FA1FF21300300800A8
:10030000BB304201A4000130A5005F30A6000130DF
:10031000A70041019301940195019601EC309A05E3
:10032000133042015F05F000700841019A04C030AB
:1003300042015F05F0000319B329C0305F05F200E8
:100340000630F1007208F00071080319AA29F0368E
:10035000FF3EA529700852018C008C170C1BB22996
:100360000000AE29B6295201FC308C05410113165C
:06037000131593170800AD
:100376003F3042015F0541019E00632113140000D6
:10038600131CC629C3290C08F0000D08F10008004B
:100396007B14FB1FD629F201FA1FFF30F200F10091
:0A03A600F000FA0DF20CFF30080021
:1003B000F101083071020318F7294201DF1BE3291C
:1003C00040011611E529400116152730FD00FD0BEF
:1003D000E7290000000096152730FD00FD0BEE29EF
:1003E0000000000096114201DF35F10AD9294001D1
:1003F00016152730FD00FD0BFB29000000009615A7
:1004000000300C190130F2002730FD00FD0B062AE8
:100410000000000096112730FD00FD0B0D2A0000A2
:0804200000007208F000080062
:10042800400196152730FD00FD0B182A000000003A
:1004380016152730FD00FD0B1F2A000000001611BD
:100448002730FD00FD0B262A0000000096112730FA
:0C045800FD00FD0B2D2A00000000080034
:100464004001FB01FA01F9018030F800F10CF00CB5
:10047400031C452A7408F90775080318750FFA0751
:100484000318FB0A0310F01F4D2A7408FA077508B5
:100494000318750FFB07FB0CFA0CF90CF80C031C82
:1004A400382A7B08F3007A08F2007908F10078080A
:0404B400F00008004C
:1004B800710DF80DF90D7408F8027508031C750F15
:1004C800F902F00DF10D0F30FC00710DF80DF90D6A
:1004D8007408701C752AF8027508031C750FF90258
:1004E8007A2AF80775080318750FF907F00DF10D4A
:1004F800FC0B692A7018862A7408F807750803180F
:08050800750FF907000008005F
:10051000FB14FB1F922AFF30F300F200F100F00001
:08052000FA0DF20CFF30080097
:10052800A1017208031DA92A7108F2007008F100E0
:10053800F001A1157208031DA92A7108F200F10142
:10054800A111211672080319B72A2108F302031D05
:10055800031CBB2A0310F21BBF2AF00DF10DF20D8C
:10056800F30BAF2ABB2A0130FC006921C22A0230F2
:0E057800FC007021C22A0430FC007C21080027
:100586004001F801F9011030FC00710DF80DF90D6C
:100596007408F8027508031C750FF9020318DA2AA5
:1005A6007408F80775080318750FF9070310F00D9E
:0805B600F10DFC0BC82A08003E
:1005BE007408F8027508031C750FF9027608031CFF
:1005CE00760FFA027708031C770FFB02F30D073044
:1005DE00FC00730DF80DF90DFA0DFB0D7408731C6C
:1005EE00062BF8027508031C750FF9027608031C1A
:1005FE00760FFA027708031C770FFB02132BF8070E
:10060E0075080318750FF90776080318760FFA07A1
:10061E0077080318770FFB07F30DFC0BF02A720D0A
:10062E00F80DF90DFA0DFB0D7408731C2C2BF80246
:10063E007508031C750FF9027608031C760FFA0273
:10064E007708031C770FFB02392BF8077508031880
:10065E00750FF90776080318760FFA07770803184F
:10066E00770FFB07F20D0730FC00720DF80DF90D38
:10067E00FA0DFB0D7408721C522BF8027508031C40
:10068E00750FF9027608031C760FFA027708031C21
:10069E00770FFB025F2BF80775080318750FF90724
:1006AE0076080318760FFA0777080318770FFB07FB
:1006BE00F20DFC0B3C2B710DF80DF90DFA0DFB0D27
:1006CE007408721C782BF8027508031C750FF9025A
:1006DE007608031C760FFA027708031C770FFB02CD
:1006EE00852BF80775080318750FF9077608031898
:1006FE00760FFA0777080318770FFB07F10D07300F
:10070E00FC00710DF80DF90DFA0DFB0D7408711C3E
:10071E009E2BF8027508031C750FF9027608031C50
:10072E00760FFA027708031C770FFB02AB2BF80744
:10073E0075080318750FF90776080318760FFA0770
:10074E0077080318770FFB07F10DFC0B882B700D44
:10075E00F80DF90DFA0DFB0D7408711CC42BF8027F
:10076E007508031C750FF9027608031C760FFA0242
:10077E007708031C770FFB02D12BF80775080318B7
:10078E00750FF90776080318760FFA07770803181E
:10079E00770FFB07F00D0730FC00700DF80DF90D0B
:1007AE00FA0DFB0D7408701CEA2BF8027508031C79
:1007BE00750FF9027608031C760FFA027708031CF0
:1007CE00770FFB02F72BF80775080318750FF9075B
:1007DE0076080318760FFA0777080318770FFB07CA
:1007EE00F00DFC0BD42B70180A2C7408F807750842
:1007FE000318750FF90776080318760FFA077708AE
:08080E000318770FFB07080037
:10081600FB09FA09F909F809F80A0319F90A03198B
:08082600FA0A0319FB0A08009D
:10082E007C184D2CFC181E2C7C196C2C172CA1013D
:10083E007208031D3E2C7108F2007008F100780852
:10084E00F000F801A1157208031D3E2C7108F2008C
:10085E007008F100F001A11121167208031D3E2C43
:10086E007108F200F101A11572080319602C21081C
:10087E00F302031D031C642C0310F21B4D2CF80D08
:10088E00F00DF10DF20DF30B442C642C7B1B701C40
:10089E00682CF81F682CF00A0319F10A0319F20AE2
:1008AE00031D682CF20CF10CF00CF30A03196C2CDE
:1008BE00682C0130FC0069216F2C0230FC00702185
:1008CE006F2C0430FC007C216F2C0830FC00882239
:0408DE00000008000E
:0608E200FB15FF300800C9
:1008E800400116112730FD00FD0B782C0000000098
:1008F80096152730FD00FD0B7F2C00000000161513
:0E0908002730FD00FD0B862C000000000800CB
:1009160040017008F100F0010830FC007108F40C89
:100926000318992CFC0B922CF101003403109E2C19
:10093600F40C0318F107F10CF00CFC0B9B2C0800CF
:100946004101330842015907DC00142241012C08F9
:100956004201DF00D8214201DF01D82142015808B7
:10096600B03EDF00D82142015C080F3C031CBF2CBF
:100976005C08DA00DB01D02C5C08F200F236F236B5
:10098600F236F2367208DB007208F000F035F03508
:10099600F035F03570085C02DA005A08DF00D8211D
:1009A60042015B08103EDF00D821142241012C08C9
:1009B6004201DF00D82140304201DF00D821080083
:1009C6007408003A031DF02C7508003A031DF02C3C
:1009D600FF30F0007F30F100482D4001FD01F901A4
:1009E600F801710870040319003471087506FA00DD
:1009F600FA1BFD09FB01F51F052DF409F509F40A9B
:100A06000319F50AF11F0C2DF009F109F00A031973
:100A1600F10A71087504FA00FA1B212D5C227B1875
:100A2600342DFD1F0034F009F109F00A0319F10A0B
:100A3600F809F909F80A0319F90A0034F51F302DE7
:100A4600F11B2C2D7108F9007008F800F101F00176
:100A5600142DF101F001F00A0034F109F009FB0A46
:100A6600112DF80A0319F90A74087802031D142DCA
:100A760075087902031D142DF901F801F00A03190E
:0C0A8600F10AF11F142D0000FF340800DD
:100A92004001FB0173080319852D7208FA00F21751
:100AA2008E30F302F31F882DF309F30A0830730224
:100AB200031C6B2DF300F10D7208F100F2010830F6
:100AC2007302031C6B2DF300F10DF1017308031D7A
:100AD2000310732D73080319732D0310F20CF10C1C
:100AE200F30B6E2D7B1B711C7D2D031C7D2DF10ADA
:100AF2000319F20AF21B942DFA1F972DF209F1093C
:100B0200F10A0319F20A972DF201F101972D7B14D4
:100B1200FB1F9A2DF201FA1F9A2DFF30F200F1000D
:100B2200FA0DF20C9A2D0130FC009C2D0030FC00D5
:100B32009C2DFF30FC00FC080319A02DCB2171086D
:080B4200F0007208F100080048
:100B4A004001FB017308031D77080319FB2D720886
:100B5A007606FA007708F3077E30031CB82DF302F5
:100B6A000318FE2DBB2DF302031C012E7208F80098
:100B7A007108FC007008FD00F817F6170310F2015F
:100B8A00F101F0011830A1007D1CD52D7408F00781
:100B9A0075080318750FF10776080318760FF20720
:100BAA00F20CF10CF00CF80CFC0CFD0C0310A10B70
:100BBA00C92DF21BE52DF80DF00DF10DF20DF30321
:100BCA007B1B701CF72DF81FF72DF00A0319F10A89
:100BDA000319F20A031DF72DF20CF10CF00CF30ABB
:100BEA000319FE2DFA1FF2130030032E013069217A
:100BFA00032E02308822032E0430702100000800E0
:100C0A0040017008F8007108F000F101F201F301E7
:100C1A00FB01FC019630F300FA01F01F1A2EF809C5
:100C2A00F009F80A0319F00AFA177008F1007808AF
:0A0C3A00F000F801F2019422080016
:100C44004201DC0105305C020318322E5C085A07AD
:100C5400860000305B3D870020308100DC0A242EB2
:100C64005C085A07860000305B3D87008101DC0385
:100C74005C085A07DD0000305B3DDE000A30F400FA
:100C8400F5015808F0005908F100C3227808F00073
:100C94007908F1003030F00742015D0886005E08F3
:100CA4008700700881000A30F400F5015808F0004C
:100CB4005908F100C32270084201D8007108D90014
:100CC40000307106031D682E00307006031D6B2E64
:080CD4006D2EDC033A2E08002E
:100CDC0043304201DF0080210230FC000830FD006F
:100CEC00FD0B762EFC0B762E000009304201DF0046
:100CFC00BB210B30F4000030F500322270084201A9
:080D0C00A8007108A90008000D
:100D140043304201DF0080210230FC000830FD0036
:100D2400FD0B922EFC0B922E00000A304201DF00D4
:100D3400BB2170084201CE007108CF007108033A4C
:100D4400031DA62EFF307006031DBF2E8330DF0067
:100D540080210230FC000830FD00FD0BAF2EFC0B9F
:100D6400AF2E00000A304201DF00BB2170084201AF
:100D7400CE007108CF00CE35CF0D4F08073A031DC2
:100D8400C52EFE304E06031D082F6E26DF0180217E
:100D94000230FC000830FD00FD0BCE2EFC0BCE2EE5
:100DA400000008304201DF00BB2170084201D4007A
:100DB4007108D5005408CE005508CF000030F40067
:100DC4000430F5002808F0002908F100E324052682
:100DD40070084201D0007108D1007208D200730873
:100DE400D3005408F0005508F100052642015008CC
:100DF400F4005108F5005208F6005308F700A52541
:100E0400492570084201CE007108CF004E08F00059
:060E14004F08F100080088
:100E1A0040012230FC00F801F901FA01FB01FC0350
:100E2A000319422F0310FB0CFA0CF90CF80CF30C03
:100E3A00F20CF10CF00C031C142FFC030319342FD1
:100E4A007408F80775080318750FF9077608031868
:100E5A00760FFA0777080318770FFB07182F74081D
:100E6A00F80775080318750FF90776080318760F3F
:0C0E7A00FA0777080318770FFB07080041
:100E86007408003A031D5C2F7508003A031D5C2F99
:100E96007608003A031D5C2F7708003A031D5C2F85
:100EA600FF30F000FF30F100FF30F2007F30F3003A
:100EB600F42F4001FC01F71BFC0AFD01FB01FA01BE
:100EC600F901F80173087204710470040319EF2F15
:100ED60073087706A000A01BFD09F71F7D2FF409F4
:100EE600F509F609F709F40A0319F50A0319F60ACA
:100EF6000319F70AF31F8A2FF009F109F209F3091A
:100F0600F00A0319F10A0319F20A0319F30A73081E
:100F16007704A000A01BAB2FDF22FC1BC82FFD1FF0
:100F2600EF2FF009F109F209F309F00A0319F10AA2
:100F36000319F20A0319F30AF809F909FA09FB0970
:100F4600F80A0319F90A0319FA0A0319FB0AEF2F1B
:100F5600F71FC22FF31BBC2F7308FB007208FA00A1
:100F66007108F9007008F800F301F201F101F001CF
:100F7600922FF301F201F101F001F00A0034F309B6
:100F8600F209F109F009FC178F2FF80A0319F90A7B
:100F96000319FA0A0319FB0A74087802031D922F33
:100FA60075087902031D922F76087A02031D922F87
:100FB60077087B02031D922FFB01FA01F901F80164
:100FC600F00A0319F10A0319F20A0319F30AF31FC7
:100FD600922FA0012016FF34A0017C1CF32F0B24B6
:040FE600003E0800C1
:040FEA007424080063
:10100000400172087606A100F801F9017308770221
:10101000031C22287708FD007308F7007D08F30001
:101020007608FD007208F6007D08F2007508FD00E4
:101030007108F5007D08F1007408FD007008F400E7
:101040007D08F00077080319A3287208FA00F21748
:10105000F61777087302F70003195528083077024E
:10106000031C4B28F7007408F9007508F400760893
:10107000F500F60108307702031C4B28F7007408CE
:10108000F9007508F400F50108307702031C4B28BD
:101090007A08F200A3287708031955280310F60CE4
:1010A000F50CF40CF90CF70B4E28A11F6228F90976
:1010B000F409F509F609F90A0319F40A0319F50AFE
:1010C0000319F60A7908F80774080318740FF00773
:1010D00075080318750FF10776080318760FF207E5
:1010E000A11B7B28031C8B28F20CF10CF00CF80CD4
:1010F000F30F8B289D2803189128F809F009F109AE
:10110000F209F80A0319F00A0319F10A0319F20A9D
:101110008030FA0697280130FC008031172488318E
:10112000A5280230FC00803117248831A52804301E
:10113000FC00803194228831A5280830FC008031E1
:0E11400088228831A5280030FC00000008003D
:10114E007408003A031DC0287508003A031DC02814
:10115E007608003A031DC0287708003A031DC02800
:10116E00FF30F000FF30F1007F30F200FF30F3006F
:10117E0062294001770803194E2973080319532970
:10118E00720876068039FA00F217F617A101720876
:10119E00F8007108FC007008FD007408FD02750867
:1011AE00031C750FFC027608031C760FF802F8017B
:1011BE00FC01FD01031CEA280310F20CF10CF00CEB
:1011CE00F80C0130A1007708F302031CF4287E30DE
:1011DE002107F30703185829F9287E302107F30752
:1011EE00031C5D291830FA07FD0DFC0DF80DF00DEE
:1011FE00F10DF20DA10D7408F0027508031C750FA8
:10120E00F1027608031C760FF202760DA104211C62
:10121E0012297D141D297408F00775080318750F1F
:10122E00F10776080318760AF2077D10FA031F30CD
:10123E007A05031DFB287B1B7D1C44290310F00D32
:10124E00F10DF20DA10D7408F0027508031C750F57
:10125E00F1027608031C760FF202760D2104013995
:10126E00FD070318FC0A0319F80A031D4429F80C9C
:10127E00FC0CFD0CF30A03195829FA1FF813780811
:10128E00F2007C08F1007D08F00000306129013089
:10129E008031712488316129023080316921883191
:1012AE0061290430803188228831612908308031EB
:0812BE007021883100000800D6
:1012C60043304201DF008031802188310230FC004A
:1012D6000830FD00FD0B6D29FC0B6D290000083060
:1012E6004201DF008031BB21883170084201CE0007
:1012F6007108CF007108033A031D8329FF30700679
:10130600031DA0298330DF0080318021883102301F
:10131600FC000830FD00FD0B8E29FC0B8E29000019
:1013260008304201DF008031BB218831700842015C
:10133600CE007108CF00CE35CF0D4F08073A031DFA
:10134600A629FE304E06031DFE2980316E26883101
:10135600DF018031802188310230FC000830FD0039
:10136600FD0BB329FC0BB329000008304201DF0056
:101376008031BB21883170084201CE007108CF0050
:101386007108033A031DC929FF307006031DCC29D5
:101396002E140030F4000430F5002808F000290867
:1013A600F1008031E32488318031052688317008C8
:1013B6004201D0007108D1007208D2007308D30030
:1013C6004E08F0004F08F1008031052688314201B1
:1013D6005008F4005108F5005208F6005308F700CB
:1013E6008031A52588318031492588317008420130
:1013F600CE007108CF004E08F0004F08F10008003B
:1014060042014E08F1004F08F200F135F20D710865
:10141600CE007208CF008030023AF00080307206AB
:101426007002031D182A71084C3C031C1F2A7830D1
:10143600CE070130CF3DEF2A8030033AF0008030EE
:101446004F067002031D292A4E08723C031C302ADF
:101456009030CE070130CF3DEF2A8030053AF000BC
:1014660080304F067002031D3A2A4E08213C031CA9
:10147600412ADC30CE070130CF3DEF2A8030073AD3
:10148600F00080304F067002031D4B2A4E086C3C5C
:10149600031C522A0230CE070230CF3DEF2A80309D
:1014A600093AF00080304F067002031D5C2A4E0890
:1014B6006E3C031C632A3830CE070230CF3DEF2A3C
:1014C60080300A3AF00080304F067002031D6D2A04
:1014D6004E08483C031C742A8430CE070230CF3DA8
:1014E600EF2A80300B3AF00080304F067002031D61
:1014F6007E2A4E087E3C031C852ADC30CE0702304D
:10150600CF3DEF2A80300C3AF00080304F06700253
:10151600031D8F2A4E08A03C031C962A1030CE07C6
:101526000330CF3DEF2A80300C3AF00080304F0672
:101536007002031DA02A4E08FC3C031CA72AE030BB
:10154600CE070330CF3DEF2A80300E3AF0008030D0
:101556004F067002031DB12A4E08883C031CB82AA8
:10156600E830CE070330CF3DEF2A8030103AF00046
:1015760080304F067002031DC22A4E08F43C031C3D
:10158600C92A8830CE070430CF3DEF2A8030123A80
:10159600F00080304F067002031DD32A4E08C83C67
:1015A600031CDA2A5030CE070530CF3DEF2A8030B3
:1015B600143AF00080304F067002031DE42A4E08EC
:1015C600983C031CEB2A9030CE070530CF3DEF2A1E
:1015D6009830CE070530CF3D4E08F0004F08F10099
:0215E6000800FB
:1015E80080311422883141012C084201DF0080310A
:1015F800D821883140304201DF008031D82188313C
:1016080042014E08D8004F08D9008031A324883100
:101618004201D301520853020318A72B530850075D
:1016280084000030513D85000008003A031D1E2B40
:10163800D501272B5308500784000030513D850001
:1016480020300002D500D4015408043C031C9B2B15
:101658005508F0000530F40080318B2488314201B0
:101668005408F0070030F13D53307007840095307E
:10167800713D85000008D6004E08023A03196D2B0B
:10168800D619482BD713492BD717D6194D2B5713D3
:101698004E2B57175619522BD712532BD7165619AC
:1016A800572B5712582B5716D6185C2BD7115D2B72
:1016B800D715D618612B5711622B57155618662B5C
:1016C800D710672BD71456186B2B57106C2B571441
:1016D8008D2B5619712BD713722BD7175619762BBA
:1016E8005713772B5717D6187B2BD7127C2BD71667
:1016F800D618802B5712812B57165618852BD711C1
:10170800862BD71556188A2B57118B2B5715D710A0
:1017180057105708DF008031D82188314201570817
:10172800DF008031D82188314201D40A282BDF011B
:101738008031D82188314201DF018031D8218831B8
:101748004201D30A0E2B4E0AD8004F08D900803127
:10175800A32488314201D301520853020318512CA3
:101768005308500784000030513D85000008003AB6
:10177800031DC02BD501C92B530850078400003026
:10178800513D850020300002D500D4015408043CA6
:10179800031C452C5508F0000530F40080318B24DB
:1017A800883142015408F0070030F13D533070078A
:1017B80084009530713D85000008D6004E08023A35
:1017C80003190F2CD61BEA2BD713EB2BD717D61BD5
:1017D800EF2B5713F02B5717561BF42BD712F52B5B
:1017E800D716561BF92B5712FA2B5716D61AFE2B5B
:1017F800D711FF2BD715D61A032C5711042C5715C0
:10180800561A082CD710092CD714561A0D2C571015
:101818000E2C5714372C561B132CD713142CD717F0
:10182800561B182C5713192C5717D61A1D2CD712BC
:101838001E2CD716D61A222C5712232C5716561A96
:10184800272CD711282CD715561A2C2C57112D2C8C
:101858005715D619312CD710322CD714D619362C47
:101868005710372C57145708DF008031D82188319A
:1018780042015708DF008031D82188314201D40A5B
:10188800CA2BDF018031D82188314201DF01803144
:10189800D82188314201D30AB02B80317424883191
:0218A800080036
:1018AA004201D401D5014E08D6004F08D700803036
:1018BA004F06F00080307002031D652C00304E0286
:1018CA000318732C0130D4000030D5004E08003CB8
:1018DA00D6004F08031C013ED701D7025608D8008C
:1018EA005708D9005008DA005108DB008031222657
:1018FA0088310630D2000030D3005308003C031D63
:10190A00882C5208003C0318A32C52085007860062
:10191A005308513D870001305202F0000030533B1A
:10192A00F1007008500784007108513D85000008D5
:10193A0081000130D2020030D33B822C500886004D
:10194A005108870020308100540855040319C92C16
:10195A00D201D3015208500784005308513D850033
:10196A000008203A031DBD2CD20A0319D30AAF2C52
:10197A000130D2020030D33B520850078600530888
:0A198A00513D87002D308100080058
:10199400003042014606031DD12C00304506031DCC
:1019A400DE2CCE013C30CF00D130D0000030D1004D
:1019B4000430D200F422382D003042014602031DC7
:1019C400E52C0A3045020318F92C4508CE004608D8
:1019D400CF002F30D0000130D10055243030B70073
:1019E4002E30B8003408B9005730BA002E2D00301C
:1019F4004602031DFF2C643045020318132D4508CD
:101A0400CE004608CF002F30D0000130D10055243D
:101A14003308B7002E30B8003408B9005730BA0084
:101A24002E2D05304507F0000030463DF1007008CA
:101A3400C5007108C6007008CE007108CF002F30B1
:101A4400D0000130D10055242030B7003208B8004E
:101A54003308B9005730BA00CE013C30CF003730DC
:0E1A6400D0000130D1000430D200F42208007E
:101A7200003042014606031D402D00304506031D7D
:101A82004E2D0230CE003C30CF00DF30D00000308F
:101A9200D1000430D200F4226B2D42014508CE0061
:101AA2004608CF002F30D0000130D1005524320833
:101AB200B7002E30B8003308B9003408BA0002303B
:101AC200CE003C30CF003730D0000130D10004309E
:061AD200D200F42208001E
:101AD80063217008C5007108C6000030C61BFF30BE
:101AE800C700C80080318A2688317008C90071088B
:101AF800CA000030CA1BFF30CB00CC004508CE001E
:101B08004608CF0003228031052688310030F400D2
:101B18000030F5002030F6008130F7008031A5252F
:101B280088310030F4000030F5007A30F600883053
:101B3800F700A720F430F400FD30F5003430F6004B
:101B48007F30F700A7207008F4007108F5007208CC
:101B5800F6007308F7008031A52588310030F400BD
:101B68000030F5002030F6008130F700A720003063
:101B7800F4000030F5000030F6007E30F700002059
:101B880080314925883170084101EE007108EF0065
:101B9800803042014C06F000803048067002031D78
:101BA800DF2D47084B02031DDF2D46084A02031D9F
:101BB800DF2D45084902031CE82DE730C500033036
:101BC800C600C701C801322E49084507F0004A0877
:101BD800463DF1004B08473DF2004C08483DF300F4
:101BE8006430F400F501F601F70180310D278831E2
:101BF80042014508F4004608F5004708F600480881
:101C0800F7004908F4024A08F53B4B08F63B4C0834
:101C1800F73B80314327883170084201C5007108BD
:101C2800C6007208C7007308C8008030F40080300E
:101C380073067402031D2A2E7208003C031D2A2E07
:101C48007108033C031D2A2E7008E73C0318322E46
:101C5800E730C5000330C600C701C8014508AA001F
:061C68004608AB00080075
:101C6E0080311422883141012C084201DF0080317D
:101C7E00D821883140304201DF008031D8218831AF
:101C8E000A30F4000030F50042014508F000460825
:101C9E00F1008031E324883170084201C5007108DB
:101CAE00C60080307106F2008030013A7202031DC8
:101CBE00622E2C3070020318692E2C30C5000130B4
:101CCE00C600792E8030013AF00080304606700250
:101CDE00031D732E4508A43C0318792EA430C500AD
:101CEE000130C6002C304502F3000130463BF400B3
:101CFE007308C5007408C6000530F2007308F000C2
:101D0E007408F10072080319902EF035F10DFF3EA4
:101D1E008A2E7008C5007108C6007830F4000030B5
:101D2E00F5008031E324883170084201C800193073
:101D3E007002031CAC2E18304802C9000830CA00CD
:101D4E000830CB000830CC00CA2E11304802031CDC
:101D5E00B92EC90110304802CA000830CB00083035
:101D6E00CC00CA2E09304802031CC52EC901CA0177
:101D7E0008304802CB000830CC00CA2EC901CA0177
:101D8E00CB014808CC008030CD0001304902F00074
:101D9E00F1010030F13B7008F1004D08F0007108C0
:101DAE000319DC2EF036FF3ED72E7008FF3CCD0017
:101DBE00CD0A0330CD04D8017730D9008031A32469
:101DCE00883142014D08DF008031D821883142012F
:101DDE004D08DF008031D821883142014D08DF00E7
:101DEE008031D82188311F304201CD04D8017530A1
:101DFE00D9008031A324883142014D08DF008031A3
:101E0E00D821883142014D08DF008031D821883138
:101E1E004201D8017A30D9008031A32488314201A1
:101E2E004D08DF008031D821883142014D08DF0096
:101E3E008031D821883180304201CD0001304A02F4
:101E4E00F000F1010030F13B7008F1004D08F00098
:101E5E0071080319352FF036FF3E302F7008FF3C06
:101E6E00CD00CD0A0130D8007530D9008031A324C1
:101E7E0088314201C7014708063C031C4E2F4D080E
:101E8E00DF008031D82188314201C70A422F8030CD
:101E9E00CD0001304B02F000F1010030F13B700833
:101EAE00F1004D08F00071080319602FF036FF3E67
:101EBE005B2F7008FF3CCD00CD0A0230D800753084
:101ECE00D9008031A32488314201C7014708063C5E
:101EDE00031C792F4D08DF008031D8218831420153
:101EEE00C70A6D2F8030CD0001304C02F000F10199
:101EFE000030F13B7008F1004D08F0007108031935
:101F0E008B2FF036FF3E862F7008FF3CCD00CD0A9A
:101F1E00C030CD040330D8007530D9008031A324F1
:101F2E0088314201C7014708063C031CA62F4D0805
:101F3E00DF008031D82188314201C70A9A2F8031C3
:061F4E0074248831080034
:101F540080311422883141012C084201DF00803194
:101F6400D821883180304201DF008031D821883186
:101F740042014508DF008031D82188318031742442
:041F84008831080098
:101F880080311422883141012C084201DF00803160
:101F9800D821883140304201DF008031D821883192
:101FA8004201C6014608073C031CF02F4608D8002A
:101FB800D9018031A32488314201C5014201803012
:101FC80045020318ED2FC50ADF018031D821883179
:101FD800E22F4201C60AD62F8031742488310800C6
:101FE80012001E00F003031DF42FF103031DF42F4C
:021FF8000800DF
:1020000040304201C7001F30C800C901CA0140303A
:10201000F0001F30F1000030F2000030F3004508FE
:10202000F4004608F500F601F70180310D279031E4
:1020300070084201C7007108C8007208C90073081F
:10204000CA0000307302031D2F2800307202031DE6
:102050002F2802307102031D2F28B230700203189E
:1020600032286128B230C7020230C83B0030C93B79
:10207000CA3B0530F000700803194428CA36C90C61
:10208000C80CC70CFF3E3C284708F0004808F10088
:102090004908F2004A08F3000130C7020030C83B8B
:1020A000C93BCA3B700871047204730403196128A8
:1020B0000000000000000000000000000000000020
:0420C00044280800A8
:1020C40041014C08013A031D752802304201CE003B
:1020D400CF01CD30D0000030D1000330D2008831A0
:1020E400F4229031822802304201CE00CF01D63052
:1020F400D0000030D1000330D2008831F422903176
:022104000800D1
:102106000330FB000830FC007730FD00FD0B89280A
:10211600FC0B8928FB0B892858304201C000C101FD
:10212600C201C301C401BF0140083F020318C4280D
:1021360088316C25903180304206F00080304101B4
:102146006F067002031DAA286E0842014102031899
:10215600B82841016E084201C10041016F084201E1
:10216600C2002A08C3002B08C4000B30FC006230F2
:10217600FD004201FD0BBC28FC0BBC280000BF0A79
:102186009728420841013B06031DCC283A08420124
:1021960041060319DE28420141084101BA00420105
:1021A60042084101BB0042014108C5004208C60081
:1021B6008831CA2490318030F000803042014406D4
:1021C6007002031DE8284308633C031804294408E9
:1021D60041013906031DF228380842014306031956
:1021E6000429420143084101B80042014408410163
:1021F600B90042014308C5004408C60088313925A4
:04220600903108000B
:10220A004201C001C10141014B08013A031D3929AC
:10221A0042013F1C14290A30C0070030C13DBF1CCF
:10222A001A291630C0070030C13D3F1D20292F3022
:10223A00C0070030C13DBF1D26296430C0070030E9
:10224A00C13D3F1E2C29DC30C0070030C13DBF1EF6
:10225A003229D630C0070130C13D3F1F3829E83046
:10226A00C0070330C13D692941014B08003A031DEB
:10227A00692942013F1C45290A30C0070030C13D87
:10228A00BF1C4B291630C0070030C13D3F1D5129E4
:10229A002D30C0070030C13DBF1D57296430C0072B
:1022AA000030C13D3F1E5D29DC30C0070030C13D12
:1022BA00BF1E6329C230C0070130C13D3F1F6929D3
:1022CA00E830C0070330C13D42014008CE00410852
:1022DA00CF002F30D0000130D10088315524903101
:1022EA0041014B08013A031DEC29803042014106A5
:1022FA00F00080307002031D84290A30400203185E
:10230A0093290230CE00CF01DA30D0000030D1005C
:10231A000430D2008831F4229031EB298030420116
:10232A004106F00080307002031D9D29643040028E
:10233A000318B4293308B7003408B8002030B900AC
:10234A002030BA000230CE00CF013730D000013041
:10235A00D1000430D2008831F4229031EB29803048
:10236A0042014106F0008030033A7002031DBF2982
:10237A00E83040020318D6293208B7003308B800FB
:10238A003408B9002030BA000230CE00CF0137300D
:10239A00D0000130D1000430D2008831F4229031CB
:1023AA00EB2942013108B7003208B8003308B900F6
:1023BA003408BA000230CE00CF013730D0000130E5
:1023CA00D1000430D2008831F4229031622A4101CE
:1023DA004B08003A031D622A803042014106F00090
:1023EA0080307002031DFB290A30400203180A2AB2
:1023FA000230CE00CF01E430D0000030D1000430EA
:10240A00D2008831F4229031622A8030420141069A
:10241A00F00080307002031D142A64304002031851
:10242A002B2A3030B7002E30B8003308B9003408F0
:10243A00BA000230CE00CF013730D0000130D100CF
:10244A000430D2008831F4229031622A803042016D
:10245A004106F0008030033A7002031D362AE83044
:10246A00400203184D2A3208B7002E30B80033084C
:10247A00B9003408BA000230CE00CF013730D0009C
:10248A000130D1000430D2008831F4229031622A1E
:10249A0042013108B7003208B8002E30B9003308BB
:1024AA00BA000230CE00CF013730D0000130D1005F
:0C24BA000430D2008831F4229031080078
:1024C60080311422903141012C084201DF00803115
:1024D600D821903140304201DF008031D82190313F
:1024E6004201C0014008033C031CA22A4008D80050
:1024F6007330D9008031A32490314201BF013F08D7
:102506000A3C031CA02A4008F0000B30F40080317E
:102516008B24903142013F08F0070030F13DBD3079
:10252600700784009730713D85000008DF00803118
:10253600D82190314201BF0A822AC00A752A803109
:062546007424903108002E
:10254C0042013F18AC2A40019917AE2A4001991359
:10255C004201BF18B42A40011917B62A40011913B9
:10256C0042013F19BC2A40019916BE2A400199121A
:10257C004201BF19C42A40011916C62A400119127A
:10258C0042013F1ACC2A40019817CE2A40019813D9
:10259C004201BF1AD42A40011817D62A4001181339
:1025AC0042013F1BDC2A40019816DE2A400198129A
:1025BC0042014018E42A40019616E62A4001961280
:1025CC004201C018EC2A40019A14EE2A40019A10DC
:1025DC0042014019F42A40019617F62A400196133D
:1025EC004201C019FC2A40011617FE2A400116139D
:1025FC004201401A042B40011814062B40011810FC
:10260C004201C01A0C2B400198140E2B400198105B
:10261C004201401B142B40011815162B40011811B8
:10262C00420141181C2B40011A101E2B40011A1498
:10263C00991542012C08C5002D08C6000020400148
:10264C0099111A30FD00FD0B292B000018124201C4
:10265C002C08C5002D08C6000020400118164201A8
:10266C002C08C5002D08C600002040019913191331
:10267C009912191298131813981296129A109613FD
:0C268C0016131810981018111A100800EE
:102698007E01B801C3014314C3144315CE01E401FC
:1026A800D90153019013941340018C018D018E01BF
:1026B8008F0190019601970110309800063099001B
:1026C8009A019101273092009301940195017E01AE
:1026D8003A15BA15DB145B1540019F121F179F139B
:1026E8001E16C0309C00E0309D004E018C12400147
:1026F8009E174E0196161E304F019600FE30970029
:10270800473098007F30990077309A00DF309B007F
:102718008B170530FB000F30FC00F130FD00FD0B7E
:0C272800932BFC0B932BFB0B932B080056
:10273400BB304201A4000130A5005F30A600013087
:10274400A70041019301940195019601EC309A058B
:0827540013161315931708007A
:10275C0080316E269031290841014A06031DB92BA0
:10276C004908420128060319CB2B420128084101D4
:10277C00C900420129084101CA0042012808C500CC
:10278C002908C60088313726903142012808683C58
:10279C00F0002908031C013E103CF1006430F400E9
:1027AC000030F5008031E3249031700841013C0782
:1027BC004201AC00710841013D3D4201AD00803049
:1027CC000E3AF000803029067002031DEF2B28080A
:1027DC00743C0318032C4001971117160230FB00B0
:1027EC003830FC00AD30FD00FD0BFA2BFC0BFA2B46
:1027FC00FB0BFA2B97151716332C80300E3AF00082
:10280C008030420129067002031D0E2C2808063C5C
:10281C000318222C4001971117120230FB0038309C
:10282C00FC00AD30FD00FD0B192CFC0B192CFB0B27
:10283C00192C97151716332C4001171297150230C7
:10284C00FB003830FC00AD30FD00FD0B2B2CFC0BDD
:10285C002B2CFB0B2B2C17169715803042012906BD
:10286C00F00080300D3A7002031D3E2C48302802D7
:10287C0003185E2C8831C427903101304201CE0000
:10288C00CF01BE30D0000030D1000A30D2008831E8
:10289C00F42290315230FB002B30FC000030FD0054
:1028AC00FD0B562CFC0B562CFB0B562C0000161259
:0228BC00080012
:1028BE004201BF010A303F020318882C80311422D6
:1028CE00903141012C084201DF008031D821903136
:1028DE007008003A031D742C882C803174249031BA
:1028EE000D30FB002D30FC00D730FD00FD0B7D2C94
:1028FE00FC0B7D2CFB0B7D2C000000004201BF0A5F
:10290E00612C4201DF018031D8219031AE3042017D
:10291E00DF008031D8219031D5304201DF00803187
:10292E00D821903180304201DF008031D8219031A2
:10293E00A8304201DF008031D82190313F30420172
:10294E00DF008031D8219031D3304201DF00803159
:10295E00D821903141012E084201DF008031D8216B
:10296E00903140304201DF008031D82190318D30DE
:10297E004201DF008031D821903114304201DF0056
:10298E008031D821903181304201DF008031D82151
:10299E009031FF304201DF008031D8219031D930A3
:1029AE004201DF008031D8219031F1304201DF0049
:1029BE008031D821903120304201DF008031D82182
:1029CE00903102304201DF008031D8219031213028
:1029DE004201DF008031D82190314201DF01803188
:1029EE00D82190317F304201DF008031D8219031E3
:1029FE002E304201DF008031D821903141012F0865
:102A0E000319162DA0304201DF008031D8219031FC
:102A1E00C0304201DF008031D8219031222DA1300B
:102A2E004201DF008031D8219031C8304201DF00F1
:102A3E008031D8219031DA304201DF008031D82147
:102A4E00903102304201DF008031D8219031DB30ED
:102A5E004201DF008031D821903140304201DF0049
:102A6E008031D8219031A4304201DF008031D8214D
:102A7E009031A6304201DF008031D8219031803173
:102A8E00742490318831C4279031AF304201C50093
:082A9E008831AA2790310800DD
:10300000F42290314C239831400117161915991468
:1030100041013C084201AC0041013D084201AD00C4
:10302000400116160930FB001E30FC00E430FD00A4
:10303000FD0B1828FC0B1828FB0B1828000080310A
:10304000F52798316830FC00E430FD00FD0B2628A0
:10305000FC0B2628000090315F24983190319A2390
:10306000983142012E104101E9116912E9126910EB
:10307000E91069116913E9132008F0002108F10033
:103080002208F2002308F300E830F4000330F500D2
:10309000F601F70180310D279831700841012807AA
:1030A0004201A00071084101293D4201A1007208BE
:1030B00041012A3D4201A200730841012B3D42011A
:1030C000A30041012408F0002508F1002608F200C1
:1030D0002708F300E830F4000330F500F601F701AB
:1030E00080310D279831700841012807EA007108E6
:1030F000293DEB0072082A3DEC0073082B3DED00E2
:10310000400143084201BF00400144084201C000A1
:1031100041014C084201C1009031A6229831420180
:10312000CE01CF014530D0000030D1000A30D200AE
:103130008831F422983102304201CE00CF012F3085
:10314000D0000030D1000A30D2008831F42298310A
:103150007A30FB00C130FC008130FD00FD0BAE2851
:10316000FC0BAE28FB0BAE28000000008831C42702
:1031700098319031632298314201CE01CF013A302B
:10318000D0000030D1000430D2008831F4229831D0
:1031900043084201BF009031052198314201C50129
:1031A000C6018831392598314001420841012B027E
:1031B000031DEA284001410841012A02031DEA28B3
:1031C0004001400841012902031DEA2840013F084F
:1031D00041012802031CF728B8304001BF070B301B
:1031E000C03D0030C13DC23D9031AE239831400119
:1031F000530841012B02031D0D29400152084101D2
:103200002A02031D0D294001510841012902031D15
:103210000D294001500841012802031C1A292C30B5
:103220004001D0070130D13D0030D23DD33D903137
:10323000832098314101E91D9229E9114B08003A98
:10324000031D4829E91B2C2975304001430203184E
:103250002B290A30C3073329400143080A3C0318CD
:1032600033290A30C30243084201BF004001440829
:103270004201C00041014C084201C1009031A62228
:10328000983143084201BF009031052198319229BD
:1032900041014B08013A031D7329E91B5729753079
:1032A00040014402031856290A30C4075E29400130
:1032B00044080A3C03185E290A30C402430842014C
:1032C000BF00400144084201C00041014C084201D6
:1032D000C1009031A622983144084201BF009031CC
:1032E00005219831922941014B08023A031D922988
:1032F0004C08003A031D7F290130CC008029CC0105
:10330000400143084201BF00400144084201C0009F
:1033100041014C084201C1009031A6229831903100
:10332000622098314101691CF9296910E9134B08A1
:10333000003A031DB8297F30400143020318A22937
:10334000C30AA329C30143084201BF004001440846
:103350004201C00041014C084201C1009031A62247
:10336000983143084201BF00903105219831F92975
:1033700041014B08013A031DDA297F304001440224
:103380000318C429C40AC529C40143084201BF0067
:10339000400144084201C00041014C084201C10003
:1033A0009031A622983144084201BF009031052196
:1033B0009831F92941014B08023A031DF9294C08BB
:1033C000003A031DE6290130CC00E729CC01400179
:1033D00043084201BF00400144084201C0004101CE
:1033E0004C084201C1009031A622983190316220F0
:1033F00098314101691D622A6911E9174B08003AA9
:10340000031D202A40014308003A0319092AC30377
:103410000B2A7F30C30043084201BF00400144082B
:103420004201C00041014C084201C1009031A62276
:10343000983143084201BF00903105219831622A3A
:1034400041014B08013A031D432A40014408003A58
:1034500003192C2AC4032E2A7F30C40043084201DA
:10346000BF00400144084201C00041014C08420134
:10347000C1009031A622983144084201BF0090312A
:1034800005219831622A41014B08023A031D622A44
:103490004C08003A031D4F2A0130CC00502ACC01C1
:1034A000400143084201BF00400144084201C000FE
:1034B00041014C084201C1009031A622983190315F
:1034C000622098314101691ECA2A691202304B02FA
:1034D00003186C2ACB0A6D2ACB014B08003A031D56
:1034E000912A4201CE01CF016230D0000030D100DC
:1034F0000430D2008831F422983102304201CE00EB
:10350000CF016730D0000030D1000330D2008831C5
:10351000F422983143084201BF00903105219831CF
:10352000CA2A41014B08013A031DB62A4201CE01C5
:10353000CF016B30D0000030D1000430D200883190
:10354000F422983102304201CE00CF015430D00035
:103550000030D1000330D2008831F4229831440881
:103560004201BF00903105219831CA2A41014B0820
:10357000023A031DCA2A4201CE01CF015830D000C1
:103580000030D1000430D2008831F42298319031DB
:10359000622098314101E91EEE2AE9124001C3017F
:1035A000C4014201BF01C00141014C084201C100F8
:1035B0009031A62298314101CB014201CE01CF01C9
:1035C0005D30D0000030D1000430D2008831F422C8
:1035D00098314201BF01903105219831D428EF2A5A
:1035E8007C308400973085004130F0000130F100D4
:1035F8002F308600003087008831F4279831333027
:103608008400973085004930F0000130F100A03087
:0E3618008600003087008831F42798310800C2
:102AA60000340034003400340034003400345F3421
:102AB600003400340034073400340734003414344E
:102AC6007F3414347F34143424342A347F342A3443
:102AD60012342334133408346434623436344934BB
:102AE6005534223450340034053403340034003471
:102AF60000341C342234413400340034413422344E
:102B06001C34003408342A341C342A34083408347B
:102B160008343E3408340834003450343034003439
:102B260000340834083408340834083400343034A7
:102B36003034003400342034103408340434023481
:102B46003E345134493445343E34003442347F34C3
:102B560040340034423461345134493446342134EB
:102B6600413445344B3431341834143412347F3400
:102B76001034273445344534453439343C344A34EA
:102B8600493449343034013471340934053403345A
:102B960036344934493449343634063449344934B0
:102BA60029341E34003436343634003400340034CC
:102BB60056343634003400340034083414342234A5
:102BC6004134143414341434143414344134223457
:102BD60014340834003402340134513409340634D0
:102BE60032344934793441343E347E34113411342C
:102BF60011347E347F3449344934493436343E34D2
:102C060041344134413422347F3441344134223416
:102C16001C347F3449344934493441347F340934CF
:102C26000934013401343E344134413451343234B0
:102C36007F340834083408347F34003441347F3418
:102C4600413400342034403441343F3401347F343D
:102C560008341434223441347F3440344034403410
:102C660040347F340234043402347F347F340434F5
:102C7600083410347F343E344134413441343E34D8
:102C86007F3409340934093406343E34413451342E
:102C960021345E347F3409341934293446344634B9
:102CA6004934493449343134013401347F340134F0
:102CB60001343F344034403440343F341F342034F0
:102CC600403420341F347F342034183420347F3489
:102CD60063341434083414346334033404347834D9
:102CE60004340334613451344934453443340034B4
:102CF60000347F344134413402340434083410340F
:102D06002034413441347F340034003404340234F6
:102D160001340234043440344034403440344034C6
:102D2600003401340234043400342034543454342E
:102D3600543478347F344834443444343834383462
:102D460044344434443420343834443444344834E9
:102D56007F343834543454345434183408347E347C
:102D660009340134023408341434543454343C34B1
:102D76007F340834043404347834003444347D34E5
:102D8600403400342034403444343D34003400347C
:102D96007F34103428344434003441347F34403492
:102DA60000347C3404341834043478347C340834E5
:102DB60004340434783438344434443444343834B1
:102DC6007C3414341434143408340834143414346D
:102DD60018347C347C3408340434043408344834DD
:102DE600543454345434203404343F34443440345A
:102DF60020343C344034403420347C341C34203479
:102E0600403420341C343C344034303440343C3478
:102E1600443428341034283444340C345034503478
:102E260050343C344434643454344C3444340034E4
:102E36000834363441340034003400347F340034EE
:102E4600003400344134363408340034083408344D
:102E56002A341C34083408341C342A340834083420
:082E66002C3401340034003467
:082E6E0008340734003400347D
:082E7600003400340034003484
:042E7E007834003470
:022E82004034DA
:022E8400013417
:022E8600003416
:022E8800003414
:022E8A00003412
:022E8C0002340E
:082E8E0000340034003400346C
:042E960000340034D0
:042E9A000F34273496
:042E9E0008340034C0
:102EA20020344C344F345734203442344134543477
:062EB2005434203400340A
:042EB80000340034AE
:022EBC000034E0
:022EBE000034DE
:082EC00049344E342034003483
:0A2EC80030342E3430345734003417
:082ED2004F3455345434003430
:0A2EDA00303420342034203400345A
:0A2EE40030342E3430343034003422
:0A2EEE0030342E3430343034003418
:102EF800203420342034543445345334543420346A
:062F0800203420340034E7
:0A2F0E004C3420347534483400348C
:082F18000034003400340034E1
:022F200000347B
:022F2200003479
:102F2400203420344D3441344E34553441344C34FF
:062F3400203420340034BB
:082F3A000034003400340034BF
:082F4200203420342034003457
:0A2F4A00533457342034203400348F
:0A2F54004C34203475344834003446
:0A2F5E004C3420347534483400343C
:082F6800203420342034003431
:0A2F7000433420347034463400343A
:102F7A00F834F8341F341F340334033403341F3451
:102F8A001F34F834F834FF34FF340034003400348A
:102F9A000034003400340034FF34FF34FF34FF348B
:102FAA000034003400340034003400340034FF3478
:102FBA00FF34FF34FF34C034C034C034C034C034AA
:082FCA00C034C034FF34FF34B1
:020000040001F9
:0A000E000429213E1F3F03300300C8
:00000001FF
