:0400000098310E2DF8
:1000080070084001A4007108A3007208A2008031A2
:100018004E018C1EFB288C1201304201CC070030A7
:10002800CD3DCE3DCF3D0030F00040013406031DEC
:10003800272870083306031D272870083206031D79
:1000480027283108003A03192F280130B10200305F
:10005800B23BB33BB43B0030F0003806031D3E28EA
:1000680070083706031D3E2870083606031D3E2813
:100078003508003A031946280130B5020030B63B6E
:10008800B73BB83BC0309C00E0309D0041016E0892
:1000980042014F02031D602841016D0842014E02D2
:1000A800031D602841016C0842014D02031D6028B0
:1000B80041016B0842014C02031CFB280A30410134
:1000C800EB070030EC3DED3DEE3D40018D1A6E280A
:1000D80072146F2872108F18732803147428031071
:1000E80072187A2803187A2872107B287214721CE6
:1000F8008A284001E030B1009330B2000430B300E8
:100108000030B400B501B601B701B80140018D1A3D
:100118008F28031490280310031CAE28FA303E02DF
:1001280003189728BE0A3E08193A031D9D28420164
:10013800EC1540013E08FA3A0130031D0030F10089
:10014800F001161AF00A7108F0050319AD284201EA
:100158006C16C52840013E08023C013003180030E7
:10016800F10019303E02013003180030F000710828
:10017800F0050319C42842016C154001BE01C528C9
:10018800BE0140018F18CA280314CB280310031C92
:10019800E428193041016A020318D328EA0A6A08D8
:1001A800143A0130031D0030F100F00140010F192D
:1001B800F00A7108F0050319E3284201EC14FB2842
:1001C80041016A08013C013003180030F1000A308F
:1001D8006A02013003180030F0007108F0050319B5
:1001E800FA2842016C144101EA01FB28EA014001A6
:0E01F8002408F0002308F1002208F20009009C
:100206004001F801F9011030FC00710DF80DF90DEF
:100216007408F8027508031C750FF90203181A29E9
:100226007408F80775080318750FF9070310F00D21
:08023600F10DFC0B0829080082
:10023E00F1010830710203183C294401B41B2A292C
:10024E00400116112C29400116154230FD00FD0B00
:10025E002E29000096154230FD00FD0B34290000BA
:10026E0096114401B435F10A202940011615423089
:10027E00FD00FD0B40290000961500300C190130D1
:10028E00F2004230FD00FD0B4A290000961142306B
:0E029E00FD00FD0B502900007208F000080062
:1002AC00400196154230FD00FD0B5A290000161531
:1002BC004230FD00FD0B6029000016114230FD009C
:1002CC00FD0B6629000096114230FD00FD0B6C29D8
:0402DC000000080016
:1002E0004401B101053031020318802931082F077C
:1002F00086000030303D870020308100B10A72292D
:1003000031082F0786000030303D87008101B1039E
:1003100031082F07B2000030303DB3000A30F4003E
:10032000F5012D08F0002E08F10003217808F000F7
:100330007908F1003030F0074401320886003308B4
:100340008700700881000A30F400F5012D08F000E4
:100350002E08F100032170084401AD007108AE00C1
:1003600000307106031DB62900307006031DB9293F
:08037000BB29B1038829080034
:10037800400116114230FD00FD0BC0290000961502
:100388004230FD00FD0BC629000016154230FD0065
:08039800FD0BCC290000080058
:0C03A0003A30FD00FD0BD22900000800DF
:1003AC0040017008F100F0010830FC007108F40CF9
:1003BC000318E429FC0BDD29F10100340310E929B1
:1003CC00F40C0318F107F10CF00CFC0BE6290800F7
:1003DC0040012230FC00F801F901FA01FB01FC0399
:1003EC000319232A0310FB0CFA0CF90CF80CF30C70
:1003FC00F20CF10CF00C031CF529FC030319152A63
:10040C007408F80775080318750FF90776080318B0
:10041C00760FFA0777080318770FFB07F92974088A
:10042C00F80775080318750FF90776080318760F87
:0C043C00FA0777080318770FFB07080089
:100448004001270844012E07B10056212F08440116
:10045800B4001F214401B4011F2144012D08B03EFE
:10046800B4001F21440131080F3C031C3F2A310806
:10047800AF00B001502A3108F200F236F236F236F7
:10048800F2367208B0007208F000F035F035F03539
:10049800F03570083102AF002F08B4001F21440165
:1004A8003008103EB4001F2156212F084401B40023
:0C04B8001F2140304401B4001F21080047
:1004C4007B15FB1F6C2A0130F300F201F101F001EE
:0804D400FA0DF20CFF300800E4
:0804DC00FA1FF21300300800C2
:1004E400FB14FB1F7C2AFF30F300F200F100F00044
:0804F400FA0DF20CFF300800C4
:1004FC0044012308AD002408AE0024224401A801C5
:10050C00270828020318B32A28082507840000307E
:10051C00263D850020300002AA00A90105302902E1
:10052C000318AE2A2A08F0000530F400D621440145
:10053C002908F0070030F13DC330700784009D306E
:10054C00713D85000008B4001F214401A90A942ABA
:0E055C00B4011F214401A80A862ABC21080010
:0E056A00F201F101F001F801F3010030080088
:1005780040304401A5001F30A600A701A801403063
:10058800F0001F30F1000030F2000030F3002308C3
:10059800F4002408F500F601F701EE217008440183
:1005A800A5007108A6007208A7007308A80000300B
:1005B8007302031DE92A00307202031DE92A023082
:1005C8007102031DE92AB23070020318EC2A1B2BB2
:1005D800B230A5020230A63B0030A73BA83B05304D
:1005E800F00070080319FE2AA836A70CA60CA50C63
:1005F800FF3EF62A2508F0002608F1002708F20039
:100608002808F3000130A5020030A63BA73BA83B11
:10061800700871047204730403191B2B0000000096
:10062800000000000000000000000000FE2A080092
:1006380044012308F2002408F3007208F00073084C
:10064800F100F20A0319F30A7008840071088500A2
:1006580000080319302B212B23087202F00024080C
:0E066800733BF1000130F0020030F13B08005E
:100676004401A901AA012308AB002408AC0080307C
:100686002406F00080307002031D4B2B003023023D
:100696000318592B0130A9000030AA002308003C9A
:1006A600AB002408031C013EAC01AC022B08AD00D4
:1006B6002C08AE002508AF002608B00070210630D1
:1006C600A7000030A8002808003C031D6C2B270853
:1006D600003C0318872B2708250786002808263D97
:1006E600870001302702F0000030283BF100700837
:1006F600250784007108263D850000088100013029
:10070600A7020030A83B662B25088600260887002E
:100716002030810029082A040319AD2BA701A8015E
:100726002708250784002808263D85000008203A6A
:10073600031DA12BA70A0319A80A932B0130A702B0
:100746000030A83B2708250786002808263D870095
:060756002D3081000800B7
:10075C0056212F084401B4001F2140304401B4003D
:10076C001F214401A4012408073C031CCF2B24089F
:10077C00AD00AE0124224401A301440180302302C8
:10078C000318CC2BA30AB4011F21C32B4401A40AC8
:06079C00B92BBC2108008E
:1007A2003F304401230541019E00D0211314000073
:1007B200131CDC2BD92B0C08F0000D08F1000800EB
:1007C20056212F084401B4001F2140304401B400D7
:1007D2001F2144012308AD002408AE002422440155
:1007E200A801270828020318812C2808250784005D
:1007F2000030263D85000008003A031D022CAA01A4
:100802000B2C2808250784000030263D8500203067
:100812000002AA00A9012908043C031C792C2A0819
:10082200F0000530F400D62144012908F007003019
:10083200F13DC330700784009D30713D8500000892
:10084200AB002308023A03194F2CAB192A2CAC1324
:100852002B2CAC17AB192F2C2C13302C2C172B193B
:10086200342CAC12352CAC162B19392C2C123A2CF8
:100872002C16AB183E2CAC113F2CAC15AB18432CEC
:100882002C11442C2C152B18482CAC10492CAC14D0
:100892002B184D2C2C104E2C2C146F2C2B19532C46
:1008A200AC13542CAC172B19582C2C13592C2C1775
:1008B200AB185D2CAC125E2CAC16AB18622C2C1251
:1008C200632C2C162B18672CAC11682CAC152B182A
:1008D2006C2C2C116D2C2C15AC102C102C08B40087
:1008E2001F2144012C08B4001F214401A90A0C2C29
:1008F200B4011F214401B4011F214401A80AF22BB3
:10090200230AAD002408AE0024224401A8012708CE
:10091200280203181F2D2808250784000030263DD1
:1009220085000008003A031D982CAA01A12C280872
:10093200250784000030263D850020300002AA00F1
:10094200A9012908043C031C172D2A08F0000530D0
:10095200F400D62144012908F0070030F13DC330EC
:10096200700784009D30713D85000008AB002308AC
:10097200023A0319E52CAB1BC02CAC13C12CAC17EB
:10098200AB1BC52C2C13C62C2C172B1BCA2CAC1240
:10099200CB2CAC162B1BCF2C2C12D02C2C16AB1A1A
:1009A200D42CAC11D52CAC15AB1AD92C2C11DA2CB9
:1009B2002C152B1ADE2CAC10DF2CAC142B1AE32CCA
:1009C2002C10E42C2C140D2D2B1BE92CAC13EA2C2F
:1009D200AC172B1BEE2C2C13EF2C2C17AB1AF32C71
:1009E200AC12F42CAC16AB1AF82C2C12F92C2C16D7
:1009F2002B1AFD2CAC11FE2CAC152B1A022D2C112E
:100A0200032D2C15AB19072DAC10082DAC14AB1906
:100A12000C2D2C100D2D2C142C08B4001F21440178
:100A22002C08B4001F214401A90AA22CB4011F21E1
:100A32004401B4011F214401A80A882CBC210800EA
:100A42004001FB01FA01F9018030F800F10CF00CD1
:100A5200031C342D7408F90775080318750FFA077B
:100A62000318FB0A0310F01F3C2D7408FA077508DF
:100A72000318750FFB07FB0CFA0CF90CF80C031C9E
:100A8200272D7B08F3007A08F2007908F100780834
:040A9200F000080068
:100A960056212F084401B4001F2180304401B400C0
:0E0AA6001F2144012308B4001F21BC210800B9
:100AB400D1304301B4000330B5002330B600023016
:100AC400B70041019301940195019601EC309A0518
:100AD400133044012305F000700841019A04C0302A
:100AE40044012305F00003198D2DC0302305F200C5
:100AF4000630F1007208F00071080319842DF036F5
:100B0400FF3E7F2D700852018C008C170C1B8C2D1E
:100B14000000882D902D5201FC308C0541011316E4
:060B2400131593170800F1
:100B2A00440120189B2D400199179D2D40019913CE
:100B3A004401A018A32D40011917A52D400119132E
:100B4A0044012019AB2D40019916AD2D400199128F
:100B5A004401A019B32D40011916B52D40011912EF
:100B6A004401201ABB2D40019817BD2D400198134E
:100B7A004401A01AC32D40011817C52D40011813AE
:100B8A004401201BCB2D40019816CD2D400198120F
:100B9A0044012118D32D40019616D52D40019612F5
:100BAA004401A118DB2D40019A14DD2D40019A1051
:100BBA0044012119E32D40019617E52D40019613B2
:100BCA004401A119EB2D40011617ED2D4001161312
:100BDA004401211AF32D40011814F52D4001181073
:100BEA004401A11AFB2D40019814FD2D40019810D3
:100BFA004401211B032E40011815052E400118112E
:100C0A00440122180B2E40011A100D2E40011A140D
:100C1A00991542016D084401A30042016E0844017E
:100C2A00A400BC22400199111A30FD00FD0B1B2EB5
:100C3A000000181242016D084401A30042016E0827
:100C4A004401A400BC224001181642016D08440167
:100C5A00A30042016E084401A400BC22400199137A
:100C6A0019139912191298131813981296129A10A6
:0E0C7A00961316131810981018111A1008006F
:100C8800FB09FA09F909F809F80A0319F90A031915
:080C9800FA0A0319FB0A080027
:100CA0007408F8027508031C750FF9027608031C16
:100CB000760FFA027708031C770FFB02F30D07305B
:100CC000FC00730DF80DF90DFA0DFB0D7408731C83
:100CD000772EF8027508031C750FF9027608031CBD
:100CE000760FFA027708031C770FFB02842EF807B1
:100CF00075080318750FF90776080318760FFA07B9
:100D000077080318770FFB07F30DFC0B612E720DAC
:100D1000F80DF90DFA0DFB0D7408731C9D2EF802E9
:100D20007508031C750FF9027608031C760FFA028A
:100D30007708031C770FFB02AA2EF8077508031823
:100D4000750FF90776080318760FFA077708031866
:100D5000770FFB07F20D0730FC00720DF80DF90D4F
:100D6000FA0DFB0D7408721CC32EF8027508031CE3
:100D7000750FF9027608031C760FFA027708031C38
:100D8000770FFB02D02EF80775080318750FF907C7
:100D900076080318760FFA0777080318770FFB0712
:100DA000F20DFC0BAD2E710DF80DF90DFA0DFB0DCA
:100DB0007408721CE92EF8027508031C750FF902FD
:100DC0007608031C760FFA027708031C770FFB02E4
:100DD000F62EF80775080318750FF907760803183B
:100DE000760FFA0777080318770FFB07F10D073026
:100DF000FC00710DF80DF90DFA0DFB0D7408711C56
:100E00000F2FF8027508031C750FF9027608031CF2
:100E1000760FFA027708031C770FFB021C2FF807E6
:100E200075080318750FF90776080318760FFA0787
:100E300077080318770FFB07F10DFC0BF92E700DE7
:100E4000F80DF90DFA0DFB0D7408711C352FF80221
:100E50007508031C750FF9027608031C760FFA0259
:100E60007708031C770FFB02422FF8077508031859
:100E7000750FF90776080318760FFA077708031835
:100E8000770FFB07F00D0730FC00700DF80DF90D22
:100E9000FA0DFB0D7408701C5B2FF8027508031C1B
:100EA000750FF9027608031C760FFA027708031C07
:100EB000770FFB02682FF80775080318750FF907FD
:100EC00076080318760FFA0777080318770FFB07E1
:100ED000F00DFC0B452F70187B2F7408F807750870
:100EE0000318750FF90776080318760FFA077708C5
:080EF0000318770FFB0708004F
:100EF80040019711AE2301304401A300A40128301A
:100F0800A5000130A6001230A7007E22033044015C
:100F1800A300A401DD30A5000030A6000C30A70016
:100F28007E225A304401A3000130A4001C2370081B
:100F3800A7000330A3005430A4002030A5000130DE
:100F4800A6007E227A30FB00C130FC008130FD0013
:100F5800FD0BAC2FFC0BAC2FFB0BAC2F00000000E3
:100F68008D1AB82F0314B92F0310031CBD2F0000CE
:060F7800B42F97150800DC
:100F7E00003043016F06031DC62F00306E06031DA1
:100F8E00D52F02304401A3003C30A400D830A50078
:100F9E000030A6000430A700E123F72F43016E08AE
:100FAE004401A30043016F084401A400A230A50030
:100FBE000130A6003B2343012508AA002E30AB00CA
:100FCE002608AC002708AD0002304401A3003C30D7
:100FDE00A400AA30A5000130A6000430A700E1232A
:020FEE000800F9
:060FF000FB15FF300800B4
:040FF600BC21080012
:101000008031562188312F084401B40080311F21DE
:10101000883140304401B40080311F2188314301C0
:10102000EF016F08033C031C40286F084401AD002A
:101030007330AE008031242288314301EE016E0806
:101040000A3C031C3E286F08F0000B30F40080318E
:10105000D621883143016E08F0070030F13D63303E
:1010600070078400A030713D850000084401B40081
:1010700080311F2188314301EE0A1F28EF0A112811
:081080008031BC218831080019
:101088007B14FB1F4F28F201FA1FFF30F200F1001A
:0A109800F000FA0DF20CFF30080022
:1010A20043304401A30080315A2588310230FC00CC
:1010B2000830FD00FD0B5B28FC0B5B2800000930AB
:1010C2004401A3008031D12388310B30F400003079
:1010D200F50080312125883170084301B200710882
:0410E200B30008004F
:1010E6007C18A928FC187A287C19CE287328A10117
:1010F6007208031D9A287108F2007008F10078083A
:10110600F000F801A1157208031D9A287108F20073
:101116007008F100F001A11121167208031D9A282A
:101126007108F200F101A11572080319BC28210803
:10113600F302031D031CC2280310F21BA928F80D95
:10114600F00DF10DF20DF30BA028C2287B1B701CCD
:10115600C828F81FC828F00A0319F10A0319F20A69
:10116600031DC828F20CF10CF00CF30A0319CE2863
:10117600C8280130FC008031B5228831D3280230DE
:10118600FC00803162228831D3280430FC00803193
:101196006E228831D3280830FC00803172228831D3
:0411A600000008003D
:1011AA004301EE010A306E020318FD2880315621F0
:1011BA0088312F084401B40080311F21883170081A
:1011CA00003A031DE928FD288031BC2188310D3001
:1011DA00FB002D30FC00D730FD00FD0BF228FC0B84
:1011EA00F228FB0BF228000000004301EE0AD72880
:1011FA004401B40180311F218831AE304401B4006A
:10120A0080311F218831D5304401B40080311F213B
:10121A00883180304401B40080311F218831A830E0
:10122A004401B40080311F2188313F304401B400A9
:10123A0080311F218831D3304401B40080311F210D
:10124A00883125084401B40080311F21883140309B
:10125A004401B40080311F2188318D304401B4002B
:10126A0080311F21883114304401B40080311F219C
:10127A00883181304401B40080311F218831FF3028
:10128A004401B40080311F218831D9304401B400AF
:10129A0080311F218831F1304401B40080311F218F
:1012AA00883120304401B40080311F218831023056
:1012BA004401B40080311F21883121304401B40037
:1012CA0080311F2188314401B40180311F218831C6
:1012DA007F304401B40080311F2188312E3044010F
:1012EA00B40080311F218831260803198929A030CA
:1012FA004401B40080311F218831C0304401B40058
:10130A0080311F2188319529A1304401B4008031F0
:10131A001F218831C8304401B40080311F2188312F
:10132A00DA304401B40080311F218831023044018F
:10133A00B40080311F218831DB304401B400803190
:10134A001F21883140304401B40080311F21883187
:10135A00A4304401B40080311F218831A6304401F1
:10136A00B40080311F2188318031BC21883180311D
:10137A00AE238831AF304401A30080314B25883138
:02138A00080059
:10138C00A1017208031DDB297108F2007008F1003D
:10139C00F001A1157208031DDB297108F200F1019F
:1013AC00A111211672080319E9292108F302031D62
:1013BC00031CEF290310F21BF529F00DF10DF20DB2
:1013CC00F30BE129EF290130FC008031B522883183
:1013DC00FA290230FC00803162228831FA2904306B
:0A13EC00FC0080316E2288310800F9
:1013F6007408003A031D142A7508003A031D142ABE
:101406007608003A031D142A7708003A031D142AA9
:10141600FF30F000FF30F100FF30F2007F30F300C4
:10142600B02A4001FC01F71BFC0AFD01FB01FA0191
:10143600F901F80173087204710470040319A92AEA
:1014460073087706A000A01BFD09F71F352AF409CB
:10145600F509F609F709F40A0319F50A0319F60A54
:101466000319F70AF31F422AF009F109F209F309F1
:10147600F00A0319F10A0319F20A0319F30A7308A9
:101486007704A000A01B652A803150268831FC1BFA
:10149600822AFD1FA92AF009F109F209F309F00AC7
:1014A6000319F10A0319F20A0319F30AF809F909EB
:1014B600FA09FB09F80A0319F90A0319FA0A0319C2
:1014C600FB0AA92AF71F7C2AF31B762A7308FB005E
:1014D6007208FA007108F9007008F800F301F201C9
:1014E600F101F0014C2AF301F201F101F001F00AD9
:1014F6000034F309F209F109F009FC17472AF80A42
:101506000319F90A0319FA0A0319FB0A740878027F
:10151600031D4C2A75087902031D4C2A76087A02A7
:10152600031D4C2A77087B02031D4C2AFB01FA0196
:10153600F901F801F00A0319F10A0319F20A03196D
:10154600F30AF31F4C2AA0012016FF34A0017C1CCD
:0C155600AF2A803144268831003E080096
:101562004001FB017308031D77080319072B72085A
:101572007606FA007708F3077E30031CC42AF302CA
:1015820003180C2BC72AF302031C112B7208F80054
:101592007108FC007008FD00F817F6170310F2013D
:1015A200F101F0011830A1007D1CE12A7408F00756
:1015B20075080318750FF10776080318760FF207FE
:1015C200F20CF10CF00CF80CFC0CFD0C0310A10B4E
:1015D200D52AF21BF12AF80DF00DF10DF20DF303ED
:1015E2007B1B701C032BF81F032BF00A0319F10A53
:1015F2000319F20A031D032BF20CF10CF00CF30A8F
:1016020003190C2BFA1FF2130030152B0130803115
:10161200B5228831152B0230803172228831152B88
:0C16220004308031622288310000080092
:10162E00400172087606A100F801F90173087702ED
:10163E00031C392B7708FD007308F7007D08F300B3
:10164E007608FD007208F6007D08F2007508FD00B0
:10165E007108F5007D08F1007408FD007008F400B3
:10166E007D08F00077080319B42B7208FA00F21700
:10167E00F61777087302F70003196C2B0830770200
:10168E00031C622BF7007408F9007508F400760845
:10169E00F500F60108307702031C622BF700740880
:1016AE00F9007508F400F50108307702031C622B6F
:1016BE007A08F200B42B770803196C2B0310F60C82
:1016CE00F50CF40CF90CF70B652BA11F792BF9090E
:1016DE00F409F509F609F90A0319F40A0319F50ACA
:1016EE000319F60A7908F80774080318740FF0073F
:1016FE0075080318750FF10776080318760FF207B1
:10170E00A11B922B031CA22BF20CF10CF00CF80C6B
:10171E00F30FA22BAE2B0318A62BF809F009F10933
:10172E00F209F80A0319F00A0319F10A0319F20A69
:10173E008030FA06AA2B0130FC007320B62B023043
:10174E00FC007320B62B0430FC00C621B62B0830EB
:10175E00FC00803172228831B62B0030FC00000074
:02176E00080071
:101770004001FB0173080319F42B7208FA00F217F9
:101780008E30F302F31FF72BF309F30A08307302CC
:10179000031CDA2BF300F10D7208F100F20108309E
:1017A0007302031CDA2BF300F10DF1017308031D22
:1017B0000310E22B73080319E22B0310F20CF10C57
:1017C000F30BDD2B7B1B711CEC2B031CEC2BF10AA8
:1017D0000319F20AF21B032CFA1F062CF209F10975
:1017E000F10A0319F20A062CF201F101062C7B140E
:1017F000FB1F092CF201FA1F092CFF30F200F10047
:10180000FA0DF20C092C0130FC000B2C0030FC000E
:101810000B2CFF30FC00FC0803190F2C442071082E
:08182000F0007208F10008005D
:101828004201BB0101304001EF004101EF014401D9
:10183800A0010130A100A20180319525883108005E
:1018480043304401A30080315A2588310230FC001E
:101858000830FD00FD0B2E2CFC0B2E2C0000083050
:101868004401A3008031D123883170084301EC0082
:101878007108ED007108033A031D442CFF3070060F
:10188800031D622C83304401A30080315A2588311E
:101898000230FC000830FD00FD0B502CFC0B502CD6
:1018A800000008304401A3008031D123883170083A
:1018B8004301EC007108ED00EC35ED0D6D08073AB9
:1018C800031D682CFE306C06031DB82C4401A301CF
:1018D80080315A2588310230FC000830FD00FD0BAC
:1018E800732CFC0B732C000008304401A3008031DA
:1018F800D123883170084301EC007108ED007108AC
:10190800033A031D892CFF307006031D8D2C4201FC
:10191800EC1651206C08F4006D08F500F601F7018B
:101928003208F0003308F1000030F11BFF30F200FC
:10193800F3008031EE2188310A30F8007008F40095
:101948007108F5007208F6007308F70078080319A3
:10195800B32CF736F60CF50CF40CFF3EAB2C7408E0
:101968004301EC007508ED006C08F0006D08F1000B
:02197800080065
:10197A00400116160930FB001E30FC00E430FD0061
:10198A00FD0BC52CFC0BC52CFB0BC52C00008031B4
:10199A00FB2788316830FC00E430FD00FD0BD32CB6
:1019AA00FC0BD32C0000D52042016C1FE42C8031A3
:1019BA007C27883142016C138031AE23883144017F
:1019CA00A301A4016230A5000130A6000930A700D6
:1019DA008031E1238831002002304401A300A401B0
:1019EA005030A5000130A6000930A7008031E1235C
:1019FA0088314401A3012A30A4004030A5000130F7
:101A0A00A6000130A7008031E12388310230440169
:101A1A00A3002A30A4004230A5000130A6000130FC
:101A2A00A7008031E12388310F304201BC00273002
:101A3A00BD006430BE000030BF000F30CA0027303E
:101A4A00CB00C801C9014301EE01EF018031BF2774
:101A5A008831013042014C07C40000304D3DC500B9
:101A6A0000304E3DC60000304F3DC7004C084101D2
:101A7A00D40042014D084101D50042014E084101FE
:101A8A00D60042014F084101D70042016C11EC1106
:101A9A006C126C10EC10E0304001B1009330B200CF
:101AAA000430B3000030B400B501B601B701B80183
:021ABA00080022
:101ABC007408003A031D772D7508003A031D772D25
:101ACC007608003A031D772D7708003A031D772D11
:101ADC00FF30F000FF30F1007F30F200FF30F300F8
:101AEC00192E400177080319052E730803190A2EC5
:101AFC00720876068039FA00F217F617A1017208FF
:101B0C00F8007108FC007008FD007408FD027508EF
:101B1C00031C750FFC027608031C760FF802F80103
:101B2C00FC01FD01031CA12D0310F20CF10CF00CB7
:101B3C00F80C0130A1007708F302031CAB2D7E30AA
:101B4C002107F30703180F2EB02D7E302107F30762
:101B5C00031C142E1830FA07FD0DFC0DF80DF00DBA
:101B6C00F10DF20DA10D7408F0027508031C750F30
:101B7C00F1027608031C760FF202760DA104211CEB
:101B8C00C92D7D14D42D7408F00775080318750F32
:101B9C00F10776080318760AF2077D10FA031F3056
:101BAC007A05031DB22D7B1B7D1CFB2D0310F00D44
:101BBC00F10DF20DA10D7408F0027508031C750FE0
:101BCC00F1027608031C760FF202760D210401391E
:101BDC00FD070318FC0A0319F80A031DFB2DF80C6A
:101BEC00FC0CFD0CF30A03190F2EFA1FF8137808DE
:101BFC00F2007C08F1007D08F0000030182E013056
:101C0C008031F8278831182E02308031B522883186
:101C1C00182E0430803172228831182E0830803111
:081C2C0062228831000008006B
:101C340040017008F8007108F0007208F1007308A0
:101C4400F200F301FB01FC019E30F300FA01F21FE4
:101C5400372EF809F009F109F209F80A0319F00A14
:101C64000319F10A0319F20AFA170230FC0073206F
:021C7400080066
:101C760043304401A30080315A2588310230FC00EC
:101C86000830FD00FD0B452EFC0B452E00000A30EA
:101C96004401A3008031D123883170084301EC0050
:101CA6007108ED007108033A031D5B2EFF307006C4
:101CB600031D792E83304401A30080315A258831D3
:101CC6000230FC000830FD00FD0B672EFC0B672E72
:101CD60000000A304401A3008031D1238831700806
:101CE6004301EC007108ED00EC35ED0D6D08073A87
:101CF600031D7F2EFE306C06031DCF2E4401A3016B
:101D060080315A2588310230FC000830FD00FD0B79
:101D16008A2EFC0B8A2E00000A304401A300803173
:101D2600D123883170084301EC007108ED00710879
:101D3600033A031DA02EFF307006031DA42E420198
:101D4600EC1651206C08F4006D08F500F601F70159
:101D56003208F0003308F1000030F11BFF30F200CA
:101D6600F3008031EE2188310A30F8007008F40063
:101D76007108F5007208F6007308F7007808031971
:101D8600CA2EF736F60CF50CF40CFF3EC22E74087C
:101D96004301EC007508ED006C08F0006D08F100D9
:021DA600080033
:101DA800710DF80DF90D7408F8027508031C750F0C
:101DB800F902F00DF10D0F30FC00710DF80DF90D61
:101DC8007408701CED2EF8027508031C750FF902D3
:101DD800F22EF80775080318750FF907F00DF10DC5
:101DE800FC0BE12E7018FE2E7408F807750803180E
:081DF800750FF9070000080057
:101E000024247008E4007108E5000030E51BFF3071
:101E1000E600E7003B267008E8007108E9000030A2
:101E2000E91BFF30EA00EB006408F0006508F100F0
:101E30006608F2006708F3001A263D30F4000A3005
:101E4000F5006730F6008130F7005E250030F400C1
:101E50000030F5005C30F6008530F700B12200302C
:101E6000F4000030F5007A30F6008830F7005E2587
:101E70007008F4007108F5007208F6007308F700A6
:101E8000B1220030F4000030F5002030F60081303F
:101E9000F7005E250030F4000030F5000030F60059
:101EA0007E30F7001723B82370084301A0007108A3
:101EB000A1008030F200803071067202031D622F93
:101EC0007008003C0318752F4001161E742FE03077
:101ED000B1009330B2000430B3000030B400B5015B
:101EE000B601B701B801752FBD24803043016B06E0
:101EF000F000803067067002031D882F66086A02B2
:101F0000031D882F65086902031D882F6408680275
:101F1000031C912FE730E4000330E500E601E70100
:101F2000D92F68086407F0006908653DF1006A0868
:101F3000663DF2006B08673DF3006430F400F50184
:101F4000F601F7018031EE21883143016408F40085
:101F50006508F5006608F6006708F7006808F402EF
:101F60006908F53B6A08F63B6B08F73BFB217008F4
:101F70004301E4007108E5007208E6007308E70019
:101F80008030F400803073067402031DD12F720874
:101F9000003C031DD12F7108033C031DD12F700895
:101FA000E73C0318D92FE730E4000330E500E601F1
:0C1FB000E7016408B8006508B9000800EB
:101FBC004001F8010830FC00700DF80D7408F802AF
:101FCC000318EA2FF8070310F00DFC0BE22F0800A2
:081FDC009831812188310800D1
:101FE40012001E00F003031DF22FF103031DF22F54
:021FF4000800E3
:102000004001971188311424903102304401A3001B
:10201000A4014330A5000030A6000930A70080319C
:10202000E12390311930FB005A30FC00B130FD0043
:10203000FD0B1828FC0B1828FB0B182800000000CB
:1020400002304401A300A4014D30A5000030A600D9
:102050000530A7008031E123903102304401A30014
:102060002A30A4005330A5000030A6000130A7009C
:102070008031E123903102304401A3003C30A400C0
:102080003930A5000030A6000430A7008031E123DC
:10209000903164304201BE000030BF000D30FB00C3
:1020A0002D30FC00D730FD00FD0B5428FC0B5428CC
:1020B000FB0B5428000000004001971542016C11F1
:1020C0006C104001BE0142014C08C4004D08C5001F
:1020D0004E08C6004F08C7004C084101D400420119
:1020E0004D084101D50042014E084101D600420190
:0820F0004F084101D700080070
:1020F800003043016506031D832800306406031D74
:1021080093284401A3013C30A4003F30A5000030CF
:10211800A6000330A7008031E1239031FA2800306F
:1021280043016502031D9A280A3064020318B22885
:1021380064084401A300430165084401A400A230D7
:10214800A5000130A60080313B2390313030430197
:10215800AA002E30AB002708AC00ED28003065023D
:10216800031DB828643064020318D02864084401A9
:10217800A300430165084401A400A230A500013072
:10218800A60080313B23903143012608AA002E3057
:10219800AB002708AC00ED2805306407F0000030DC
:1021A800653DF1007008E4007108E500700844011D
:1021B800A3007108A400A230A5000130A600803158
:1021C8003B23903120304301AA002508AB002608A4
:1021D800AC004401A3013C30A400AA30A5000130A2
:0E21E800A6000330A7008031E12390310800EB
:1021F6007408003A031D08297508003A031D0829CA
:10220600FF30F0007F30F10062294001FD01F90145
:10221600F801710870040319003471087506FA0094
:10222600FA1BFD09FB01F51F1D29F409F509F40A3E
:102236000319F50AF11F2429F009F109F00A031917
:10224600F10A71087504FA00FA1B39298831D42677
:1022560090317B184E29FD1F0034F009F109F00A70
:102266000319F10AF809F909F80A0319F90A0034F9
:10227600F51F4A29F11B46297108F9007008F80074
:10228600F101F0012E29F101F001F00A0034F10903
:10229600F009FB0A2B29F80A0319F90A74087802CF
:1022A600031D2E2975087902031D2E29F901F8014F
:1022B600F00A0319F10AF11F2E290000FF34080065
:1022C6002C304301DE000130DF002C30E00001300D
:1022D600E100E201E30188310027903180302106D8
:1022E600F0008030410151067002031D7D2950081F
:1022F60043012002031C8F29803041013B06F00078
:102306008030430121067002031D8C2920084101FB
:102316003A02031C8F29F32942016C1D97290020DC
:102326004301B801B901F32942016C1E9E294301FC
:10233600B801B901F3298831002790315F08003CC4
:10234600031DA7295E08003C0318BA290130DE02E6
:102356000030DF3B21086302031DB3292008620217
:102366000318B9292008E2002108E300F2296308CE
:1023760042014B06031DC2294A084301620603199E
:10238600CA2943016208E4006308E5007C20430192
:1023960062084201CA00430163084201CB004301BF
:1023A600E201E3012C30DE000130DF006108003C71
:1023B600031DDF296008003C0318E6290130E0020E
:1023C6000030E13BE929B801B901F3290B30FC00E3
:1023D6006230FD00FD0BED29FC0BED290000712993
:0223E6000800ED
:1023E8004301DC0163210A30F4000030F5004301A9
:1023F8003808F0003908F100FB2070084301DA00C2
:102408007108DB0001304001EF0040306F02031813
:102418004F2A42013B084401A00040016F084401D3
:10242800A10041016F084401A20080319525903137
:102438003430FC00F130FD00FD0B202AFC0B202A73
:102448000000000063210A30F4000030F500430169
:102458003808F0003908F100FB2070084301B80083
:102468007108B90080305B06F20080307106720294
:10247800031D402A70085A02031C4B2A40016F08AA
:102488004301DC003808DA003908DB004C2A4F2AFF
:102498004001EF35092A43015C084001EF00420181
:1024A8003B084401A00043015C084401A10041012C
:1024B8006F084401A2008031952590313430FC002A
:1024C800F130FD00FD0B662AFC0B662A00000000B7
:0224D8000800FA
:1024DA0042013B084301DD000A30F40042013B0897
:1024EA00F0008831DE27903170084301DC00700863
:1024FA00003A031D822A0130DC00632143013808B7
:10250A00DA003908DB005C0842013B07F00070087A
:10251A00BB0070084401A00040016F084401A100FB
:10252A0041016F084401A200803195259031343071
:10253A00FC00F130FD00FD0BA02AFC0BA02A0000D4
:10254A0000006321803043015B06F00080303906C9
:10255A007002031DB22A38085A02031C192B3808C4
:10256A00DA003908DB0042013B084301DD005C0860
:10257A004201BB0743015C087F3CF100F2010030D5
:10258A00F23B80307206F00080307002031DD02AC0
:10259A0042013B087102031C182B42013B0844010B
:1025AA00A00040016F084401A10041016F084401E5
:1025BA00A2008031952590313430FC00F130FD00C5
:1025CA00FD0BE52AFC0BE52A0000000063218030A0
:1025DA0043015B06F000803039067002031DF72ABA
:1025EA0038085A02031C132B42013B084301DD0041
:1025FA003808DA003908DB000A30F40042013B08E7
:10260A00F0008831DE27903170084301DC00700841
:10261A00003A031D122B0130DC00142B182B5C0826
:10262A004201BB07BF2A6C2B43013808DA0039087C
:10263A00DB005C084201BB0243015C0842013B0229
:10264A00031C6C2B3B084401A00040016F084401A5
:10265A00A10041016F084401A20080319525903103
:10266A003430FC00F130FD00FD0B392BFC0B392B0B
:10267A00000000006321803043015B06F0008030D7
:10268A0039067002031D4B2B38085A02031C672BAC
:10269A0042013B084301DD003808DA003908DB0053
:1026AA000A30F40042013B08F0008831DE279031FD
:1026BA0070084301DC007008003A031D662B0130E4
:1026CA00DC00682B6C2B5C084201BB02212B430106
:1026DA005D084201BB0043015D084401A0004001BE
:1026EA006F084401A10041016F084401A200803132
:1026FA00952590313430FC00F130FD00FD0B832B21
:0A270A00FC0B832B00000000080008
:1027140040016F084301DD000A30F40040016F08F6
:10272400F0008831DE27903170084301DC00700826
:10273400003A031D9F2B0130DC006321430138085C
:10274400DA003908DB005C0840016F07F00070080C
:10275400EF0042013B084401A0007008A1004101C0
:102764006F084401A2008031952590313430FC007B
:10277400F130FD00FD0BBC2BFC0BBC2B000000005A
:102784006321803043015B06F0008030390670021B
:10279400031DCE2B38085A02031C352C3808DA00E6
:1027A4003908DB0040016F084301DD005C0840018B
:1027B400EF0743015C087F3CF100F2010030F23B7B
:1027C40080307206F00080307002031DEC2B400153
:1027D4006F087102031C342C42013B084401A00021
:1027E40040016F084401A10041016F084401A200A7
:1027F4008031952590313430FC00F130FD00FD0B23
:10280400012CFC0B012C00000000632180304301EB
:102814005B06F000803039067002031D132C380863
:102824005A02031C2F2C40016F084301DD003808B5
:10283400DA003908DB000A30F40040016F08F000C8
:102844008831DE27903170084301DC007008003ABB
:10285400031D2E2C0130DC00302C342C5C0840018C
:10286400EF07DB2B892C43013808DA003908DB0039
:102874005C084001EF0243015C0840016F02031C45
:10288400892C42013B084401A00040016F08440127
:10289400A10041016F084401A200803195259031C7
:1028A4003430FC00F130FD00FD0B562CFC0B562C93
:1028B400000000006321803043015B06F00080309B
:1028C40039067002031D682C38085A02031C842C34
:1028D40040016F084301DD003808DA003908DB00E5
:1028E4000A30F40040016F08F0008831DE2790318F
:1028F40070084301DC007008003A031D832C01308A
:10290400DC00852C892C5C084001EF023D2C43013E
:102914005D084001EF0042013B084401A00043016F
:102924005D084401A10041016F084401A200803107
:10293400952590313430FC00F130FD00FD0BA02CC6
:0A294400FC0BA02C000000000800AE
:10294E004301DC0163210A30F4000030F50043013D
:10295E003808F0003908F100FB2070084301DA0056
:10296E007108DB0001304201BB0040303B0203180E
:10297E00012D3B084401A00040016F084401A10055
:10298E0041016F084401A200803195259031343009
:10299E00FC00F130FD00FD0BD22CFC0BD22C000004
:1029AE00000063210A30F4000030F50043013808BE
:1029BE00F0003908F100FB2070084301B8007108DF
:1029CE00B90080305B06F200803071067202031D82
:1029DE00F22C70085A02031CFD2C42013B084301E5
:1029EE00DC003808DA003908DB00FE2C012D42012C
:1029FE00BB35BC2C43015C084201BB0043015C08A3
:102A0E004401A00040016F084401A10041016F087C
:102A1E004401A2008031952590313430FC00F13014
:102A2E00FD00FD0B182DFC0B182D000000000800FA
:102A3E004301DC0163210A30F4000030F50043014C
:102A4E003808F0003908F100FB2070084301DA0065
:102A5E007108DB0001304201BB0040303B0203181D
:102A6E00792D3B084401A00042013B084401A1001E
:102A7E0041016F084401A200803195259031343018
:102A8E00FC00F130FD00FD0B4A2DFC0B4A2D000021
:102A9E00000063210A30F4000030F50043013808CD
:102AAE00F0003908F100FB2070084301B8007108EE
:102ABE00B90080305B06F200803071067202031D91
:102ACE006A2D70085A02031C752D42013B08430102
:102ADE00DC003808DA003908DB00762D792D42014A
:102AEE00BB35342D43015C084201BB0043015C0839
:102AFE004001EF0043015C084401A00043015C0863
:102B0E004401A10041016F084401A20080319525C6
:102B1E0090313430FC00F130FD00FD0B942DFC0B98
:082B2E00942D000000000800D6
:102B360010304301D4002730D5001030D60027309E
:102B4600D7001030D8002730D900F421A7246321FC
:102B56008030F0008030430139067002031DB52D28
:102B66003808783C031CB82DC92E3808D40039081B
:102B7600D50042013B084301CE0040016F084301E6
:102B8600CF0040016F08023C0130031C0030F10009
:102B960042013B08023C0130031C0030F000710882
:102BA600F00503190A2E4001EF014201BB01440161
:102BB600A001A10141016F084401A20080319525C1
:102BC60090313430FC00F130FD00FD0BE82DFC0B9C
:102BD600E82D00000000A724F42163218030F000D6
:102BE6008030430139067002031DFB2D3808783CFE
:102BF600031CFE2DC92E3808D6003908D70042011D
:102C06003B084301D00040016F084301D100400159
:102C16006F08023C0130031C0030F10042013B0802
:102C2600023C0130031C0030F0007108F005031966
:102C36004F2E4001EF014201BB014401A001A10159
:102C460041016F084401A20080319525903134304E
:102C5600FC00F130FD00FD0B2E2EFC0B2E2E00008D
:102C660000001F2563218030F000803043013906C3
:102C76007002031D402E3808783C031C432EC92ED3
:102C86003808D8003908D90042013B084301D20070
:102C960040016F084301D300430180305706F1001D
:102CA600803055067102031D5A2E54085602013013
:102CB600031C0030F10080305906F00080305506C4
:102CC6007002031D682E540858020130031C0030A0
:102CD600F0007108F0050319782E4F084001EF0047
:102CE60043014E084201BB00C92E80304301550600
:102CF600F100803057067102031D832E56085402D8
:102D06000130031C0030F10080305906F00080309D
:102D160057067002031D912E560858020130031CF7
:102D26000030F0007108F0050319A12E510840018A
:102D3600EF00430150084201BB00C92E8030430119
:102D46005506F100803059067102031DAC2E580855
:102D560054020130031C0030F10080305706F000A9
:102D6600803059067002031DBA2E580856020130EB
:102D7600031C0030F0007108F0050319C92E530832
:0E2D86004001EF00430152084201BB0008006B
:102D940042013B0840016F02031CD32E8A236D229B
:082DA400D52E6D228A230800E0
:102DAC004001EF014201BB014401A001A10141011D
:102DBC006F084401A2008031952590310330FB004F
:102DCC000830FC007730FD00FD0BEA2EFC0BEA2EE0
:102DDC00FB0BEA2E63218030F00080304301390672
:102DEC007002031DFB2E3808783C031CFE2E0E2FA0
:102DFC009B2563218030F00080304301390670023E
:102E0C00031D0A2F3808783C031C0D2F0E2FCA26E1
:022E1C000800AC
:102E1E00D62663218030F0008030430139067002DF
:102E2E00031D1B2F3808783C031C1E2F7C2F3808DF
:102E3E00CA003908CB0040016F084301CC004201A3
:102E4E003B084301CD0041016F08013A031D312FAC
:102E5E00EF01332F0130EF00D6266321803043017E
:102E6E004B06F000803039067002031D402F3808E3
:102E7E004A0203186D2F41016F08013A031D492FB5
:102E8E00EF014B2F0130EF0043014C084001EF00E2
:102E9E0043014D084201BB0043014D084401A0000F
:102EAE0043014C084401A10041016F084401A200F6
:102EBE008031952590313430FC00F130FD00FD0B52
:102ECE00662FFC0B662F0000000063218030F0009F
:102EDE008030430139067002031D772F3808783C85
:0C2EEE00031C7A2F7C2FCA2663210800E9
:102EFA004001971102304401A300A401BC30A5008F
:102F0A000030A6000930A7008031E1239031191161
:102F1A0063218030F0008030430139067002031DBE
:102F2A00982F3808633C0318D12F0F27430138081C
:102F3A004201C800430139084201C9004301380867
:102F4A004201BE00430139084201BF000230440178
:102F5A00A300A4012A30A5000030A6000430A7006F
:102F6A008031E123903102304401A3002A30A400C9
:102F7A002830A5000030A6000130A7008031E123E7
:102F8A009031420148084301EE00420149084301D9
:102F9A00EF008031BF279031400119159715420182
:102FAA00EC11EC104001BE0142014C08C4004D086E
:102FBA00C5004E08C6004F08C7004C084101D4009E
:102FCA0042014D084101D50042014E084101D60097
:0A2FDA0042014F084101D700080032
:103000008031562198312F084401B40080311F21AE
:10301000983140304401B40080311F2198310A308A
:10302000F4000030F50043014108F0004208F100CF
:103030009031FB20983170084301C1007108C20033
:1030400080307106F2008030013A7202031D2A2896
:103050002C307002031831282C30C1000130C2001E
:1030600041288030013AF000803042067002031D92
:103070003B284108A43C03184128A430C10001307A
:10308000C2002C304102F3000130423BF4007308CF
:10309000C1007408C2000530F2007308F000740823
:1030A000F100720803195828F035F10DFF3E52283F
:1030B0007008C1007108C2007830F4000030F500DB
:1030C0009031FB20983170084301C4001930700220
:1030D000031C742818304402C5000830C6000830AC
:1030E000C7000830C800922811304402031C812810
:1030F000C50110304402C6000830C7000830C800BF
:10310000922809304402031C8D28C501C6010830ED
:103110004402C7000830C8009228C501C601C70193
:103120004408C8008030C90001304502F000F101B8
:103130000030F13B7008F1004908F00071080319F4
:10314000A428F036FF3E9F287008FF3CC900C90A3A
:103150000330C9044401AD017730AE008031242230
:103160009831430149084401B40080311F2198314E
:10317000430149084401B40080311F2198314301C3
:1031800049084401B40080311F2198311F304301A8
:10319000C9044401AD017530AE008031242298315C
:1031A000430149084401B40080311F219831430193
:1031B00049084401B40080311F2198314401AD0118
:1031C0007A30AE008031242298314301490844010D
:1031D000B40080311F219831430149084401B400F3
:1031E00080311F21983180304301C90001304602EF
:1031F000F000F1010030F13B7008F1004908F000E7
:10320000710803190629F036FF3E01297008FF3CBA
:10321000C900C90A01304401AD007530AE008031EB
:10322000242298314301C3014308063C031C212991
:1032300049084401B40080311F2198314301C30A79
:1032400014298030C90001304702F000F10100303C
:10325000F13B7008F1004908F000710803193329A7
:10326000F036FF3E2E297008FF3CC900C90A023023
:103270004401AD007530AE00803124229831430105
:10328000C3014308063C031C4E2949084401B4000D
:1032900080311F2198314301C30A41298030C90080
:1032A00001304802F000F1010030F13B7008F100FC
:1032B0004908F000710803196029F036FF3E5B29C8
:1032C0007008FF3CC900C90AC030C904033044017A
:1032D000AD007530AE008031242298314301C30126
:1032E0004308063C031C7D2949084401B400803191
:1032F0001F2198314301C30A70298031BC219831C4
:023300000800C3
:103302008B1340019E134E018C1216167E01CA12B7
:10331200C91640011A15161AAB2916160930FB00F8
:103322001E30FC00E430FD00FD0B9529FC0B9529B5
:10333200FB0B952900008031FB2798316830FC0097
:10334200E430FD00FD0BA329FC0BA329000088310A
:10335200D52098318031AE23983101304401A30049
:10336200A401AC30A5000030A6000B30A7008031CC
:10337200E12398315230FB002B30FC000030FD007D
:10338200FD0BC129FC0BC129FB0BC1290000161240
:10339200171697154301C1014108003A031DE029A0
:1033A2000530FB000F30FC00F130FD00FD0BD7298A
:1033B200FC0BD729FB0BD7297E01CA126300000040
:1033C2000530FB000F30FC00F130FD00FD0BE7295A
:1033D200FC0BE729FB0BE72940018D1AF2290314A4
:1033E200F3290310031CF8294301C10AFA294301F6
:1033F200C10141080F3C0318FF29002ACD294E01C3
:1034020016127E01C912CA1240019E178B171A1199
:1034120042016C178831BD2498318D1A122A031487
:10342200132A0310031C172A00000E2ABE014201B0
:083432004C084301C100080031
:10343A00643040016B024301BB00003040016C3B29
:10344A004301BC000330FB000830FC007730FD006C
:10345A00FD0B2D2AFC0B2D2AFB0B2D2A5830BA0006
:10346A00BD01BE01BF01C0014201EF0143013A089B
:10347A0042016F020318642A88310027983180308C
:10348A003E06F000803021067002031D4E2A2008F5
:10349A003D020318582A2008BD002108BE0038083A
:1034AA00BF003908C0000B30FC006230FD00FD0B84
:1034BA005C2AFC0B5C2A00004201EF0A3B2A80309E
:1034CA00F000803043013E067002031D6E2A3D085B
:1034DA00003C0318832A4001161E802AE030B100FE
:1034EA009330B2000430B3000030B400B501B60125
:1034FA00B701B801832A8831BD24983143013E08B7
:10350A0042014B06031D8C2A4A0843013D06031952
:10351A00BC2A4201EC1E9F2A4401A3012A30A400BE
:10352A00B830A5000030A6000130A7008031E123A1
:10353A009831AC2A4401A3012A30A4006D30A500B9
:10354A000030A6000130A7008031E1239831430101
:10355A003D084201CA0043013E084201CB00430133
:10356A003D08E4003E08E50090317C209831803027
:10357A00F0008030430140067002031DC62A3F084E
:10358A00633C0318FF2A400842014906031DD02A5A
:10359A00480843013F060319FF2A43013F08420135
:1035AA00C800430140084201C900803043013E0679
:1035BA00F00080307002031DE42A0A303D0203182D
:1035CA00F42ABF01C001420148084301EE0042014A
:1035DA0049084301EF008031BF279831CF2B4201C0
:1035EA0048084301EE00420149084301EF008031D7
:1035FA00BF2798314201EC1E742B03304301BA00F5
:10360A003A08003A0319412B02304401A30006305C
:10361A00A4005530A5000030A6000930A70080316B
:10362A00E12398311530FB004B30FC00BE30FD0021
:10363A00FD0B1D2BFC0B1D2BFB0B1D2B0000023061
:10364A004401A300A4016130A5000030A60009309E
:10365A00A7008031E12398311530FB004B30FC0084
:10366A00BE30FD00FD0B372BFC0B372BFB0B372B2A
:10367A0000004301BA03052B02304401A300A40150
:10368A00C630A5000030A6000930A7008031E1232A
:10369A00983102304401A3002A30A400D230A50098
:1036AA000030A6000130A7008031E12398314301A0
:1036BA003F08EE004008EF008031BF2798311530EF
:1036CA00FB004B30FC00BE30FD00FD0B6A2BFC0BEF
:1036DA006A2BFB0B6A2B00004201EC12CF2B8030C5
:1036EA0043013E06F0008030410151067002031D7D
:1036FA00812B500843013D02031CCF2B430180302C
:10370A003E06F000803041013B067002031D902BFB
:10371A003A0843013D020318CF2B43018030F000E1
:10372A00803040067002031D9C2B3F08633C03183F
:10373A00CF2B42013E0843013F02F10042013F08FC
:10374A004301403BF20080303C06F00080307206B4
:10375A007002031DB22B71083B02031CCB2B3F08DE
:10376A0042013E02F1004301400842013F3BF200A0
:10377A00803043013C06F000803072067002031D5F
:10378A00C82B71083B02031CCB2BCF2B90317D2712
:06379A009831CF2B08005E
:1037A000400197111616191190316321983180301C
:1037B000F0008030430139067002031DE12B380808
:1037C000633C0318E62B90310F27983140011915FF
:1037D000430138084201C800430139084201C900C9
:0A37E000400197154201EC100800AB
:1037EA00883151209831330842013D06031D002CCF
:1037FA003C08430132060319302C430132084201C6
:10380A00BC00430133084201BD0043013208C10034
:10381A003308C200002080300E3AF00080304301A5
:10382A0033067002031D1B2C3208D83C031C282CBB
:10383A00013040015F074201ED0000304001603D68
:10384A004201EE00302C40015F084201ED004001C8
:10385A0060084201EE0080300E3AF00080304301E9
:10386A0033067002031D3B2C3208743C03184F2C9C
:10387A004001971117160230FB003830FC00AD30BA
:10388A00FD00FD0B462CFC0B462CFB0B462C97151A
:10389A0017167F2C80300E3AF00080304301330631
:1038AA007002031D5A2C3208063C03186E2C400184
:1038BA00971117120230FB003830FC00AD30FD00C2
:1038CA00FD0B652CFC0B652CFB0B652C971517164D
:1038DA007F2C4001171297150230FB003830FC008C
:1038EA00AD30FD00FD0B772CFC0B772CFB0B772CF6
:1038FA0017169715803043013306F00080300D3AD1
:10390A007002031D8A2C483032020318AB2C803116
:10391A00AE23983101304401A300A401A030A500D0
:10392A000030A6000B30A7008031E12398315230D5
:10393A00FB002B30FC000030FD00FD0BA22CFC0B21
:0E394A00A22CFB0BA22C0000161281210800FB
:10395800D1304301B4000330B5002330B600023043
:10396800B70041019301940195019601EC309A0545
:08397800131613159317080044
:103980007E01B801C3014314C3144315CE01E40101
:10399000D90153019013941340018C018D018E01C4
:1039A0008F01900196019701103098000630990020
:1039B0009A019101273092009301940195017E01B3
:1039C0003A15BA15DB145B1540019F121F179F13A0
:1039D0001E16C0309C00E0309D004E018C1240014C
:1039E0009E174E0196161E304F019600FE3097002E
:1039F000473098007F30990077309A00DF309B0085
:103A00008B170530FB000F30FC00F130FD00FD0B83
:0C3A1000072DFC0B072DFB0B072D0800F9
:103A1C00A031AA209831C024400117161915420173
:103A2C006C178831BD2498311A11AC244201EC1268
:103A3C00E0304001B1009330B2000430B3000030EC
:103A4C00B400B501B601B701B8015F084201ED0041
:103A5C00400160084201EE00420147084F02031D7D
:103A6C00412D46084E02031D412D45084D02031DF4
:103A7C00412D44084C02031C4B2DB830C4070B30AD
:103A8C00C53D0030C63DC73DF523410157084201F5
:103A9C004F02031D612D4101560842014E02031DC8
:103AAC00612D4101550842014D02031D612D41015B
:103ABC00540842014C02031C6C2D2C304101D407DC
:103ACC000130D53D0030D63DD73D1D220030F000F1
:103ADC0040013406031D7C2D70083306031D7C2D1C
:103AEC0070083206031D7C2D3108003A031D7F2D12
:103AFC00161242016C1D8C2D4001161E892D903121
:103B0C00002098318C2D8831BD2498314201EC1D58
:103B1C00992D4001161E962D90317D279831992DA7
:103B2C008831BD24983142016C1EA62D4001161E11
:103B3C00A32D8831EE279831A62D8831BD249831DC
:103B4C0042016C1CB22D4001161AAF2D8831BD24D8
:103B5C0098319031002098314201EC1CC02D40016D
:103B6C00161ABD2DD0238831BD249831C02D90312B
:083B7C007D279831322DC12D87
:10415400A33084009F3085004630F0000130F10028
:1041640025308600003087008831F227A031E930FD
:1041740084009F3085000C30F0000130F100A03045
:104184008600003087008831F227A031FD3084009A
:10419400873085000230F0000130F1006B3086007A
:1041A400003087008831F227A031F2308400973044
:1041B40085000C30F0000130F100AC308600003096
:1041C40087008831F227A031FB3084008F308500CE
:1041D4000230F0000130F1006D30860000308700BD
:1041E4008831F227A03100308400A03085003230BD
:1041F400F0000130F100B8308600003087008831CB
:10420400F227A0318F308400A03085001B30F000ED
:104214000130F10020308600013087008831F22718
:10422400A03103308400803085000130F00001307B
:10423400F1006F308600003087008831F227A0310A
:10424400F53084009F3085000630F0000130F10025
:10425400EA308600003087008831F227A0313230FE
:104264008400A03085003130F0000130F1003B3093
:0E4274008600013087008831F227A031080053
:020006000034C4
:040FFA008234003409
:041FF6003D34003442
:102FE400203450344F3457344534523420344F3421
:082FF400463446342034003459
:103B860000340034003400340034003400345F3430
:103B9600003400340034073400340734003414345D
:103BA6007F3414347F34143424342A347F342A3452
:103BB60012342334133408346434623436344934CA
:103BC6005534223450340034053403340034003480
:103BD60000341C342234413400340034413422345D
:103BE6001C34003408342A341C342A34083408348B
:103BF60008343E3408340834003450343034003449
:103C060000340834083408340834083400343034B6
:103C16003034003400342034103408340434023490
:103C26003E345134493445343E34003442347F34D2
:103C360040340034423461345134493446342134FA
:103C4600413445344B3431341834143412347F340F
:103C56001034273445344534453439343C344A34F9
:103C66004934493430340134713409340534033469
:103C760036344934493449343634063449344934BF
:103C860029341E34003436343634003400340034DB
:103C960056343634003400340034083414342234B4
:103CA6004134143414341434143414344134223466
:103CB60014340834003402340134513409340634DF
:103CC60032344934793441343E347E34113411343B
:103CD60011347E347F3449344934493436343E34E1
:103CE60041344134413422347F3441344134223426
:103CF6001C347F3449344934493441347F340934DF
:103D06000934013401343E344134413451343234BF
:103D16007F340834083408347F34003441347F3427
:103D2600413400342034403441343F3401347F344C
:103D360008341434223441347F344034403440341F
:103D460040347F340234043402347F347F34043404
:103D5600083410347F343E344134413441343E34E7
:103D66007F3409340934093406343E34413451343D
:103D760021345E347F3409341934293446344634C8
:103D86004934493449343134013401347F340134FF
:103D960001343F344034403440343F341F342034FF
:103DA600403420341F347F342034183420347F3498
:103DB60063341434083414346334033404347834E8
:103DC60004340334613451344934453443340034C3
:103DD60000347F344134413402340434083410341E
:103DE6002034413441347F34003400340434023406
:103DF60001340234043440344034403440344034D6
:103E0600003401340234043400342034543454343D
:103E1600543478347F344834443444343834383471
:103E260044344434443420343834443444344834F8
:103E36007F343834543454345434183408347E348B
:103E460009340134023408341434543454343C34C0
:103E56007F340834043404347834003444347D34F4
:103E6600403400342034403444343D34003400348B
:103E76007F34103428344434003441347F344034A1
:103E860000347C3404341834043478347C340834F4
:103E960004340434783438344434443444343834C0
:103EA6007C3414341434143408340834143414347C
:103EB60018347C347C3408340434043408344834EC
:103EC600543454345434203404343F344434403469
:103ED60020343C344034403420347C341C34203488
:103EE600403420341C343C344034303440343C3488
:103EF600443428341034283444340C345034503488
:103F060050343C344434643454344C3444340034F3
:103F16000834363441340034003400347F340034FD
:103F2600003400344134363408340034083408345C
:103F36002A341C34083408341C342A34083408342F
:023F4600403405
:023F4800013442
:023F4A0002343F
:043F4C003D340034CC
:0A3F50005334573452342034003447
:043F5A007834003483
:083F5E000A3400340034003481
:083F66000A3400340034003479
:0A3F6E0030342E3430343034003487
:023F7800003413
:083F7A0030342E3430340034E1
:103F820052344534533445345434203420342034AC
:043F920020340034A3
:0C3F9600533457345234203420340034AB
:043FA2003D34003476
:103FA6004F345634453452344C344F34413444340F
:043FB600203400347F
:043FBA000834003493
:103FBE002034203420342034203420342034203453
:043FCE002034003467
:103FD200203420344C344F3457342034423441346A
:083FE20054345434203400343F
:023FEA000034A1
:083FEC000034003400340034FD
:023FF400003497
:044000003E34003416
:0440040096340034BA
:10400800543455344E34453420342034203420344C
:04401800203400341C
:10401C005334573452342034203420342034203458
:04402C002034003408
:044030000A3400341A
:044034003D340034E3
:084038000034003400340034B0
:0A40400030342E34303430340034B4
:10404A0020344634573420345634453452345334A9
:0A405A0049344F344E342034003452
:02406400003426
:0440660000340034EE
:04406A006434003486
:04406E003D340034A9
:044072003D340034A5
:08407600003400340034003472
:04407E0000340034D6
:044082000F3427349C
:08408600003400340034003462
:10408E0053345734523420342034203420342034E6
:04409E002034003496
:1040A20031342E343534203452344D3453340034C8
:1040B20050345734523420342034203420342034C5
:0440C200573400343B
:1040C600F834F8341F341F340334033403341F34F4
:1040D6001F34F834F834FF34FF340034003400342D
:1040E6000034003400340034FF34FF34FF34FF342E
:1040F6000034003400340034003400340034FF341B
:10410600FF34FF34FF34C034C034C034C034C0344C
:08411600C034C034FF34FF3453
:10411E0031342E343534203452344D34533400344B
:10412E002034443445345334493447344E344534C2
:10413E00443420344234593420344E3437344434E9
:06414E0044344334003448
:020000040001F9
:0A000E000429213E1F3F03300300C8
:00000001FF
