:040000009831DD2D29
:1000080070084001A4007108A3007208A2008031A2
:100018004E018C1EFA288C1201304201BD070030B7
:10002800BE3DBF3DC03D0030F00041015D06031DEF
:10003800272870085C06031D272870085B06031D27
:1000480027285A08003A03192F280130DA0200300D
:10005800DB3BDC3BDD3B0030F0006106031D3E2846
:1000680070086006031D3E2870085F06031D3E28C1
:100078005E08003A031946280130DE020030DF3BF3
:10008800E03BE13BC03040019C00E0309D00410175
:100098004B0842014002031D612841014A08420100
:1000A8003F02031D61284101490842013E02031D28
:1000B80061284101480842013D02031CFA280A3020
:1000C8004101C8070030C93DCA3DCB3D40018D1AEA
:1000D8006F287214702872108F18742803147528EA
:1000E800031072187B2803187B2872107C2872145E
:1000F800721C8B28E0304101DA009330DB000430B9
:10010800DC000030DD00DE01DF01E001E10140013B
:100118008D1A9028031491280310031CAF28FA3075
:100128004201410203189928C10A4108193A031DDE
:100138009E28E8144108FA3A0130031D0030F10006
:10014800F0014001161AF00A7108F0050319AE28EB
:1001580042016815C42842014108023C01300318D5
:100168000030F10019304102013003180030F0006E
:100178007108F0050319C3286817C101C428C10113
:1001880040018F18C9280314CA280310031CE32848
:10019800193041014C020318D228CC0A4C08143AF1
:1001A8000130031D0030F100F00140010F19F00A81
:1001B8007108F0050319E22842016816FA2841017E
:1001C8004C08013C013003180030F1000A304C02A1
:1001D800013003180030F0007108F0050319F92800
:1001E8004201E8164101CC01FA28CC01400124085B
:0C01F800F0002308F1002208F2000900CA
:100204004001F801F9011030FC00710DF80DF90DF1
:100214007408F8027508031C750FF90203181929EC
:100224007408F80775080318750FF9070310F00D23
:08023400F10DFC0B0729080085
:10023C00F1010830710203183B294401AF1B292935
:10024C00400116112B29400116154230FD00FD0B03
:10025C002D29000096154230FD00FD0B33290000BE
:10026C0096114401AF35F10A1F2940011615423091
:10027C00FD00FD0B3F290000961500300C190130D4
:10028C00F2004230FD00FD0B49290000961142306E
:0E029C00FD00FD0B4F2900007208F000080065
:1002AA00400196154230FD00FD0B59290000161534
:1002BA004230FD00FD0B5F29000016114230FD009F
:1002CA00FD0B6529000096114230FD00FD0B6B29DC
:0402DA000000080018
:1002DE004401AC0105302C0203187F292C082A0793
:1002EE00860000302B3D870020308100AC0A71293A
:1002FE002C082A07860000302B3D87008101AC03B5
:10030E002C082A07AD0000302B3DAE000A30F40059
:10031E00F5012808F0002908F10002217808F00004
:10032E007908F1003030F00744012D0886002E08C0
:10033E008700700881000A30F400F5012808F000EB
:10034E002908F100022170084401A8007108A900D3
:10035E0000307106031DB52900307006031DB82943
:08036E00BA29AC03872908003D
:1003760041014D0844012907AC00552141014E08B1
:100386004401AF001E214401AF011E21440128088B
:10039600B03EAF001E2144012C080F3C031CD72998
:1003A6002C08AA00AB01E8292C08F200F236F23636
:1003B600F236F2367208AB007208F000F035F0350E
:1003C600F035F03570082C02AA002A08AF001E216D
:1003D60044012B08103EAF001E21552141014E0855
:1003E6004401AF001E2140304401AF001E21080029
:0C03F6003A30FD00FD0BFD29000008005E
:10040200400116114230FD00FD0B052A0000961531
:100412004230FD00FD0B0B2A000016154230FD0094
:08042200FD0B112A0000080087
:10042A0040012230FC00F801F901FA01FB01FC034A
:10043A0003194A2A0310FB0CFA0CF90CF80CF30CFA
:10044A00F20CF10CF00C031C1C2AFC0303193C2AC5
:10045A007408F80775080318750FF9077608031862
:10046A00760FFA0777080318770FFB07202A740814
:10047A00F80775080318750FF90776080318760F39
:0C048A00FA0777080318770FFB0708003B
:1004960040017008F100F0010830FC007108F40C0E
:1004A6000318592AFC0B522AF101003403105E2A64
:1004B600F40C0318F107F10CF00CFC0B5B2A080096
:1004C6003F3043016D0541019E00FB2113140000DE
:1004D600131C6E2A6B2A0C08F0000D08F1000800A8
:1004E60063304301A0000230A100ED30A2000130CC
:1004F600A30041019301940195019601EC309A0500
:10050600133043016D05F000700841019A04C030B4
:1005160043016D05F0000319A62AC0306D05F200EF
:100526000630F1007208F000710803199D2AF036B2
:10053600FF3E982A700852018C008C170C1BA52AC6
:100546000000A12AA92A5201FC308C05410113168C
:06055600131593170800C5
:10055C0040304401A0001F30A100A201A301403093
:10056C00F0001F30F1000030F2000030F3004301C6
:10057C006D08F4006E08F500F601F70115227008FD
:10058C004401A0007108A1007208A2007308A30026
:10059C0000307302031DDC2A00307202031DDC2ABA
:1005AC0002307102031DDC2AB23070020318DF2AFC
:1005BC000E2BB230A0020230A13B0030A23BA33B79
:1005CC000530F00070080319F12AA336A20CA10C17
:1005DC00A00CFF3EE92A2008F0002108F1002208B7
:1005EC00F2002308F3000130A0020030A13BA23B33
:1005FC00A33B700871047204730403190E2B0000E2
:10060C000000000000000000000000000000F12AC3
:02061C000800D4
:0E061E00F201F101F001F801F30100300800D3
:10062C007B15FB1F202B0130F300F201F101F001CF
:08063C00FA0DF20CFF3008007A
:08064400FA1FF2130030080058
:10064C004001FB01FA01F9018030F800F10CF00CCB
:10065C00031C392B7408F90775080318750FFA0772
:10066C000318FB0A0310F01F412B7408FA077508D6
:10067C000318750FFB07FB0CFA0CF90CF80C031C98
:10068C002C2B7B08F3007A08F2007908F10078082B
:04069C00F000080062
:1006A000552141014E084401AF001E214030440154
:1006B000AF001E214301EE016E08073C031C742BA2
:1006C0006E084401A800A901BB214301ED014301CB
:1006D00080306D020318712BED0A4401AF011E2119
:0C06E000672B4301EE0A5C2B012208008E
:1006EC00552141014E084401AF001E214030440108
:1006FC00AF001E2144012008A8002108A900BB213D
:10070C004301ED014401240843016D020318202C20
:10071C006D084401220784000030233D8500000849
:10072C00003A031D9C2B4301EF01A82B43016D08DC
:10073C004401220784000030233D85002030000254
:10074C004301EF00EE016E08043C031C172C6F08EC
:10075C00F0000530F4004B2243016E08F007003026
:10076C00F13D003070078400A030713D8500000819
:10077C004401A5002008023A0319ED2BA519C82B3A
:10078C00A613C92BA617A519CD2B2613CE2B2617CE
:10079C002519D22BA612D32BA6162519D72B261228
:1007AC00D82B2616A518DC2BA611DD2BA615A51803
:1007BC00E12B2611E22B26152518E62BA610E72B8C
:1007CC00A6142518EB2B2610EC2B26140D2C251912
:1007DC00F12BA613F22BA6172519F62B2613F72BA4
:1007EC002617A518FB2BA612FC2BA616A518002C59
:1007FC002612012C26162518052CA611062CA6153A
:10080C0025180A2C26110B2C2615A61026102608A6
:10081C00AF001E2144012608AF001E214301EE0A41
:10082C00A92B4401AF011E214401AF011E2143013C
:10083C00ED0A882B4401200AA8002108A900BB213D
:10084C004301ED014401240843016D020318C82C37
:10085C006D084401220784000030233D8500000808
:10086C00003A031D3C2C4301EF01482C43016D0859
:10087C004401220784000030233D85002030000213
:10088C004301EF00EE016E08043C031CBF2C6F0803
:10089C00F0000530F4004B2243016E08F0070030E5
:1008AC00F13D003070078400A030713D85000008D8
:1008BC004401A5002008023A03198D2CA51B682CB5
:1008CC00A613692CA617A51B6D2C26136E2C2617A8
:1008DC00251B722CA612732CA616251B772C261200
:1008EC00782C2616A51A7C2CA6117D2CA615A51ADB
:1008FC00812C2611822C2615251A862CA610872CC5
:10090C00A614251A8B2C26108C2C2614B52C251BE2
:10091C00912CA613922CA617251B962C2613972CDC
:10092C002617A51A9B2CA6129C2CA616A51AA02C31
:10093C002612A12C2616251AA52CA611A62CA61516
:10094C00251AAA2C2611AB2C2615A519AF2CA610EE
:10095C00B02CA614A519B42C2610B52C26142608D8
:10096C00AF001E2144012608AF001E214301EE0AF0
:10097C00492C4401AF011E214401AF011E2143014A
:08098C00ED0A282C01220800ED
:100994004401A401A5012008A6002108A700803075
:1009A4002106F00080307002031DDA2C0030200292
:1009B4000318E82C0130A4000030A5002008003CF6
:1009C400A6002108031C013EA701A7022608A800CF
:1009D4002708A9002208AA002308AB006F210630CB
:1009E4004301ED000030EE006E08003C031DFC2CBA
:1009F4006D08003C03181D2D6D0844012207860074
:100A040043016E084401233D8700013043016D0218
:100A1400F00000306E3BF1007008440122078400AE
:100A24007108233D85000008810001304301ED0277
:100A34000030EE3BF62C4401220886002308870090
:100A4400203081002408250403194D2D4301ED01B4
:100A5400EE016D0844012207840043016E0844013D
:100A6400233D85000008203A031D3D2D4301ED0A76
:100A74000319EE0A2B2D43010130ED020030EE3B49
:100A84006D0844012207860043016E084401233D9A
:080A940087002D3081000800ED
:100A9C00FB14FB1F582DFF30F300F200F100F000A7
:080AAC00FA0DF20CFF30080006
:100AB40044012008A8002108A900BB214301ED013D
:100AC4004401240843016D020318952D6D08440167
:100AD400220784000030233D8500203000024301BA
:100AE400EF00EE0105306E0203188F2D6F08F00041
:100AF4000530F4004B2243016E08F0070030F13D4D
:100B0400003070078400A030713D85000008440166
:100B1400AF001E214301EE0A742D4401AF011E21D2
:0A0B24004301ED0A622D01220800D2
:100B2E0043016D08F2006E08F3007208F0007308BE
:100B3E00F100F20A0319F30A7008840071088500A7
:100B4E0000080319AB2D9C2D6D087202F0006E0883
:0E0B5E00733BF1000130F0020030F13B080063
:100B6C00552141014E084401AF001E218030440143
:100B7C00AF001E2143016D084401AF001E2101226C
:020B8C0008005F
:100B8E007408F8027508031C750FF9027608031C29
:100B9E00760FFA027708031C770FFB02F30D07306E
:100BAE00FC00730DF80DF90DFA0DFB0D7408731C96
:100BBE00EE2DF8027508031C750FF9027608031C5A
:100BCE00760FFA027708031C770FFB02FB2DF8074E
:100BDE0075080318750FF90776080318760FFA07CC
:100BEE0077080318770FFB07F30DFC0BD82D720D4A
:100BFE00F80DF90DFA0DFB0D7408731C142EF80286
:100C0E007508031C750FF9027608031C760FFA029D
:100C1E007708031C770FFB02212EF80775080318BF
:100C2E00750FF90776080318760FFA077708031879
:100C3E00770FFB07F20D0730FC00720DF80DF90D62
:100C4E00FA0DFB0D7408721C3A2EF8027508031C7F
:100C5E00750FF9027608031C760FFA027708031C4B
:100C6E00770FFB02472EF80775080318750FF90763
:100C7E0076080318760FFA0777080318770FFB0725
:100C8E00F20DFC0B242E710DF80DF90DFA0DFB0D66
:100C9E007408721C602EF8027508031C750FF90299
:100CAE007608031C760FFA027708031C770FFB02F7
:100CBE006D2EF80775080318750FF90776080318D7
:100CCE00760FFA0777080318770FFB07F10D073039
:100CDE00FC00710DF80DF90DFA0DFB0D7408711C69
:100CEE00862EF8027508031C750FF9027608031C90
:100CFE00760FFA027708031C770FFB02932EF80784
:100D0E0075080318750FF90776080318760FFA079A
:100D1E0077080318770FFB07F10DFC0B702E700D83
:100D2E00F80DF90DFA0DFB0D7408711CAC2EF802BE
:100D3E007508031C750FF9027608031C760FFA026C
:100D4E007708031C770FFB02B92EF80775080318F6
:100D5E00750FF90776080318760FFA077708031848
:100D6E00770FFB07F00D0730FC00700DF80DF90D35
:100D7E00FA0DFB0D7408701CD22EF8027508031CB8
:100D8E00750FF9027608031C760FFA027708031C1A
:100D9E00770FFB02DF2EF80775080318750FF9079A
:100DAE0076080318760FFA0777080318770FFB07F4
:100DBE00F00DFC0BBC2E7018F22E7408F807750897
:100DCE000318750FF90776080318760FFA077708D8
:080DDE000318770FFB07080062
:100DE600FB09FA09F909F809F80A0319F90A0319B6
:080DF600FA0A0319FB0A0800C8
:100DFE0043016A18052F40019917072F40019913D7
:100E0E004301EA180D2F400119170F2F4001191336
:100E1E0043016A19152F40019916172F4001991297
:100E2E004301EA191D2F400119161F2F40011912F7
:100E3E0043016A1A252F40019817272F4001981356
:100E4E004301EA1A2D2F400118172F2F40011813B6
:100E5E0043016A1B352F40019816372F4001981217
:100E6E0043016B183D2F400196163F2F40019612FD
:100E7E004301EB18452F40019A14472F40019A1059
:100E8E0043016B194D2F400196174F2F40019613BA
:100E9E004301EB19552F40011617572F400116131A
:100EAE0043016B1A5D2F400118145F2F400118107B
:100EBE004301EB1A652F40019814672F40019810DB
:100ECE0043016B1B6D2F400118156F2F4001181138
:100EDE0043016C18752F40011A10772F40011A1418
:100EEE00991542016B084301ED0042016C08430164
:100EFE00EE00AE22400199111A30FD00FD0B852F38
:100F0E000000181242016B084301ED0042016C080B
:100F1E004301EE00AE224001181642016B08430158
:100F2E00ED0042016C084301EE00AE224001991320
:100F3E0019139912191298131813981296129A10CF
:0E0F4E00961316131810981018111A10080098
:100F5C00003043016B06031DB52F00306A06031DDC
:100F6C00C42F02304401A0003C30A1004A30A20042
:100F7C000130A3000430A4007623E62F43016A0855
:100F8C004401A00043016B084401A100A630A2005B
:100F9C000130A300CA2443012908AE002E30AF0053
:100FAC002A08B0002B08B10002304401A0003C30EC
:100FBC00A100AE30A2000130A3000430A4007623BF
:020FCC0008001B
:040FCE0001220800F4
:060FD200FB15FF300800D2
:100FD8007B14FB1FF72FF201FA1FFF30F200F1001C
:0A0FE800F000FA0DF20CFF300800D3
:080FF2009831FB218031080059
:1010000080315521883141014E084401AF008031C3
:101010001E21883140304401AF0080311E218831CB
:101020004301EB016B08033C031C41286B0844019E
:10103000A8007330A9008031BB2188314301EA0147
:101040006A080A3C031C3F286B08F0000B30F400D0
:1010500080314B22883143016A08F0070030F13DAE
:101060004B30700784009F30713D850000084401BB
:10107000AF0080311E2188314301EA0A2028EB0AA3
:0A1080001228803101228831080097
:10108A00A1017208031D5A287108F2007008F100C4
:10109A00F001A1157208031D5A287108F200F10126
:1010AA00A11121167208031968282108F302031DE9
:1010BA00031C6E280310F21B7428F00DF10DF20DBB
:1010CA00F30B60286E280130FC0080310F23883131
:1010DA0079280230FC0080311623883179280430BF
:0A10EA00FC00803122238831080049
:1010F4007C18B028FC1881287C19D5287A28A101ED
:101104007208031DA1287108F2007008F100780824
:10111400F000F801A1157208031DA1287108F2005E
:101124007008F100F001A11121167208031DA12815
:101134007108F200F101A11572080319C3282108EE
:10114400F302031D031CC9280310F21BB028F80D79
:10115400F00DF10DF20DF30BA728C9287B1B701CB1
:10116400CF28F81FCF28F00A0319F10A0319F20A4D
:10117400031DCF28F20CF10CF00CF30A0319D52847
:10118400CF280130FC0080310F238831DA28023067
:10119400FC00803116238831DA280430FC008031C9
:1011A40022238831DA280830FC0080314E2588312A
:0411B400000008002F
:1011B8004001971180315023883101304401A0004B
:1011C800A1015C30A2000030A3001230A4008031DD
:1011D8005A25883103304401A000A1013930A2000A
:1011E8000030A3000C30A40080315A2588314C30DF
:1011F8004301ED000030EE008031972588317008FA
:101208004401A4000330A0005430A1004630A200DD
:101218000030A30080315A2588317A30FB00C13074
:10122800FC008130FD00FD0B1729FC0B1729FB0B77
:101238001729000000008D1A2329031424290310FC
:0C124800031C282900001F29971508002E
:101254004301EA010A306A020318532980315521F7
:10126400883141014E084401AF0080311E2188318C
:101274007008003A031D3F29532980310122883127
:101284000D30FB002D30FC00D730FD00FD0B48294C
:10129400FC0B4829FB0B4829000000004301EA0A23
:1012A4002C294401AF0180311E218831AE30440124
:1012B400AF0080311E218831D5304401AF00803128
:1012C4001E21883180304401AF0080311E218831D5
:1012D400A8304401AF0080311E2188313F304401E1
:1012E400AF0080311E218831D3304401AF008031FA
:1012F4001E218831410150084401AF0080311E2174
:10130400883140304401AF0080311E2188318D3056
:101314004401AF0080311E21883114304401AF00F4
:1013240080311E21883181304401AF0080311E217B
:101334008831FF304401AF0080311E218831D9301B
:101344004401AF0080311E218831F1304401AF00E7
:1013540080311E21883120304401AF0080311E21AC
:10136400883102304401AF0080311E2188312130A0
:101374004401AF0080311E2188314401AF01803126
:101384001E2188317F304401AF0080311E21883115
:101394002E304401AF0080311E21883141015108B3
:1013A4000319E129A0304401AF0080311E218831A6
:1013B400C0304401AF0080311E218831ED29A130B5
:1013C4004401AF0080311E218831C8304401AF0090
:1013D40080311E218831DA304401AF0080311E2172
:1013E400883102304401AF0080311E218831DB3066
:1013F4004401AF0080311E21883140304401AF00E8
:1014040080311E218831A4304401AF0080311E2177
:101414008831A6304401AF0080311E2188318031EB
:1014240001228831803150238831AF304301ED00EF
:081434008031B6258831080063
:10143C0043304301ED008031732288310230FC00CF
:10144C000830FD00FD0B282AFC0B282A000009306F
:10145C004301ED008031632288310B30F400003001
:10146C00F50080312623883170084201E9007108AB
:04147C00EA0008007A
:10148000400172087606A100F801F901730877029D
:10149000031C622A7708FD007308F7007D08F3003B
:1014A0007608FD007208F6007D08F2007508FD0060
:1014B0007108F5007D08F1007408FD007008F40063
:1014C0007D08F00077080319DD2A7208FA00F21788
:1014D000F61777087302F7000319952A0830770288
:1014E000031C8B2AF7007408F9007508F4007608CD
:1014F000F500F60108307702031C8B2AF700740808
:10150000F9007508F400F50108307702031C8B2AF6
:101510007A08F200DD2A77080319952A0310F60CE1
:10152000F50CF40CF90CF70B8E2AA11FA22AF9096D
:10153000F409F509F609F90A0319F40A0319F50A79
:101540000319F60A7908F80774080318740FF007EE
:1015500075080318750FF10776080318760FF20760
:10156000A11BBB2A031CCB2AF20CF10CF00CF80CCB
:10157000F30FCB2AD72A0318CF2AF809F009F1096B
:10158000F209F80A0319F00A0319F10A0319F20A19
:101590008030FA06D32A0130FC007A20DF2A02309C
:1015A000FC007A20DF2A0430FC004520DF2A0830C6
:1015B000FC0080314E258831DF2A0030FC0000001D
:0215C000080021
:1015C2004101A1010130A0004001EF014301EA0104
:0E15D2000130EB00EC018031FF26883108006B
:1015E000400116160930FB001E30FC00E430FD00FF
:1015F000FD0BF82AFC0BF82AFB0BF82A00008031BF
:10160000E72788316830FC00E430FD00FD0B062B35
:10161000FC0B062B00002A214201681C152BDC2044
:10162000420168108031502388314401A001A1019A
:101630002530A2000030A3000930A40080317623B9
:101640008831002002304401A000A1012F30A20007
:101650000030A3000930A400803176238831440192
:10166000A0012A30A1005630A2000030A3000130B2
:10167000A40080317623883102304401A0002A3052
:10168000A1005830A2000030A3000130A400803136
:10169000762388310F30DA002730DB0064304201D6
:1016A000DF000030E0000F304001D4002730D500CB
:1016B000D201D3014301EA01EB018031AE27883129
:1016C000013042013D07C20000303E3DC300003002
:1016D0003F3DC4000030403DC5003D08C6003E0807
:1016E000C7003F08C8004008C9006813E810681127
:1016F000E8126812E0304101DA009330DB00043078
:10170000DC000030DD00DE01DF01E001E101080066
:101710004001FB0173080319C42B7208FA00F21789
:101720008E30F302F31FC72BF309F30A083073025C
:10173000031CAA2BF300F10D7208F100F20108302E
:101740007302031CAA2BF300F10DF1017308031DB2
:101750000310B22B73080319B22B0310F20CF10C17
:10176000F30BAD2B7B1B711CBC2B031CBC2BF10A98
:101770000319F20AF21BD32BFA1FD62BF209F10937
:10178000F10A0319F20AD62BF201F101D62B7B14D0
:10179000FB1FD92BF201FA1FD92BFF30F200F10009
:1017A000FA0DF20CD92B0130FC00DB2B0030FC00D1
:1017B000DB2BFF30FC00FC080319E12B8031EC2708
:0C17C00088317108F0007208F100080088
:1017CC0043016808F1006908F200F135F20D710867
:1017DC00E8007208E9008030023AF00080307206AE
:1017EC007002031DFB2B71081F3C031C022C0030E4
:1017FC00E8070130E93D6C2C8030033AF000803072
:10180C0069067002031D0C2C6808173C031C132C72
:10181C001230E8070130E93D6C2C8030043AF000BE
:10182C00803069067002031D1D2C6808C93C031C1E
:10183C00242C2030E8070130E93D6C2C8030073A2D
:10184C00F000803069067002031D2E2C6808C73C1E
:10185C00031C352C1E30E8070130E93D6C2C803020
:10186C000A3AF000803069067002031D3F2C6808AC
:10187C00CE3C031C462C2030E8070130E93D6C2C93
:10188C0080300F3AF000803069067002031D502C36
:10189C006808823C031C572C0430E8070130E93DF2
:1018AC006C2C8030133AF000803069067002031DF6
:1018BC00612C6808EC3C031C682CFA30E8070030FB
:1018CC00E93D6C2CF030E8070030E93D6808F00089
:0618DC006908F10008009C
:1018E20043304301ED008031732288310230FC0025
:1018F2000830FD00FD0B7B2CFC0B7B2C00000A301A
:101902004301ED0080316322883170084301E80011
:101912007108E9007108033A031D912CFF3070062B
:10192200031DAE2C8330ED008031732288310230EA
:10193200FC000830FD00FD0B9C2CFC0B9C2C0000D5
:101942000A304301ED00803163228831700843017F
:10195200E8007108E900E835E90D6908073A031D56
:10196200B42CFE306806031D052DED018031732273
:1019720088310230FC000830FD00FD0BBE2CFC0B50
:10198200BE2C00000A304301ED0080316322883111
:1019920070084301E8007108E9007108033A031D69
:1019A200D42CFF307006031DD82C4201E8151E22EC
:1019B20043016808F4006908F500F601F7014201E5
:1019C2006908F0006A08F1000030F11BFF30F200F4
:1019D200F3008031152288310A30F8007008F400D3
:1019E2007108F5007208F6007308F7007808031909
:1019F200002DF736F60CF50CF40CFF3EF82C7408AB
:101A02004301E8007508E9006808F0006908F10080
:021A12000800CA
:101A140043304301ED008031732288310230FC00F1
:101A24000830FD00FD0B142DFC0B142D00000830B4
:101A34004301ED0080316322883170084301E800DE
:101A44007108E9007108033A031D2A2DFF3070065E
:101A5400031D472D8330ED0080317322883102301D
:101A6400FC000830FD00FD0B352DFC0B352D00006E
:101A740008304301ED00803163228831700843014E
:101A8400E8007108E900E835E90D6908073A031D23
:101A94004D2DFE306806031D9E2DED01803173220D
:101AA40088310230FC000830FD00FD0B572DFC0B83
:101AB400572D000008304301ED0080316322883146
:101AC40070084301E8007108E9007108033A031D36
:101AD4006D2DFF307006031D712D4201E8151E2285
:101AE40043016808F4006908F500F601F7014201B2
:101AF4006908F0006A08F1000030F11BFF30F200C1
:101B0400F3008031152288310A30F8007008F4009F
:101B14007108F5007208F6007308F70078080319D5
:101B2400992DF736F60CF50CF40CFF3E912D740844
:101B34004301E8007508E9006808F0006908F1004D
:021B4400080097
:101B46007408003A031DBC2D7508003A031DBC2D10
:101B56007608003A031DBC2D7708003A031DBC2DFC
:101B6600FF30F000FF30F100FF30F2007F30F3006D
:101B7600582E4001FC01F71BFC0AFD01FB01FA018E
:101B8600F901F80173087204710470040319512EE7
:101B960073087706A000A01BFD09F71FDD2DF409C9
:101BA600F509F609F709F40A0319F50A0319F60AFD
:101BB6000319F70AF31FEA2DF009F109F209F309EF
:101BC600F00A0319F10A0319F20A0319F30A730852
:101BD6007704A000A01B0D2E8031C7258831FC1B81
:101BE6002A2EFD1F512EF009F109F209F309F00A18
:101BF6000319F10A0319F20A0319F30AF809F90994
:101C0600FA09FB09F80A0319F90A0319FA0A03196A
:101C1600FB0A512EF71F242EF31B1E2E7308FB0002
:101C26007208FA007108F9007008F800F301F20171
:101C3600F101F001F42DF301F201F101F001F00AD6
:101C46000034F309F209F109F009FC17EF2DF80A3F
:101C56000319F90A0319FA0A0319FB0A7408780228
:101C6600031DF42D75087902031DF42D76087A02FA
:101C7600031DF42D77087B02031DF42DFB01FA01E9
:101C8600F901F801F00A0319F10A0319F20A031916
:101C9600F30AF31FF42DA0012016FF34A0017C1CCB
:0C1CA600572E8031F3268831003E0800E4
:101CB2007408003A031D722E7508003A031D722E35
:101CC2007608003A031D722E7708003A031D722E21
:101CD200FF30F000FF30F1007F30F200FF30F30000
:101CE200142F400177080319002F73080319052FD9
:101CF200720876068039FA00F217F617A101720807
:101D0200F8007108FC007008FD007408FD027508F7
:101D1200031C750FFC027608031C760FF802F8010B
:101D2200FC01FD01031C9C2E0310F20CF10CF00CC3
:101D3200F80C0130A1007708F302031CA62E7E30B6
:101D42002107F30703180A2FAB2E7E302107F30772
:101D5200031C0F2F1830FA07FD0DFC0DF80DF00DC6
:101D6200F10DF20DA10D7408F0027508031C750F38
:101D7200F1027608031C760FF202760DA104211CF3
:101D8200C42E7D14CF2E7408F00775080318750F42
:101D9200F10776080318760AF2077D10FA031F305E
:101DA2007A05031DAD2E7B1B7D1CF62E0310F00D54
:101DB200F10DF20DA10D7408F0027508031C750FE8
:101DC200F1027608031C760FF202760D2104013926
:101DD200FD070318FC0A0319F80A031DF62EF80C76
:101DE200FC0CFD0CF30A03190A2FFA1FF8137808EA
:101DF200F2007C08F1007D08F0000030132F013062
:101E02008031E9278831132F023080310F23883146
:101E1200132F043080314E258831132F0830803142
:081E22001623883100000800BE
:101E2A004001FB017308031D770803196B2F720821
:101E3A007606FA007708F3077E30031C282FF30290
:101E4A000318702F2B2FF302031C752F7208F8004A
:101E5A007108FC007008FD00F817F6170310F2016C
:101E6A00F101F0011830A1007D1C452F7408F0071C
:101E7A0075080318750FF10776080318760FF2072D
:101E8A00F20CF10CF00CF80CFC0CFD0C0310A10B7D
:101E9A00392FF21B552FF80DF00DF10DF20DF3034A
:101EAA007B1B701C672FF81F672FF00A0319F10AB2
:101EBA000319F20A031D672FF20CF10CF00CF30A56
:101ECA000319702FFA1FF2130030792F0130803175
:101EDA000F238831792F023080314E258831792FAE
:0C1EEA000430803116238831000008000D
:101EF60040017008F8007108F000F101F201F301E9
:101F0600FB01FC019630F300FA01F01F902FF8094F
:101F1600F009F80A0319F00AFA177008F1007808B0
:0A1F2600F000F801F2014520080068
:101F3000710DF80DF90D7408F8027508031C750F82
:101F4000F902F00DF10D0F30FC00710DF80DF90DD7
:101F50007408701CB12FF8027508031C750FF90284
:101F6000B62FF80775080318750FF907F00DF10D76
:101F7000FC0BA52F7018C22F7408F80775080318FA
:081F8000750FF90700000800CD
:101F88004001F8010830FC00700DF80D7408F802E3
:101F98000318D02FF8070310F00DFC0BC82F08000A
:101FA800410121082002031CE02F90315F23883172
:101FB8009031EE248831E62F9031EE24883190312B
:061FC8005F2388310800D0
:101FCE0063304301A0000230A100ED30A2000130C9
:101FDE00A30041019301940195019601EC309A05FD
:081FEE001316131593170800E8
:10200000400197118831E122903102304401A00053
:10201000A1015530A2000130A3000930A400803195
:10202000762390311930FB005A30FC00B130FD00AE
:10203000FD0B1828FC0B1828FB0B182800000000CB
:1020400002304401A000A1014F30A2000130A300E2
:102050000530A40080317623903102304401A00085
:102060002A30A1006130A2000130A3000130A40099
:1020700080317623903102304401A0003C30A10031
:102080006330A2000130A3000430A4008031762325
:10209000903164304201DF000030E0000D30FB0081
:1020A0002D30FC00D730FD00FD0B5428FC0B5428CC
:1020B000FB0B5428000000004001971542016813F3
:1020C000E812C1013D08C2003E08C3003F08C40039
:1020D0004008C5003D08C6003E08C7003F08C800CC
:0620E0004008C9000800E1
:1020E600003043016106031D7A2800306006031D97
:1020F6008A284401A0013C30A100D430A20000305F
:10210600A3000330A400803176239031F1280030FB
:1021160043016102031D91280A3060020318A928B1
:1021260060084401A000430161084401A100A630F3
:10213600A2000130A3008031CA249031303043011F
:10214600AE002E30AF002B08B000E428003061024C
:10215600031DAF28643060020318C72860084401D5
:10216600A000430161084401A100A630A20001308D
:10217600A3008031CA24903143012A08AE002E30D4
:10218600AF002B08B000E42805306007F0000030EF
:10219600613DF1007008E0007108E100700844013B
:1021A600A0007108A100A630A2000130A300803172
:1021B600CA24903120304301AE002908AF002A0816
:1021C600B0004401A0013C30A100AE30A2000130B5
:0E21D600A3000330A40080317623903108006E
:1021E40088310A2590317008E0007108E100003060
:1021F400E11BFF30E200E300883171249031700864
:10220400E4007108E5000030E51BFF30E600E7005C
:102214006008E8006108E9008831E62390318831DC
:102224007B2790310030F4000030F5002030F600B8
:102234008130F7008831152790310030F4000030E8
:10224400F5007A30F6008830F7008831592690314D
:10225400F430F400FD30F5003430F6007F30F70040
:102264008831592690317008F4007108F50072081D
:10227400F6007308F7008831152790310030F40018
:102284000030F5002030F6008130F70088315926FF
:1022940090310030F4000030F5000030F6007E305C
:1022A400F7008831402290318831882390317008BA
:1022B4004201ED007108EE008030F20080307106BA
:1022C4007202031D67297008003C03187D29400130
:1022D400161E7A29E0304101DA009330DB00043025
:1022E400DC000030DD00DE01DF01E001E1017D29D9
:1022F4008831F0229031803043016706F00080304D
:1023040063067002031D902962086602031D90296A
:1023140061086502031D902960086402031C992961
:10232400E730E0000330E100E201E301E32964085F
:102334006007F0006508613DF1006608623DF20047
:102344006708633DF3006430F400F501F601F7011A
:1023540080311522903143016008F4006108F500D2
:102364006208F6006308F7006408F4026508F53BA8
:102374006608F63B6708F73B8831A325903170085F
:102384004301E0007108E1007208E2007308E30011
:102394008030F400803073067402031DDB29720858
:1023A400003C031DDB297108033C031DDB29700875
:1023B400E73C0318E329E730E0000330E100E201E1
:0C23C400E3016008A4006108A500080007
:1023D0007408003A031DF5297508003A031DF52914
:1023E000FF30F0007F30F1004F2A4001FD01F9017C
:1023F000F801710870040319003471087506FA00B9
:10240000FA1BFD09FB01F51F0A2AF409F509F40A74
:102410000319F50AF11F112AF009F109F00A03194D
:10242000F10A71087504FA00FA1B262A88319827E8
:1024300090317B183B2AFD1F0034F009F109F00AA6
:102440000319F10AF809F909F80A0319F90A00341D
:10245000F51F372AF11B332A7108F9007008F800BC
:10246000F101F0011B2AF101F001F00A0034F10939
:10247000F009FB0A182AF80A0319F90A7408780205
:10248000031D1B2A75087902031D1B2AF901F80197
:10249000F00A0319F10AF11F1B2A0000FF3408009B
:1024A0002C304301DA000130DB002C30DC0001303D
:1024B000DD00DE01DF01F220803042016E06F00017
:1024C0008030410159067002031D692A58084201F3
:1024D0006D02031C7B2A803041016F06F0008030C2
:1024E00042016E067002031D782A6D0841016E02DA
:1024F000031C7B2AE52A4201681F832A002043012E
:10250000A401A501E52A4201681D8A2A4301A4010C
:10251000A501E52AF2205B08003C031D912A5A0818
:10252000003C0318AC2A0130DA020030DB3B4201E8
:102530006E0843015F02031DA12A42016D08430199
:102540005E020318AB2A42016D084301DE0042011E
:102550006E084301DF00E42A5F0840015506031DB1
:10256000B42A540843015E060319BC2A43015E08DD
:10257000E0005F08E100732043015E084001D400E1
:1025800043015F084001D5004301DE01DF012C302B
:10259000DA000130DB005D08003C031DD12A5C0835
:1025A000003C0318D82A0130DC020030DD3BDB2A76
:1025B000A401A501E52A0B30FC006230FD00FD0BF3
:0C25C000DF2AFC0BDF2A00005C2A080068
:1025CC004301D80150220A30F4000030F5004301D9
:1025DC002408F0002508F100E82170084301D6001A
:1025EC007108D70001304101A100403021020318CD
:1025FC00402B21084301EA00410121084301EB0073
:10260C0040016F084301EC008031FF2690313430DB
:10261C00FC00F130FD00FD0B112BFC0B112B00000D
:10262C00000050220A30F4000030F5004301240869
:10263C00F0002508F100E82170084301A40071089E
:10264C00A50080305706F200803071067202031D1F
:10265C00312B70085602031C3C2B4101210843010D
:10266C00D8002408D6002508D7003D2B402B41016B
:10267C00A135FB2A430158084101A1004301580828
:10268C004101A00043015808EA005808EB00400142
:10269C006F084301EC008031FF2690313430FC0090
:1026AC00F130FD00FD0B582BFC0B582B00000000EB
:0226BC00080014
:1026BE00410120084301D9000A30F40041012008ED
:1026CE00F0008831C427903170084301D80070089B
:1026DE00003A031D742B0130D80050224301240808
:1026EE00D6002508D700580841012007F0007008D1
:1026FE00A00021084301EA007008EB0040016F08BA
:10270E004301EC008031FF2690313430FC00F13073
:10271E00FD00FD0B902BFC0B902B000000005022B7
:10272E00803043015706F000803025067002031DED
:10273E00A22B24085602031C092C2408D6002508B7
:10274E00D700410120084301D90058084101A007D4
:10275E00430158087F3CF100F2010030F23B80301B
:10276E007206F00080307002031DC02B410120085C
:10277E007102031C082C410121084301EA004101AA
:10278E0020084301EB0040016F084301EC0080314B
:10279E00FF2690313430FC00F130FD00FD0BD52BBF
:1027AE00FC0BD52B00000000502280304301570651
:1027BE00F000803025067002031DE72B2408560218
:1027CE00031C032C410120084301D9002408D60024
:1027DE002508D7000A30F40041012008F0008831A6
:1027EE00C427903170084301D8007008003A031DC9
:1027FE00022C0130D800042C082C58084101A007E7
:10280E00AF2B5C2C43012408D6002508D7005808AE
:10281E004101A0024301580841012002031C5C2C17
:10282E0021084301EA00410120084301EB00400169
:10283E006F084301EC008031FF2690313430FC00EC
:10284E00F130FD00FD0B292CFC0B292C00000000A3
:10285E005022803043015706F0008030250670026A
:10286E00031D3B2C24085602031C572C4101200843
:10287E004301D9002408D6002508D7000A30F400F9
:10288E0041012008F0008831C427903170084301BF
:10289E00D8007008003A031D562C0130D800582C71
:1028AE005C2C58084101A002112C4301590841012A
:1028BE00A00021084301EA005908EB0040016F080F
:1028CE004301EC008031FF2690313430FC00F130B2
:1028DE00FD00FD0B702CFC0B702C0000000008009E
:1028EE004301D80150220A30F4000030F5004301B4
:1028FE002408F0002508F100E82170084301D600F5
:10290E007108D70001304101A100403021020318A7
:10291E00D12C21084301EA00410120084301EB00BC
:10292E0040016F084301EC008031FF2690313430B6
:10293E00FC00F130FD00FD0BA22CFC0BA22C0000C4
:10294E00000050220A30F4000030F5004301240844
:10295E00F0002508F100E82170084301A400710879
:10296E00A50080305706F200803071067202031DFA
:10297E00C22C70085602031CCD2C410121084301C4
:10298E00D8002408D6002508D700CE2CD12C410122
:10299E00A1358C2C430158084101A1004301580870
:1029AE00EA00410120084301EB0040016F0843019A
:1029BE00EC008031FF2690313430FC00F130FD0008
:0E29CE00FD0BE72CFC0BE72C000000000800BE
:1029DC00410121084301D9000A30F40041012108CA
:1029EC00F0008831C427903170084301D80070087A
:1029FC00003A031D032D0130D80050224301240856
:102A0C00D6002508D700580841012107F0007008AE
:102A1C00A10070084301EA00410120084301EB00CA
:102A2C0040016F084301EC008031FF2690313430B7
:102A3C00FC00F130FD00FD0B212DFC0B212D0000C5
:102A4C0000005022803043015706F00080302506EC
:102A5C007002031D332D24085602031C9A2D2408E2
:102A6C00D6002508D700410121084301D900580898
:102A7C004101A107430158087F3CF100F2010030ED
:102A8C00F23B80307206F00080307002031D512D35
:102A9C00410121087102031C992D410121084301B8
:102AAC00EA00410120084301EB0040016F0843019B
:102ABC00EC008031FF2690313430FC00F130FD0009
:102ACC00FD0B662DFC0B662D0000000050228030A3
:102ADC0043015706F000803025067002031D782D47
:102AEC0024085602031C942D410121084301D900EE
:102AFC002408D6002508D7000A30F400410121082B
:102B0C00F0008831C427903170084301D800700858
:102B1C00003A031D932D0130D800952D992D58089E
:102B2C004101A107402DED2D43012408D6002508B5
:102B3C00D70058084101A102430158084101210264
:102B4C00031CED2D21084301EA004101200843013B
:102B5C00EB0040016F084301EC008031FF269031FF
:102B6C003430FC00F130FD00FD0BBA2DFC0BBA2DFE
:102B7C00000000005022803043015706F0008030E6
:102B8C0025067002031DCC2D24085602031CE82DCB
:102B9C00410121084301D9002408D6002508D7009B
:102BAC000A30F40041012108F0008831C42790312B
:102BBC0070084301D8007008003A031DE72D01305E
:102BCC00D800E92DED2D58084101A102A22D430199
:102BDC0059084101A10043015908EA0041012008AC
:102BEC004301EB0040016F084301EC008031FF26EC
:102BFC0090313430FC00F130FD00FD0B032EFC0B4A
:082C0C00032E00000000080087
:102C14004301D80150220A30F4000030F50043018A
:102C24002408F0002508F100E82170084301D600CB
:102C34007108D70001304101A00040302002031880
:102C4400642E21084301EA00410120084301EB00FE
:102C540040016F084301EC008031FF26903134308D
:102C6400FC00F130FD00FD0B352EFC0B352E000071
:102C7400000050220A30F4000030F500430124081B
:102C8400F0002508F100E82170084301A400710850
:102C9400A50080305706F200803071067202031DD1
:102CA400552E70085602031C602E41012008430172
:102CB400D8002408D6002508D700612E642E4101CF
:102CC400A0351F2E430158084101A00021084301EB
:102CD400EA005808EB0040016F084301EC00803122
:102CE400FF2690313430FC00F130FD00FD0B782ECE
:0A2CF400FC0B782E00000000080021
:102CFE0010304301D0002730D1001030D2002730E1
:102D0E00D3001030D4002730D5000A267724502265
:102D1E008030F0008030430125067002031D992E8D
:102D2E002408783C031C9C2EA72F2408D0002508CD
:102D3E00D100410121084301CA004101200843018D
:102D4E00CB0041012008023C0130031C0030F10091
:102D5E002108023C0130031C0030F0007108F00520
:102D6E000319EB2EA001A1014301EA01EB01400181
:102D7E006F084301EC008031FF2690313430FC00A7
:102D8E00F130FD00FD0BC92EFC0BC92E000000001A
:102D9E0077240A2650228030F00080304301250629
:102DAE007002031DDC2E2408783C031CDF2EA72F97
:102DBE002408D2002508D300410121084301CC008C
:102DCE00410120084301CD0041012008023C0130A1
:102DDE00031C0030F1002108023C0130031C0030BE
:102DEE00F0007108F00503192D2FA001A101430178
:102DFE00EA01EB0140016F084301EC008031FF2630
:102E0E0090313430FC00F130FD00FD0B0C2FFC0B2B
:102E1E000C2F00000000E62250228030F00080309F
:102E2E00430125067002031D1E2F2408783C031C47
:102E3E00212FA72F2408D4002508D50041012108F1
:102E4E004301CE00410120084301CF0043018030F1
:102E5E005306F100803051067102031D382F5008C1
:102E6E0052020130031C0030F10080305506F00094
:102E7E00803051067002031D462F50085402013057
:102E8E00031C0030F0007108F0050319562F4B0893
:102E9E004101A00043014A084101A100A72F803043
:102EAE0043015106F100803053067102031D612F5C
:102EBE00520850020130031C0030F10080305506DC
:102ECE00F000803053067002031D6F2F520854021B
:102EDE000130031C0030F0007108F00503197F2F3C
:102EEE004D084101A00043014C084101A100A72F4C
:102EFE00803043015106F100803055067102031DEA
:102F0E008A2F540850020130031C0030F10080302B
:102F1E005306F000803055067002031D982F54089A
:102F2E0052020130031C0030F0007108F005031945
:102F3E00A72F4F084101A00043014E084101A100F7
:022F4E00080079
:102F50004101A001A1014301EA01EB0140016F0819
:102F60004301EC008031FF2690310330FB00083034
:102F7000FC007730FD00FD0BBB2FFC0BBB2FFB0BC8
:102F8000BB2F50228030F0008030430125067002B4
:102F9000031DCC2F2408783C031CCF2FE12F7F2664
:102FA00050228030F0008030430125067002031D5E
:102FB000DB2F2408783C031CDE2FE12F8831D42737
:042FC0009031080044
:102FC40012001E00F003031DE22FF103031DE22F84
:022FD4000800F3
:103000009031A82798319031502298318030F000CB
:103010008030430125067002031D10282408783CE7
:10302000031C132878282408C6002508C70041017E
:1030300020084301C800410121084301C9004001A3
:103040006F08013A031D2628EF0128280130EF0000
:103050009031A82798319031502298318030430127
:103060004706F000803025067002031D3928240829
:1030700046020318652840016F08013A031D4228E3
:10308000EF0144280130EF00430148084101A0004E
:10309000430149084101A10043014908EA004808E9
:1030A000EB0040016F084301EC008031FF269831AE
:1030B0003430FC00F130FD00FD0B5C28FC0B5C287B
:1030C000000000009031502298318030F0008030B4
:1030D000430125067002031D6F282408783C031C59
:1030E000722878288831D42798319031502298312D
:0230F0000800D6
:1030F20080315521983141014E084401AF008031A1
:103102001E21983140304401AF0080311E21983198
:103112000A30F4000030F50043013D08F0003E089B
:10312200F1009031E821983170084301BD00710827
:10313200BE0080307106F2008030013A7202031D37
:10314200A4282C3070020318AB282C30BD000130AB
:10315200BE00BB288030013AF00080303E0670028B
:10316200031DB5283D08A43C0318BB28A430BD00AC
:103172000130BE002C303D02F30001303E3BF40032
:103182007308BD007408BE000530F2007308F00039
:103192007408F10072080319D228F035F10DFF3ED0
:1031A200CC287008BD007108BE007830F4000030F1
:1031B200F5009031E821983170084301C0001930C0
:1031C2007002031CEE2818304002C1000830C20011
:1031D2000830C3000830C4000C2911304002031C1F
:1031E200FB28C10110304002C2000830C300083081
:1031F200C4000C2909304002031C0729C101C20185
:1032020008304002C3000830C4000C29C101C201C9
:10321200C3014008C4008030C50001304102F00003
:10322200F1010030F13B7008F1004508F00071082F
:1032320003191E29F036FF3E19297008FF3CC5000C
:10324200C50A0330C5044401A8017730A9008031C2
:10325200BB219831430145084401AF0080311E2152
:103262009831430145084401AF0080311E21983155
:10327200430145084401AF0080311E2198311F30BF
:103282004301C5044401A8017530A9008031BB2166
:103292009831430145084401AF0080311E21983125
:1032A200430145084401AF0080311E219831440199
:1032B200A8017A30A9008031BB2198314301450829
:1032C2004401AF0080311E21983143014508440179
:1032D200AF0080311E21983180304301C50001309A
:1032E2004202F000F1010030F13B7008F1004508A4
:1032F200F000710803198029F036FF3E7B2970081F
:10330200FF3CC500C50A01304401A8007530A90080
:103312008031BB2198314301BF013F08063C031CA9
:103322009B2945084401AF0080311E219831430199
:10333200BF0A8E298030C50001304302F000F1013E
:103342000030F13B7008F1004508F00071080319E4
:10335200AD29F036FF3EA8297008FF3CC500C50A1A
:1033620002304401A8007530A9008031BB21983198
:103372004301BF013F08063C031CC829450844011C
:10338200AF0080311E2198314301BF0ABB29803032
:10339200C50001304402F000F1010030F13B700839
:1033A200F1004508F00071080319DA29F036FF3EF2
:1033B200D5297008FF3CC500C50AC030C5040330DA
:1033C2004401A8007530A9008031BB219831430126
:1033D200BF013F08063C031CF72945084401AF0022
:1033E20080311E2198314301BF0AEA29803101222E
:0433F2009831080006
:1033F6008B1340019E134E018C1216167E01CA12C3
:10340600C9164001161A242A16160930FB001E306A
:10341600FC00E430FD00FD0B0E2AFC0B0E2AFB0B14
:103426000E2A00008031E72798316830FC00E4302E
:10343600FD00FD0B1C2AFC0B1C2A000088312A21EA
:10344600983180315023983101304401A000A10108
:10345600E230A2000030A3000B30A40080317623B6
:1034660098315230FB002B30FC000030FD00FD0B84
:103476003A2AFC0B3A2AFB0B3A2A000016121716B8
:1034860097154301BD013D08003A031D592A053031
:10349600FB000F30FC00F130FD00FD0B502AFC0B49
:1034A600502AFB0B502A7E01CA1263000000053029
:1034B600FB000F30FC00F130FD00FD0B602AFC0B19
:1034C600602AFB0B602A40018D1A6B2A03146C2AB2
:1034D6000310031C712A4301BD0A732A4301BD016F
:1034E6003D080F3C0318782A792A462A4E011612FF
:1034F6007E01C912CA1240019E178B174201681439
:103506008831F022983140018D1A8B2A03148C2AB7
:103516000310031C902A0000862A4201C1013D08BF
:063526004301BD00080096
:10352C004001971102304401A000A1012030A200FB
:10353C000130A3000930A400803176239831191191
:10354C009031502298318030F000803043012506B4
:10355C007002031DB32A2408633C0318EB2A0020D5
:10356C00430124084001D200430125084001D30047
:10357C00430124084201DF00430125084201E00019
:10358C0002304401A000A1012A30A2000130A300A6
:10359C000430A40080317623983102304401A0001D
:1035AC002A30A100D230A2000030A3000130A400C8
:1035BC0080317623983152084301EA0040015308C8
:1035CC004301EB008031AE27983140011915971556
:1035DC004201E8106812C1013D08C2003E08C30058
:1035EC003F08C4004008C5003D08C6003E08C7009F
:0A35FC003F08C8004008C90008009D
:1036060040019711161619119031502298318030C9
:10361600F0008030430125067002031D142B240898
:10362600633C0318172B0020400119154301240899
:103636004001D200430125084001D30097154201FD
:0436460068120800FE
:10364A006430410142024301B70000304101433B6B
:10365A004301B8000330FB000830FC007730FD005E
:10366A00FD0B352BFC0B352BFB0B352B5830B600DD
:10367A00B901BA01BB01BC014201EF01430136089D
:10368A0042016F020318722B9031F2209831803078
:10369A003A06F000803042016E067002031D582B74
:1036AA006D08430139020318662B42016D08430174
:1036BA00B90042016E084301BA002408BB0025087C
:1036CA00BC000B30FC006230FD00FD0B6A2BFC0BCA
:1036DA006A2B00004201EF0A432B8030F000803051
:1036EA0043013A067002031D7C2B3908003C03187B
:1036FA00922B4001161E8F2BE0304101DA009330E5
:10370A00DB000430DC000030DD00DE01DF01E00117
:10371A00E101922B8831F022983143013A084001A5
:10372A005506031D9B2B5408430139060319CB2B5D
:10373A004201E81DAE2B4401A0012A30A100C43089
:10374A00A2000030A3000130A40080317623983112
:10375A00BB2B4401A0012A30A100C630A2000030D0
:10376A00A3000130A400803176239831430139083F
:10377A004001D40043013A084001D5004301390809
:10378A00E0003A08E1009031732098318030F0006F
:10379A00803043013C067002031DD52B3B08633C75
:1037AA0003180E2C3C0840015306031DDF2B520858
:1037BA0043013B0603190E2C43013B084001D2008A
:1037CA0043013C084001D300803043013A06F0002F
:1037DA0080307002031DF32B0A3039020318032CC0
:1037EA00BB01BC01400152084301EA0040015308F1
:1037FA004301EB008031AE279831DC2C400152089E
:10380A004301EA00400153084301EB008031AE272F
:10381A0098314201E81D832C03304301B600360873
:10382A00003A0319502C02304401A0000630A100CE
:10383A00B830A2000030A3000930A40080317623FA
:10384A0098311530FB004B30FC00BE30FD00FD0BFB
:10385A002C2CFC0B2C2CFB0B2C2C000002304401D2
:10386A00A000A101A230A2000030A3000930A400E8
:10387A008031762398311530FB004B30FC00BE3086
:10388A00FD00FD0B462CFC0B462CFB0B462C0000C6
:10389A004301B603142C02304401A000A101AC304C
:1038AA00A2000030A3000930A400803176239831A9
:1038BA0002304401A0002A30A100B630A200003034
:1038CA00A3000130A40080317623983143013B08DC
:1038DA00EA003C08EB008031AE2798311530FB0036
:1038EA004B30FC00BE30FD00FD0B792CFC0B792C13
:1038FA00FB0B792C00004201E811DC2C80304301DB
:10390A003A06F0008030410159067002031D902CDE
:10391A00580843013902031CDC2C430180303A0663
:10392A00F000803041016F067002031D9F2C6E0863
:10393A00430139020318DC2C43018030F000803047
:10394A003C067002031DAB2C3B08633C0318DC2CBD
:10395A0042015F0843013B02F10042016008430152
:10396A003C3BF20080303806F0008030720670026C
:10397A00031DC12C71083702031CDA2C3B084201D3
:10398A005F02F10043013C084201603BF2008030D3
:10399A0043013806F000803072067002031DD72CEE
:1039AA0071083702031CDA2CDC2C9622DC2C080066
:1039BA0088311E2298316A0840015B06031DE82CF3
:1039CA005A08420169060319132D42016908400188
:1039DA00DA0042016A084001DB004201690843013A
:1039EA00BD0042016A084301BE00792080300E3AC8
:1039FA00F000803042016A067002031D062D690834
:103A0A00D83C031C0F2D01303B07EB0000303C3D36
:103A1A00EC00132D3B08EB003C08EC00420180301F
:103A2A000E3AF00080306A067002031D1E2D6908E6
:103A3A00743C0318322D4001971117160230FB000F
:103A4A003830FC00AD30FD00FD0B292DFC0B292D73
:103A5A00FB0B292D97151716622D80300E3AF000B0
:103A6A00803042016A067002031D3D2D6908063C3A
:103A7A000318512D4001971117120230FB003830FC
:103A8A00FC00AD30FD00FD0B482DFC0B482DFB0B57
:103A9A00482D97151716622D4001171297150230F7
:103AAA00FB003830FC00AD30FD00FD0B5A2DFC0B3D
:103ABA005A2DFB0B5A2D17169715803042016A06AC
:103ACA00F00080300D3A7002031D6D2D48306902F6
:103ADA0003188E2D80315023983101304401A00003
:103AEA00A1012F30A2000130A3000B30A4008031C5
:103AFA00762398315230FB002B30FC000030FD0059
:103B0A00FD0B852DFC0B852DFB0B852D0000161258
:043B1A00FB21080083
:103B1E007E01B801C3014314C3144315CE01E40161
:103B2E00D90153019013941340018C018D018E0124
:103B3E008F01900196019701103098000630990080
:103B4E009A019101273092009301940195017E0113
:103B5E003A15BA15DB145B1540019F121F179F1300
:103B6E001E16C0309C00E0309D004E018C124001AC
:103B7E009E174E0196161E304F019600FE3097008E
:103B8E00473098007F30990077309A00DF309B00E5
:103B9E008B170530FB000F30FC00F130FD00FD0BE4
:0C3BAE00D62DFC0BD62DFB0BD62D0800ED
:103BBA0092278F254001171619154201681488317A
:103BCA00F02298318831E72798314201E811E03034
:103BDA004101DA009330DB000430DC000030DD0004
:103BEA00DE01DF01E001E10142013B08EB003C0894
:103BFA00EC00420145084002031D0D2E44083F0215
:103C0A00031D0D2E43083E02031D0D2E42083D02E0
:103C1A00031C172EB830C2070B30C33D0030C43D19
:103C2A00C53DDD24420149084002031D262E4808ED
:103C3A003F02031D262E47083E02031D262E460874
:103C4A003D02031C302E2C30C6070130C73D003020
:103C5A00C83DC93D25230030F00041015D06031D22
:103C6A00402E70085C06031D402E70085B06031D7B
:103C7A00402E5A08003A031D442E400116124201F2
:103C8A00681F512E4001161E4E2E90310020983189
:103C9A00512E8831F02298314201E81C5C2E4001F5
:103CAA00161E592E96225C2E8831F0229831420136
:103CBA00681D692E4001161E662E8031F92798313B
:103CCA00692E8831F02298314201E81E752E400192
:103CDA00161A722E8831F0229831903100209831CC
:103CEA00681E802E4001161A7F2E03238831F02287
:0A3CFA009831802E9622FE2D812EB7
:103F2400D33084009E3085004B30F0000130F10026
:103F340025308600003087009031E22798318530A3
:103F440084009E3085004E30F0000130F100A03036
:103F54008600003087009031E22798317730840062
:103F64009F3085001B30F0000130F10020308600C6
:103F7400013087009031E2279831FD30840087308A
:103F840085000230F0000130F100EE308600003090
:103F940087009031E22798311E3084009F308500DD
:103FA4002D30F0000130F1003B30860001308700F5
:083FB4009031E227983108006A
:040FFA0096340034F5
:023D0A00003483
:023D0C00003481
:103D0E002034203420342034203420342034203405
:043D1E002034003419
:103D22005334573452342034203420342034203455
:043D32002034003405
:043D36003D340034E4
:103D3A004F345634453452344C344F34413444347D
:043D4A0020340034ED
:043D4E008234003487
:043D52003E340034C7
:043D56003D340034C4
:083D5A00003400340034003491
:023D620000342B
:023D6400023427
:043D66007834003479
:023D6A004034E3
:023D6C00013420
:043D6E003D340034AC
:083D720030342E3430340034EB
:043D7A000A340034D3
:083D7E000A3400340034003463
:083D86000A340034003400345B
:103D8E00203450344F3457344534523420344F3469
:083D9E004634463420340034A1
:103DA60050345734523420342034203420342034D4
:043DB600573400344A
:103DBA0053345734523420342034203420342034BD
:043DCA00203400346D
:103DCE002034463457342034563445345234533428
:0A3DDE0049344F344E3420340034D1
:0C3DE80031342E3435342D346134003475
:0C3DF40031342E3435342D346134003469
:043E00000034003456
:043E04000F3427341C
:043E08003D34003411
:043E0C003D3400340D
:043E10000034003446
:103E14002034443445345334493447344E344534DF
:103E2400443420344234593420344E343734443406
:063E340044344334003465
:023E3A00003452
:043E3C000834003412
:083E40000034003400340034AA
:023E4800003444
:083E4A000034003400340034A0
:083E5200003400340034003498
:0A3E5A0030342E343034303400349C
:0C3E6400533457345234203420340034DE
:103E700052344534533445345434203420342034BF
:043E800020340034B6
:043E8400643400346E
:043E88003D34003491
:0A3E8C0030342E343034303400346A
:103E9600F834F8341F341F340334033403341F3426
:103EA6001F34F834F834FF34FF340034003400345F
:103EB6000034003400340034FF34FF34FF34FF3460
:103EC6000034003400340034003400340034FF344D
:103ED600FF34FF34FF34C034C034C034C034C0347F
:083EE600C034C034FF34FF3486
:103EEE00543455344E344534203420342034203468
:043EFE002034003438
:0A3F02005334573452342034003495
:103F0C00203420344C344F34573420344234413430
:083F1C00543454342034003405
:1040000000340034003400340034003400345F34B1
:1040100000340034003407340034073400341434DE
:104020007F3414347F34143424342A347F342A34D3
:10403000123423341334083464346234363449344B
:104040005534223450340034053403340034003401
:1040500000341C34223441340034003441342234DE
:104060001C34003408342A341C342A34083408340C
:1040700008343E34083408340034503430340034CA
:104080000034083408340834083408340034303438
:104090003034003400342034103408340434023412
:1040A0003E345134493445343E34003442347F3454
:1040B000403400344234613451344934463421347C
:1040C000413445344B3431341834143412347F3491
:1040D0001034273445344534453439343C344A347B
:1040E00049344934303401347134093405340334EB
:1040F0003634493449344934363406344934493441
:1041000029341E340034363436340034003400345C
:104110005634363400340034003408341434223435
:1041200041341434143414341434143441342234E7
:104130001434083400340234013451340934063460
:1041400032344934793441343E347E3411341134BC
:1041500011347E347F3449344934493436343E3462
:1041600041344134413422347F34413441342234A7
:104170001C347F3449344934493441347F34093460
:104180000934013401343E34413441345134323441
:104190007F340834083408347F34003441347F34A9
:1041A000413400342034403441343F3401347F34CE
:1041B00008341434223441347F34403440344034A1
:1041C00040347F340234043402347F347F34043486
:1041D000083410347F343E344134413441343E3469
:1041E0007F3409340934093406343E3441345134BF
:1041F00021345E347F34093419342934463446344A
:104200004934493449343134013401347F34013480
:1042100001343F344034403440343F341F34203480
:10422000403420341F347F342034183420347F3419
:104230006334143408341434633403340434783469
:104240000434033461345134493445344334003444
:1042500000347F344134413402340434083410349F
:104260002034413441347F34003400340434023487
:104270000134023404344034403440344034403457
:1042800000340134023404340034203454345434BF
:10429000543478347F3448344434443438343834F3
:1042A000443444344434203438344434443448347A
:1042B0007F343834543454345434183408347E340D
:1042C00009340134023408341434543454343C3442
:1042D0007F340834043404347834003444347D3476
:1042E000403400342034403444343D34003400340D
:1042F0007F34103428344434003441347F34403423
:1043000000347C3404341834043478347C34083475
:104310000434043478343834443444344434383441
:104320007C341434143414340834083414341434FD
:1043300018347C347C34083404340434083448346D
:10434000543454345434203404343F3444344034EA
:1043500020343C344034403420347C341C34203409
:10436000403420341C343C344034303440343C3409
:10437000443428341034283444340C345034503409
:1043800050343C344434643454344C344434003475
:104390000834363441340034003400347F3400347F
:1043A00000340034413436340834003408340834DE
:1043B0002A341C34083408341C342A3408340834B1
:020000040001F9
:0A000E000429213E1F3F03300300C8
:00000001FF
