:040000009831402DC6
:1000080070084001AE007108AD007208AC007308BA
:10001800AB007408AA007508A9007608A80077083C
:10002800A7007808A6007908A5007A08A4007B082C
:10003800A3007C08A20080314E018C1E1D298C1261
:1000480001304201EA070030EB3DEC3DED3DC030A8
:1000580040019C00E0309D004101510842016D02C1
:10006800031D46284101500842016C02031D462821
:1000780041014F0842016B02031D462841014E0809
:1000880042016A02031C1D290A304101CE070030D3
:10009800CF3DD03DD13D40018D1A542874145528C8
:1000A80074108F18592803145A28031074186028DC
:1000B80003186028741061287414741CAB2842015A
:1000C8006208F0006308F1006408F2006508F300B4
:1000D800E830F4000330F500F601F701C421700898
:1000E80042016A074301C300710842016B3D4301A5
:1000F800C400720842016C3D4301C5007308420107
:100108006D3D4301C60042015E08F0005F08F10042
:100118006008F2006108F300E830F4000330F500ED
:10012800F601F701C421700842016A074301C700BC
:10013800710842016B3D4301C800720842016C3DE1
:100148004301C900730842016D3D4301CA004001E3
:100158008D1AB0280314B1280310031CD0284001BD
:10016800FA3067020318B928E70A6708193A031D25
:10017800BF2843013E1740016708FA3A0130031DC2
:100188000030F100F001161AF00A7108F0050319A1
:10019800CF2843013E16E72840016708023C01309A
:1001A80003180030F10019306702013003180030DD
:1001B800F0007108F0050319E6284301BE16400156
:1001C800E701E728E70140018F18EC280314ED2820
:1001D8000310031C06291930410152020318F5289F
:1001E800D20A5208143A0130031D0030F100F00120
:1001F80040010F19F00A7108F00503190529430198
:100208003E151D2941015208013C013003180030F8
:10021800F1000A305202013003180030F000710872
:10022800F00503191C294301BE154101D2011D29FE
:10023800D20140012E08F0002D08F1002C08F20030
:100248002B08F3002A08F4002908F5002808F6000E
:100258002708F7002608F8002508F9002408FA00FE
:0A0268002308FB002208FC00090037
:10027200400196154230FD00FD0B3D290000161588
:100282004230FD00FD0B4329000016114230FD00F3
:10029200FD0B4929000096114230FD00FD0B4F294C
:0402A2000000080050
:1002A600F10108307102031870294401C01B5E2950
:1002B600400116116029400116154230FD00FD0B64
:1002C6006229000096154230FD00FD0B68290000EA
:1002D60096114401C035F10A5429400116154230E1
:1002E600FD00FD0B74290000961500300C19013035
:1002F600F2004230FD00FD0B7E29000096114230CF
:0E030600FD00FD0B842900007208F0000800C5
:100314004001F801F9011030FC00710DF80DF90DE0
:100324007408F8027508031C750FF9020318A12953
:100334007408F80775080318750FF9070310F00D12
:08034400F10DFC0B8F290800EC
:0C034C003A30FD00FD0BA829000008005D
:1003580040017008F100F0010830FC007108F40C4D
:100368000318BA29FC0BB329F10100340310BF2983
:10037800F40C0318F107F10CF00CFC0BBC29080075
:1003880040012230FC00F801F901FA01FB01FC03ED
:100398000319F9290310FB0CFA0CF90CF80CF30CEF
:1003A800F20CF10CF00C031CCB29FC030319EB290C
:1003B8007408F80775080318750FF9077608031805
:1003C800760FFA0777080318770FFB07CF29740809
:1003D800F80775080318750FF90776080318760FDC
:0C03E800FA0777080318770FFB070800DE
:1003F400400116114230FD00FD0BFE290000961548
:100404004230FD00FD0B042A000016154230FD00A9
:08041400FD0B0A2A000008009C
:10041C004401BD0105303D0203181E2A3D083B076F
:10042C00860000303C3D870020308100BD0A102A38
:10043C003D083B07860000303C3D87008101BD0331
:10044C003D083B07BE0000303C3DBF000A30F400C5
:10045C00F5013908F0003A08F1008A217808F0001B
:10046C007908F1003030F00744013E0886003F085F
:10047C008700700881000A30F400F5013908F0009B
:10048C003A08F1008A2170084401B9007108BA00D9
:10049C0000307106031D542A00307006031D572AC4
:0804AC00592ABD03262A0800AD
:1004B4004101550844013A07BD00392141014C0866
:1004C4004401C00053214401C001532144013908AF
:1004D400B03EC000532144013D080F3C031C762A62
:1004E4003D08BB00BC01872A3D08F200F236F23613
:1004F400F236F2367208BC007208F000F035F035BE
:10050400F035F03570083D02BB003B08C0005321B4
:1005140044013C08103EC0005321392141014C08DC
:100524004401C000532140304401C000532108005D
:10053400392141014C084401C00053218030440159
:10054400C000532144012F08C0005321FA210800A0
:100554007B15FB1FB42A0130F300F201F101F00115
:08056400FA0DF20CFF30080053
:10056C003F3044012F0541019E00A62113140000C9
:10057C00131CC12ABE2A0C08F0000D08F10008005B
:08058C00FA1FF2130030080011
:1005940040304401B1001F30B200B301B401403017
:1005A400F0001F30F1000030F2000030F3002F089B
:1005B400F4003008F500F601F701C4217008440185
:1005C400B1007108B2007208B3007308B4000030BF
:1005D4007302031DF72A00307202031DF72A02304A
:1005E4007102031DF72AB23070020318FA2A292B6C
:1005F400B230B1020230B23B0030B33BB43B053001
:10060400F000700803190C2BB436B30CB20CB10C07
:10061400FF3E042B3108F0003208F1003308F200E9
:100624003408F3000130B1020030B23BB33BB43BB9
:1006340070087104720473040319292B000000006C
:100644000000000000000000000000000C2B080067
:10065400FB14FB1F342BFF30F300F200F100F00019
:08066400FA0DF20CFF30080052
:10066C00B6304301B6000230B7002F30B80002306C
:10067C00B90041019301940195019601EC309A0562
:10068C00133044012F05F000700841019A04C0306A
:10069C0044012F05F0000319692BC0302F05F2001F
:1006AC000630F1007208F00071080319602BF03667
:1006BC00FF3E5B2B700852018C008C170C1B682BB7
:1006CC000000642B6C2B5201FC308C05410113167D
:0606DC001315931708003E
:1006E20044012F08F2003008F3007208F00073088A
:1006F200F100F20A0319F30A7008840071088500F8
:1007020000080319852B762B2F087202F00030089F
:0E071200733BF1000130F0020030F13B0800B3
:10072000392141014C084401C000532140304401AB
:10073000C00053214401B0013008073C031CB22B18
:100740003008B900BA015A224401AF014401803097
:100750002F020318AF2BAF0AC0015321A62B44016F
:08076000B00A9C2BFA210800ED
:1007680044012F08B9003008BA005A224401B401E4
:10077800330834020318E92B3408310784000030A9
:10078800323D850020300002B600B5010530350243
:100798000318E42B3608F0000530F400AC214401BE
:1007A8003508F0070030F13D003070078400A030B4
:1007B800713D85000008C00053214401B50ACA2BC9
:0E07C800C00153214401B40ABC2BFA210800E1
:1007D6004401B501B6012F08B7003008B8008030D3
:1007E6003006F00080307002031DFB2B00302F0214
:1007F6000318092C0130B5000030B6002F08003C64
:10080600B7003008031C013EB801B8023708B9002A
:100816003808BA003108BB003208BC000E22063088
:10082600B3000030B4003408003C031D1C2C330810
:10083600003C0318372C3308310786003408323D54
:10084600870001303302F0000030343BF1007008BD
:10085600310784007108323D8500000881000130AF
:10086600B3020030B43B162C3108860032088700EC
:10087600203081003508360403195D2CB301B4011C
:100886003308310784003408323D85000008203AD9
:10089600031D512CB30A0319B40A432C0130B302C9
:1008A6000030B43B3308310786003408323D8700F8
:0608B6002D308100080056
:0E08BC00F201F101F001F801F3010030080033
:1008CA004001FB01FA01F9018030F800F10CF00C4B
:1008DA00031C782C7408F90775080318750FFA07B2
:1008EA000318FB0A0310F01F802C7408FA07750816
:1008FA000318750FFB07FB0CFA0CF90CF80C031C18
:10090A006B2C7B08F3007A08F2007908F10078086A
:04091A00F0000800E1
:10091E00392141014C084401C000532140304401AB
:10092E00C000532144012F08B9003008BA005A22E2
:10093E004401B401330834020318302D3408310752
:10094E0084000030323D85000008003A031DB12CB2
:10095E00B601BA2C3408310784000030323D8500D0
:10096E0020300002B600B5013508043C031C282DCA
:10097E003608F0000530F400AC2144013508F007CC
:10098E000030F13D003070078400A030713D8500CD
:10099E000008B7002F08023A0319FE2CB719D92CFC
:1009AE00B813DA2CB817B719DE2C3813DF2C38171A
:1009BE003719E32CB812E42CB8163719E82C381274
:1009CE00E92C3816B718ED2CB811EE2CB815B7184F
:1009DE00F22C3811F32C38153718F72CB810F82CD8
:1009EE00B8143718FC2C3810FD2C38141E2D37195E
:1009FE00022DB813032DB8173719072D3813082DEC
:100A0E003817B7180C2DB8120D2DB816B718112DA2
:100A1E003812122D38163718162DB811172DB81585
:100A2E0037181B2D38111C2D3815B81038103808F2
:100A3E00C000532144013808C00053214401B50AB7
:100A4E00BB2CC00153214401C00153214401B40AFF
:100A5E00A12C2F0AB9003008BA005A224401B40161
:100A6E00330834020318CE2D3408310784000030C9
:100A7E00323D85000008003A031D472DB601502D6A
:100A8E003408310784000030323D850020300002EA
:100A9E00B600B5013508043C031CC62D3608F0001F
:100AAE000530F400AC2144013508F0070030F13D6B
:100ABE00003070078400A030713D85000008B7003B
:100ACE002F08023A0319942DB71B6F2DB813702DF2
:100ADE00B817B71B742D3813752D3817371B792D92
:100AEE00B8127A2DB816371B7E2D38127F2D381678
:100AFE00B71A832DB811842DB815B71A882D381151
:100B0E00892D3815371A8D2DB8108E2DB814371A29
:100B1E00922D3810932D3814BC2D371B982DB813E9
:100B2E00992DB817371B9D2D38139E2D3817B71AD0
:100B3E00A22DB812A32DB816B71AA72D3812A82DAC
:100B4E003816371AAC2DB811AD2DB815371AB12D80
:100B5E003811B22D3815B719B62DB810B72DB814E7
:100B6E00B719BB2D3810BC2D38143808C0005321CE
:100B7E0044013808C00053214401B50A512DC0016B
:100B8E0053214401C00153214401B40A372DFA21E7
:020B9E0008004D
:100BA00040019711902301304401AF00B0013B3068
:100BB000B1000030B2001230B300B423033044015E
:100BC000AF00B0014E30B1000030B2000C30B300C5
:100BD000B4232F304401AF000030B00071237008FF
:100BE000B3000330AF005430B0005B30B1000030D0
:100BF000B200B4237A30FB00C130FC008130FD002C
:100C0000FD0B002EFC0B002EFB0B002E0000000045
:100C10008D1A0C2E03140D2E0310031C112E000030
:060C2000082E97150800E4
:100C26007408F8027508031C750FF9027608031C90
:100C3600760FFA027708031C770FFB02F30D0730D5
:100C4600FC00730DF80DF90DFA0DFB0D7408731CFD
:100C56003A2EF8027508031C750FF9027608031C74
:100C6600760FFA027708031C770FFB02472EF80768
:100C760075080318750FF90776080318760FFA0733
:100C860077080318770FFB07F30DFC0B242E720D64
:100C9600F80DF90DFA0DFB0D7408731C602EF802A1
:100CA6007508031C750FF9027608031C760FFA0205
:100CB6007708031C770FFB026D2EF80775080318DB
:100CC600750FF90776080318760FFA0777080318E1
:100CD600770FFB07F20D0730FC00720DF80DF90DCA
:100CE600FA0DFB0D7408721C862EF8027508031C9B
:100CF600750FF9027608031C760FFA027708031CB3
:100D0600770FFB02932EF80775080318750FF9077E
:100D160076080318760FFA0777080318770FFB078C
:100D2600F20DFC0B702E710DF80DF90DFA0DFB0D81
:100D36007408721CAC2EF8027508031C750FF902B4
:100D46007608031C760FFA027708031C770FFB025E
:100D5600B92EF80775080318750FF90776080318F2
:100D6600760FFA0777080318770FFB07F10D0730A0
:100D7600FC00710DF80DF90DFA0DFB0D7408711CD0
:100D8600D22EF8027508031C750FF9027608031CAB
:100D9600760FFA027708031C770FFB02DF2EF8079F
:100DA60075080318750FF90776080318760FFA0702
:100DB60077080318770FFB07F10DFC0BBC2E700D9F
:100DC600F80DF90DFA0DFB0D7408711CF82EF802DA
:100DD6007508031C750FF9027608031C760FFA02D4
:100DE6007708031C770FFB02052FF8077508031811
:100DF600750FF90776080318760FFA0777080318B0
:100E0600770FFB07F00D0730FC00700DF80DF90D9C
:100E1600FA0DFB0D7408701C1E2FF8027508031CD2
:100E2600750FF9027608031C760FFA027708031C81
:100E3600770FFB022B2FF80775080318750FF907B4
:100E460076080318760FFA0777080318770FFB075B
:100E5600F00DFC0B082F70183E2F7408F807750864
:100E66000318750FF90776080318760FFA0777083F
:080E76000318770FFB070800C9
:100E7E0044012C18452F40019917472F4001991313
:100E8E004401AC184D2F400119174F2F4001191373
:100E9E0044012C19552F40019916572F40019912D4
:100EAE004401AC195D2F400119165F2F4001191234
:100EBE0044012C1A652F40019817672F4001981393
:100ECE004401AC1A6D2F400118176F2F40011813F3
:100EDE0044012C1B752F40019816772F4001981254
:100EEE0044012D187D2F400196167F2F400196123A
:100EFE004401AD18852F40019A14872F40019A1096
:100F0E0044012D198D2F400196178F2F40019613F6
:100F1E004401AD19952F40011617972F4001161356
:100F2E0044012D1A9D2F400118149F2F40011810B7
:100F3E004401AD1AA52F40019814A72F4001981017
:100F4E0044012D1BAD2F40011815AF2F4001181174
:100F5E0044012E18B52F40011A10B72F40011A1454
:100F6E00991543013A084401AF0043013B0844017F
:100F7E00B000CA22400199111A30FD00FD0BC52F99
:100F8E000000181243013A084401AF0043013B0828
:100F9E004401B000CA224001181643013A08440128
:100FAE00AF0043013B084401B000CA22400199132F
:100FBE0019139912191298131813981296129A104F
:0E0FCE00961316131810981018111A10080018
:040FDC00FA210800EE
:100FE000FB09FA09F909F809F80A0319F90A0319BA
:080FF000FA0A0319FB0A0800CC
:101000004401AC010A302C0203182928803139210F
:10101000883141014C084401C0008031532188319E
:101020007008003A031D152829288031FA218831DB
:101030000D30FB002D30FC00D730FD00FD0B1E28CD
:10104000FC0B1E28FB0B1E28000000004401AC0A0C
:1010500002284401C001803153218831AE3044015F
:10106000C000803153218831D5304401C000803127
:101070005321883180304401C000803153218831B0
:10108000A8304401C0008031532188313F304401F1
:10109000C000803153218831D3304401C0008031F9
:1010A00053218831410153084401C000803153214C
:1010B000883140304401C0008031532188318D3067
:1010C0004401C00080315321883114304401C000F4
:1010D00080315321883181304401C0008031532157
:1010E0008831FF304401C000803153218831D9302C
:1010F0004401C000803153218831F1304401C000E7
:1011000080315321883120304401C0008031532187
:10111000883102304401C0008031532188312130B0
:101120004401C0008031532188314401C001803125
:10113000532188317F304401C000803153218831F0
:101140002E304401C00080315321883141015408C0
:101150000319B728A0304401C000803153218831E1
:10116000C0304401C000803153218831C328A130F0
:101170004401C000803153218831C8304401C0008F
:10118000803153218831DA304401C000803153214D
:10119000883102304401C000803153218831DB3076
:1011A0004401C00080315321883140304401C000E7
:1011B000803153218831A4304401C0008031532153
:1011C0008831A6304401C0008031532188318031FC
:1011D000FA218831803190238831AF304401AF004B
:0811E00080319A2288310800D9
:1011E800003044012D06031DFB2800302C06031D8A
:1011F8000B290230AF003C30B0003630B10000306F
:10120800B2000430B30080318F2488312E29440184
:101218002C08AF002D08B000A630B1000130B20094
:101228008031EB23883143012908AE002E30AF000E
:101238002A08B0002B08B10002304401AF003C304E
:10124800B000AE30B1000130B2000430B3008031DC
:061258008F24883108001C
:06125E00FB15FF30080043
:1012640043304401AF008031362388310230FC0022
:101274000830FD00FD0B3C29FC0B3C290000093023
:101284004401AF008031B62288310B30F4000030C5
:10129400F50080316524883170084301BF0071086E
:0412A400C00008007E
:1012A800A1017208031D69297108F2007008F10094
:1012B800F001A1157208031D69297108F200F101F6
:1012C800A11121167208031977292108F302031DB9
:1012D800031C7D290310F21B8329F00DF10DF20D7B
:1012E800F30B6F297D290130FC0080315E248831A1
:1012F80088290230FC008031AA22883188290430EC
:0A130800FC008031C6228831080085
:1013120080313921883141014C084401C0008031BB
:101322005321883140304401C0008031532188313B
:101332004401AD012D08033C031CC8292D08B90046
:101342007330BA0080315A2288314401AC012C0832
:101352000A3C031CC6292D08F0000B30F400803132
:10136200AC21883144012C08F0070030F13DEE3009
:10137200700784009E30713D85000008C0008031F6
:10138200532188314401AC0AA829AD0A9B29803136
:06139200FA218831080079
:101398007C18022AFC18D3297C19272ACC29A101F8
:1013A8007208031DF3297108F2007008F10078082B
:1013B800F000F801A1157208031DF3297108F20065
:1013C8007008F100F001A11121167208031DF3291C
:1013D8007108F200F101A11572080319152A2108F4
:1013E800F302031D031C1B2A0310F21B022AF80D2B
:1013F800F00DF10DF20DF30BF9291B2A7B1B701C64
:10140800212AF81F212AF00A0319F10A0319F20AFE
:10141800031D212AF20CF10CF00CF30A0319272AF8
:10142800212A0130FC0080315E2488312C2A0230C8
:10143800FC008031AA2288312C2A0430FC0080313B
:10144800C62288312C2A0830FC0080312A238831B2
:041458000000080088
:10145C007B14FB1F392AF201FA1FFF30F200F10056
:0A146C00F000FA0DF20CFF3008004A
:101476004001FB0173080319772A7208FA00F21774
:101486008E30F302F31F7A2AF309F30A0830730247
:10149600031C5D2AF300F10D7208F100F201083019
:1014A6007302031C5D2AF300F10DF1017308031D9D
:1014B6000310652A73080319652A0310F20CF10C50
:1014C600F30B602A7B1B711C6F2A031C6F2AF10A1F
:1014D6000319F20AF21B862AFA1F892AF209F10970
:1014E600F10A0319F20A892AF201F101892A7B1409
:1014F600FB1F8C2AF201FA1F8C2AFF30F200F10042
:10150600FA0DF20C8C2A0130FC008E2A0030FC0009
:101516008E2AFF30FC00FC080319922A2E2271083D
:08152600F0007208F10008005A
:10152E00400116160930FB001E30FC00E430FD00B1
:10153E00FD0B9F2AFC0B9F2AFB0B9F2A000080317C
:10154E00EE2788316830FC00E430FD00FD0BAD2A3B
:10155E00FC0BAD2A000000204301BE1CBE2A8031C8
:10156E00D02588314301BE1080319023883144014B
:10157E00AF01B0015430B1000130B2000930B300F8
:10158E0080318F248831892102304401AF00B001AF
:10159E004930B1000130B2000930B30080318F24E0
:1015AE0088314401AF012A30B0004030B100013023
:1015BE00B2000130B30080318F24883102304401F3
:1015CE00AF002A30B0003E30B1000130B200013021
:1015DE00B30080318F2488310F304201C60027308E
:1015EE00C7006430C3000030C4000F30EE00273057
:1015FE00EF004301A001A1014401AC01AD01F420B3
:10160E00013042016A07E60000306B3DE700003012
:10161E006C3DE80000306D3DE9006A084301A20010
:10162E0042016B084301A30042016C084301A40070
:10163E0042016D084301A500BE123E133E12BE11BB
:10164E003E1142016208F0006308F1006408F200E6
:10165E006508F300E830F4000330F500F601F701F9
:10166E008031C4218831700842016A074301C300EA
:10167E00710842016B3D4301C400720842016C3D8A
:10168E004301C500730842016D3D4301C60042018E
:10169E005E08F0005F08F1006008F2006108F300D8
:1016AE00E830F4000330F500F601F7018031C42173
:1016BE008831700842016A074301C7007108420170
:1016CE006B3D4301C800720842016C3D4301C900E5
:0C16DE00730842016D3D4301CA00080082
:1016EA007408003A031D8E2B7508003A031D8E2BD1
:1016FA007608003A031D8E2B7708003A031D8E2BBD
:10170A00FF30F000FF30F100FF30F2007F30F300CD
:10171A002A2C4001FC01F71BFC0AFD01FB01FA011E
:10172A00F901F80173087204710470040319232C77
:10173A0073087706A000A01BFD09F71FAF2BF40959
:10174A00F509F609F709F40A0319F50A0319F60A5D
:10175A000319F70AF31FBC2BF009F109F209F3097F
:10176A00F00A0319F10A0319F20A0319F30A7308B2
:10177A007704A000A01BDF2B803113268831FC1BC5
:10178A00FC2BFD1F232CF009F109F209F309F00AD9
:10179A000319F10A0319F20A0319F30AF809F909F4
:1017AA00FA09FB09F80A0319F90A0319FA0A0319CB
:1017BA00FB0A232CF71FF62BF31BF02B7308FB00F5
:1017CA007208FA007108F9007008F800F301F201D2
:1017DA00F101F001C62BF301F201F101F001F00A67
:1017EA000034F309F209F109F009FC17C12BF80AD0
:1017FA000319F90A0319FA0A0319FB0A7408780289
:10180A00031DC62B75087902031DC62B76087A02BA
:10181A00031DC62B77087B02031DC62BFB01FA01A9
:10182A00F901F801F00A0319F10A0319F20A031976
:10183A00F30AF31FC62BA0012016FF34A0017C1C5B
:0C184A00292C8031F0278831003E080076
:10185600400172087606A100F801F90173087702C3
:10186600031C4D2C7708FD007308F7007D08F30074
:101876007608FD007208F6007D08F2007508FD0086
:101886007108F5007D08F1007408FD007008F40089
:101896007D08F00077080319C82C7208FA00F217C1
:1018A600F61777087302F7000319802C08307702C1
:1018B600031C762CF7007408F9007508F400760806
:1018C600F500F60108307702031C762CF700740841
:1018D600F9007508F400F50108307702031C762C30
:1018E6007A08F200C82C77080319802C0310F60C2E
:1018F600F50CF40CF90CF70B792CA11F8D2CF909BA
:10190600F409F509F609F90A0319F40A0319F50A9F
:101916000319F60A7908F80774080318740FF00714
:1019260075080318750FF10776080318760FF20786
:10193600A11BA62C031CB62CF20CF10CF00CF80C17
:10194600F30FB62CC22C0318BA2CF809F009F109CA
:10195600F209F80A0319F00A0319F10A0319F20A3F
:101966008030FA06BE2C0130FC00CC21CA2C023095
:10197600FC00CC21CA2C0430FC005421CA2C0830AF
:10198600FC0080312A238831CA2C0030FC0000007C
:02199600080047
:101998004101EF014201C801C2014401AC01AD019E
:0A19A800AE0180313F2788310800AE
:1019B20043304401AF008031362388310230FC00CD
:1019C2000830FD00FD0BE32CFC0BE32C000008307B
:1019D2004401AF008031B622883170084401AA0068
:1019E2007108AB007108033A031DF92CFF30700631
:1019F200031D162D8330AF0080313623883102302B
:101A0200FC000830FD00FD0B042DFC0B042D000032
:101A120008304401AF008031B62288317008440199
:101A2200AA007108AB00AA35AB0D2B08073A031DBB
:101A32001C2DFE302A06031D6D2DAF018031362389
:101A420088310230FC000830FD00FD0B262DFC0B16
:101A5200262D000008304401AF008031B6228831C3
:101A620070084401AA007108AB007108033A031D13
:101A72003C2DFF307006031D402D43013E143221E0
:101A820044012A08F4002B08F500F601F70143018E
:101A92003F08F0004008F1000030F11BFF30F20077
:101AA200F3008031C42188310A30F8007008F40054
:101AB2007108F5007208F6007308F7007808031938
:101AC200682DF736F60CF50CF40CFF3E602D740809
:101AD2004401AA007508AB002A08F0002B08F100A7
:021AE2000800FA
:101AE4004001FB017308031D77080319C82D720810
:101AF4007606FA007708F3077E30031C852DF3027F
:101B04000318CD2D882DF302031CD22D7208F80082
:101B14007108FC007008FD00F817F6170310F201B5
:101B2400F101F0011830A1007D1CA22D7408F0070A
:101B340075080318750FF10776080318760FF20776
:101B4400F20CF10CF00CF80CFC0CFD0C0310A10BC6
:101B5400962DF21BB22DF80DF00DF10DF20DF303DD
:101B64007B1B701CC42DF81FC42DF00A0319F10A45
:101B74000319F20A031DC42DF20CF10CF00CF30A44
:101B84000319CD2DFA1FF2130030D62D0130803108
:101B94005E248831D62D023080312A238831D62D17
:0C1BA40004308031AA22883100000800C3
:101BB00044012A08F1002B08F200F135F20D7108FA
:101BC000AA007208AB008030023AF0008030720642
:101BD0007002031DED2D71081F3C031CF42D003015
:101BE000AA070130AB3D5E2E8030033AF000803012
:101BF0002B067002031DFE2D2A08173C031C052E20
:101C00001230AA070130AB3D5E2E8030043AF0005E
:101C100080302B067002031D0F2E2A08C93C031CBE
:101C2000162E2030AA070130AB3D5E2E8030073AD9
:101C3000F00080302B067002031D202E2A08C73CBE
:101C4000031C272E1E30AA070130AB3D5E2E8030CC
:101C50000A3AF00080302B067002031D312E2A084C
:101C6000CE3C031C382E2030AA070130AB3D5E2E3F
:101C700080300F3AF00080302B067002031D422E98
:101C80002A08823C031C492E0430AA070130AB3DD0
:101C90005E2E8030133AF00080302B067002031D58
:101CA000532E2A08EC3C031C5A2EFA30AA070030A7
:101CB000AB3D5E2EF030AA070030AB3D2A08F000A5
:061CC0002B08F1000800F2
:101CC6007408003A031D7C2E7508003A031D7C2E0D
:101CD6007608003A031D7C2E7708003A031D7C2EF9
:101CE600FF30F000FF30F1007F30F200FF30F300EC
:101CF6001C2F4001770803190A2F730803190D2FAB
:101D0600720876068039FA00F217F617A1017208F2
:101D1600F8007108FC007008FD007408FD027508E3
:101D2600031C750FFC027608031C760FF802F801F7
:101D3600FC01FD01031CA62E0310F20CF10CF00CA5
:101D4600F80C0130A1007708F302031CB02E7E3098
:101D56002107F3070318122FB52E7E302107F3074C
:101D6600031C172F1830FA07FD0DFC0DF80DF00DAA
:101D7600F10DF20DA10D7408F0027508031C750F24
:101D8600F1027608031C760FF202760DA104211CDF
:101D9600CE2E7D14D92E7408F00775080318750F1A
:101DA600F10776080318760AF2077D10FA031F304A
:101DB6007A05031DB72E7B1B7D1C002F0310F00D2B
:101DC600F10DF20DA10D7408F0027508031C750FD4
:101DD600F1027608031C760FF202760D2104013912
:101DE600FD070318FC0A0319F80A031D002FF80C57
:101DF600FC0CFD0CF30A0319122FFA1FF8137808CE
:101E0600F2007C08F1007D08F00000301B2F013045
:101E16002F211B2F023080315E2488311B2F043086
:101E260080312A2388311B2F08308031AA2288313D
:041E360000000800A0
:101E3A0040017008F8007108F000F101F201F301A5
:101E4A00FB01FC019630F300FA01F01F322FF8096A
:101E5A00F009F80A0319F00AFA177008F10078086D
:0A1E6A00F000F801F2015421080015
:101E740043304401AF008031362388310230FC0006
:101E84000830FD00FD0B442FFC0B442F00000A30EA
:101E94004401AF008031B622883170084401AA00A1
:101EA4007108AB007108033A031D5A2FFF30700606
:101EB400031D772F8330AF00803136238831023001
:101EC400FC000830FD00FD0B652FFC0B652F0000A6
:101ED4000A304401AF008031B622883170084401D1
:101EE400AA007108AB00AA35AB0D2B08073A031DF5
:101EF4007D2FFE302A06031DCE2FAF0180313623FD
:101F040088310230FC000830FD00FD0B872FFC0BEC
:101F1400872F00000A304401AF008031B622883197
:101F240070084401AA007108AB007108033A031D4C
:101F34009D2FFF307006031DA12F43013E14322153
:101F440044012A08F4002B08F500F601F7014301C7
:101F54003F08F0004008F1000030F11BFF30F200B0
:101F6400F3008031C42188310A30F8007008F4008D
:101F74007108F5007208F6007308F7007808031971
:101F8400C92FF736F60CF50CF40CFF3EC12F74087C
:101F94004401AA007508AB002A08F0002B08F100E0
:021FA400080033
:101FA600710DF80DF90D7408F8027508031C750F0C
:101FB600F902F00DF10D0F30FC00710DF80DF90D61
:101FC6007408701CEC2FF8027508031C750FF902D3
:101FD600F12FF80775080318750FF907F00DF10DC5
:101FE600FC0BE02F7018FD2F7408F807750803180E
:081FF600750FF9070000080057
:10200000003044012306031D072800302206031D6B
:102010001628AF013C30B0006830B1000030B2008B
:102020000330B30080318F24903178280030440190
:102030002302031D1D280A30220203183228220819
:10204000AF002308B000A630B1000130B2008031EB
:10205000EB23903130304301AE002E30AF002B081F
:10206000B0006B28003044012302031D392864307E
:10207000220203184E282208AF002308B000A63021
:10208000B1000130B2008031EB23903143012A08C6
:10209000AE002E30AF002B08B0006B280530440195
:1020A0002207F0000030233DF1007008A200710803
:1020B000A3007008AF007108B000A630B100013075
:1020C000B2008031EB23903120304301AE0029086B
:1020D000AF002A08B0004401AF013C30B000AE3080
:1020E000B1000130B2000330B30080318F24903151
:0220F0000800E6
:1020F200400197118831CC24903102304401AF0065
:10210200B001A030B1000030B2000930B30080311C
:102112008F2490311930FB005A30FC00B130FD00A1
:10212200FD0B9128FC0B9128FB0B9128000000006D
:1021320002304401AF00B001AA30B1000030B20059
:102142000530B30080318F24903102304401AF005A
:102152002A30B0006C30B1000030B2000130B30060
:1021620080318F24903102304401AF003C30B00006
:102172006230B1000030B2000430B30080318F24ED
:10218200903164304201C3000030C4000D30FB00C6
:102192002D30FC00D730FD00FD0BCD28FC0BCD28E7
:1021A200FB0BCD2800000000400197154301BE1231
:1021B200BE114001E70142016A08E6006B08E70030
:1021C2006C08E8006D08E9006A084301A2004201B8
:1021D2006B084301A30042016C084301A4004201C1
:0821E2006D084301A50008008F
:1021EA008831D92490317008A2007108A300003008
:1021FA00A31BFF30A400A50088313A27903170084C
:10220A00A6007108A7000030A71BFF30A800A9008C
:10221A002208AA002308AB008831D82590318831DA
:10222A001D2790310030F4000030F5002030F60010
:10223A008130F7008831722590310030F400003087
:10224A00F5007A30F6008830F7008831632690313D
:10225A00F430F400FD30F5003430F6007F30F7003A
:10226A008831632690317008F4007108F50072080D
:10227A00F6007308F7008831722590310030F400B7
:10228A000030F5002030F6008130F70088316326EF
:10229A0090310030F4000030F5000030F6007E3056
:1022AA00F70088312B24903188313B229031700815
:1022BA004301BC007108BD008030F2008030710615
:1022CA007202031D6A297008003C0318BF294001E5
:1022DA00161EBC2942016208F0006308F100640876
:1022EA00F2006508F300E830F4000330F500F60167
:1022FA00F7018031C4219031700842016A07430115
:10230A00C300710842016B3D4301C40072084201D7
:10231A006C3D4301C500730842016D3D4301C6008F
:10232A0042015E08F0005F08F1006008F2006108EF
:10233A00F300E830F4000330F500F601F7018031CC
:10234A00C4219031700842016A074301C70071082D
:10235A0042016B3D4301C800720842016C3D4301D2
:10236A00C900730842016D3D4301CA00BF29883183
:10237A0097229031803044012906F00080302506EA
:10238A007002031DD22924082802031DD22923081A
:10239A002702031DD22922082602031CDB29E73063
:1023AA00A2000330A300A401A501252A26082207BA
:1023BA00F0002708233DF1002808243DF2002908EF
:1023CA00253DF3006430F400F501F601F701803190
:1023DA00C421903144012208F4002308F50024089E
:1023EA00F6002508F7002608F4022708F53B280816
:1023FA00F63B2908F73B8831752390317008440170
:10240A00A2007108A3007208A4007308A500803016
:10241A00F400803073067402031D1D2A7208003C02
:10242A00031D1D2A7108033C031D1D2A7008E73C81
:10243A000318252AE730A2000330A300A401A5014E
:10244A0022084301C100440123084301C2000800D5
:10245A007408003A031D3A2A7508003A031D3A2AFD
:10246A00FF30F0007F30F100942A4001FD01F901AC
:10247A00F801710870040319003471087506FA002E
:10248A00FA1BFD09FB01F51F4F2AF409F509F40AA5
:10249A000319F50AF11F562AF009F109F00A03197E
:1024AA00F10A71087504FA00FA1B6B2A8831D327DE
:1024BA0090317B18802AFD1F0034F009F109F00AD7
:1024CA000319F10AF809F909F80A0319F90A003493
:1024DA00F51F7C2AF11B782A7108F9007008F800A8
:1024EA00F101F001602AF101F001F00A0034F1096A
:1024FA00F009FB0A5D2AF80A0319F90A7408780236
:10250A00031D602A75087902031D602AF901F80182
:10251A00F00A0319F10AF11F602A0000FF340800CB
:10252A002C304301EC000130ED002C30EE0001307C
:10253A00EF004401A001A101F520430180303D06CE
:10254A00F0008030410149067002031DAF2A480895
:10255A0043013C02031CC12A803041014B06F000B2
:10256A00803043013D067002031DBE2A3C0841012A
:10257A004A02031CC12A292B4301BE1EC82A7920FC
:10258A00C101C201292B3E1ECD2AC101C201292B3C
:10259A00F5206D08003C031DD42A6C08003C031882
:1025AA00EE2A0130EC020030ED3B3D0844012102E5
:1025BA00031DE32A43013C08440120020318ED2AC3
:1025CA0043013C084401A00043013D084401A10025
:1025DA00282B4401210842016F06031DF72A6E08C1
:1025EA00440120060319FF2A44012008A2002108F9
:1025FA00A3000020440120084201EE004401210802
:10260A004201EF004401A001A1012C304301EC007A
:10261A000130ED006F08003C031D152B6E08003CCD
:10262A0003181C2B0130EE020030EF3B1F2BC101B7
:10263A00C201292B0B30FC006230FD00FD0B232B5D
:0A264A00FC0B232B0000A22A08005D
:1026540003304301EB004201C80141016F0844010A
:10266400AC00AD01420142084401AE0080313F2775
:10267400903195221430F4000030F50043014108F4
:10268400F0004208F1002D22700843014107E900DF
:102694007108423DEA006B08E80068081F3C031C0F
:1026A400AB2B41016F084401AC00430168084401AD
:1026B400AD00420142084401AE0080313F27903111
:1026C4009522803043014206F00080306A06700291
:1026D400031D6E2B690841020318A92B1430F40062
:1026E4000030F5004108F0004208F1002D22700886
:1026F40043014107E9007108423DEA0068084201CC
:10270400C80043016B084201C50080304301420602
:10271400F00080307002031D912B783041020318C1
:10272400942BAB2B6B086807F1007108E800710863
:10273400093A031DA02B0830E800A82B6808113AB9
:10274400031DA82B1030E8000430EB00AA2BAB2BA0
:102754004F2B41016F084401AC0042014808440179
:10276400AD00420142084401AE0080313F27903160
:0227740008005B
:10277600420153084301E2004201530841016F0739
:10278600F10071084301E40071081F3C0318CD2BCA
:102796001F30E40041016F08430162020318D92B80
:1027A600620841016F024301E500DA2BE501650885
:1027B6004101EF00430165084401AC0042014808AD
:1027C6004401AD00420142084401AE0080313F277A
:1027D60090319522003043014206031DF42B003050
:1027E6004106031DF72B7B2C4108E6004208E70053
:1027F600650AE30063086402031C6C2C6308440149
:10280600AC00420148084401AD00420142084401BF
:10281600AE0080313F2790319522003043014206B9
:10282600031D172C00304106031D1A2C7B2C80300B
:102836004206F000803067067002031D242C6608ED
:102846004102031C302C6830FC00E430FD00FD0B17
:102856002A2CFC0B2A2C00009522803043014206CC
:10286600F000803067067002031D3B2C66084102AB
:10287600031C472C6830FC00E430FD00FD0B412CA6
:10288600FC0B412C00009522803043014206F000EB
:10289600803067067002031D522C66084102031839
:1028A600692C4108E6004208E70063084101EF0091
:1028B600803043014206F00080307002031D652C13
:1028C600783041020318682C6C2C6A2C6C2CE30AB5
:1028D600FD2B41016F084401AC0042014808440148
:1028E600AD00420142084401AE0080313F279031DD
:0228F6000800D8
:1028F80003304301E700E30167084201D3000330D6
:102908004301E40095221430F4000030F50043013F
:102918004108F0004208F1002D22700843014107E8
:10292800E5007108423DE6006708E20062081F3CC6
:10293800031CFB2C62084401AC0042014808440116
:10294800AD00420142084401AE0080313F2790317A
:102958002A239522803043014206F0008030660623
:102968007002031DB92C650841020318F92C1430B4
:10297800F4000030F5004108F0004208F1002D2273
:10298800700843014107E5007108423DE60062080E
:102998004101EF00420148084301E3006708420192
:1029A800D30045084301E40080304206F00080303F
:1029B8007002031DE12C783041020318E42CFB2C33
:1029C80067086207F1007108E2007108093A031DFF
:1029D800F02C0830E200F82C6208113A031DF82C9C
:1029E8001030E2000430E700FA2CFB2C9A2C630824
:1029F8004201C80041016F084401AC00430163086B
:102A08004401AD00420142084401AE0080313F2735
:102A18009031430164084201C5006830FC00E4308D
:0E2A2800FD00FD0B152DFC0B152D0000080008
:102A3600420145084301E200420145084807F1000A
:102A460071084301E40071081F3C03182C2D1F3048
:102A5600E40042014808430162020318382D620867
:102A6600420148024301E500392DE50165084201AE
:102A7600C80041016F084401AC00430165084401E8
:102A8600AD00420142084401AE0080313F2790313B
:102A96009522003043014206031D532D00304106A6
:102AA600031D562DDB2D4108E6004208E700650AA6
:102AB600E30063086402031CCC2D41016F08440146
:102AC600AC00430163084401AD00420142084401E1
:102AD600AE0080313F2790319522003043014206F7
:102AE600031D772D00304106031D7A2DDB2D803026
:102AF6004206F000803067067002031D842D6608CA
:102B06004102031C902D6830FC00E430FD00FD0BF3
:102B16008A2DFC0B8A2D0000952280304301420647
:102B2600F000803067067002031D9B2D6608410287
:102B3600031CA72D6830FC00E430FD00FD0BA12D21
:102B4600FC0BA12D00009522803043014206F000C7
:102B5600803067067002031DB22D66084102031815
:102B6600C92D4108E6004208E70063084201C80093
:102B7600803043014206F00080307002031DC52DEF
:102B8600783041020318C82DCC2DCA2DCC2DE30A6E
:102B96005C2D41016F084401AC0042014808440124
:102BA600AD00420142084401AE0080313F2790311A
:022BB600080015
:102BB8006400400119110530FB000F30FC00F130B2
:102BC800FD00FD0BE52DFC0BE52DFB0BE52D9522FE
:102BD800803043014206F00080307002031DF62D5C
:102BE8006E3041020318FB2D400119157C2F8831E6
:102BF800CC2490310330FB000830FC007730FD0016
:102C0800FD0B042EFC0B042EFB0B042E95228030AA
:102C180043014206F00080307002031D152E6E300D
:102C2800410203181A2E400119157C2F430141084F
:102C3800DC004208DD007C24003043014206031D0D
:102C4800272E00304106031D2E2E8831CC249031CA
:102C580019157C2F9522803043014206F000803000
:102C68007002031D392E7830410203183E2E4001B0
:102C780019157C2FBB23003043014206031D462E45
:102C880000304106031D4D2E8831CC249031191592
:102C98007C2F9522803043014206F000803070027C
:102CA800031D582E7830410203185D2E4001191576
:102CB8007C2F1B25003043014206031D652E003082
:102CC8004106031D6C2E8831CC24903119157C2FB8
:102CD8009522803043014206F00080307002031DC7
:102CE800772E7830410203187C2E400119157C2F6D
:102CF800803043014206F00080307002031D862EAA
:102D0800C83041020318A82E80304206F0008030F7
:102D18005D067002031D922E5C0841020318A82E5E
:102D280041085C02F10042085D3BF2008030F0008F
:102D3800803072067002031DA32E7108643C0318CC
:102D4800A82E400119157C2F43014108DC004208D8
:102D5800DD0041016F084301DE00DF014201480840
:102D68004301E000E10142014208013A031DBE2E81
:102D7800C201C02E0130C2008831CC2490314101FB
:102D88006F084401AC00420148084401AD0042010B
:102D980042084401AE0080313F2790310330FB00E8
:102DA8000830FC007730FD00FD0BD82EFC0BD82E28
:102DB800FB0BD82E9522803043014206F00080306C
:102DC8007002031DE92E783041020318EE2E4001EF
:102DD80019157C2F7C24003043014206031DF62E72
:102DE80000304106031DFD2E8831CC249031191581
:102DF8007C2F9522803043014206F000803070021B
:102E0800031D082F7830410203180D2F40011915B2
:102E18007C2FBB23003043014206031D152F0030D1
:102E28004106031D1C2F8831CC24903119157C2FA5
:102E38009522803043014206F00080307002031D65
:102E4800272F7830410203182C2F400119157C2FA9
:102E58001B25003043014206031D342F0030410674
:102E6800031D3B2F8831CC24903119157C2F9522D6
:102E7800803043014206F00080307002031D462F67
:102E88007830410203184B2F400119157C2F8030F0
:102E980043015D06F000803042067002031D562F84
:102EA80041085C020318782F42014208013A031DC9
:102EB8005F2FC201612F0130C20043015E0841014A
:102EC800EF00430160084201C80043015E08440165
:102ED800AC00430160084401AD00420142084401CE
:102EE800AE0080313F2790316400952240011915CA
:022EF8000800D0
:102EFA004001971102304401AF00B001D830B1004F
:102F0A000030B2000930B30080318F249031DC25C3
:102F1A0043014108A0004208A10041084201C30040
:102F2A00430142084201C40002304401AF00B0012B
:102F3A00E230B1000030B2000430B30080318F2497
:102F4A00903102304401AF002A30B000E730B100BE
:102F5A000030B2000130B30080318F249031430138
:102F6A0020084401AC00430121084401AD00883126
:102F7A00F4209031971543013E133E114001E701B9
:102F8A0042016A08E6006B08E7006C08E8006D0871
:102F9A00E9006A084301A20042016B084301A30049
:102FAA0042016C084301A40042016D084301A500D7
:022FBA0008000D
:102FBC00400197111616DC2543014108A000420878
:0C2FCC00A1004001971543013E110800D0
:082FD8009831822190310800BC
:102FE00012001E00F003031DF02FF103031DF02F4C
:022FF0000800D7
:1030000080313921983141014C084401C0008031A0
:103010005321983140304401C00080315321983110
:103020000A30F4000030F50043015308F000540862
:10303000F10090312D22983170084301D3007108BE
:10304000D40080307106F2008030013A7202031D14
:103050002B282C307002031832282C30D30001307A
:10306000D40042288030013AF000803054067002CB
:10307000031D3C285308A43C03184228A430D30065
:103080000130D4002C305302F3000130543BF400E3
:103090007308D3007408D4000530F2007308F00000
:1030A0007408F100720803195928F035F10DFF3E3C
:1030B00053287008D3007108D4007830F400003031
:1030C000F50090312D22983170084301D600193057
:1030D0007002031C752818305602D7000830D8003B
:1030E0000830D9000830DA00932811305602031C4A
:1030F0008228D70110305602D8000830D900083095
:10310000DA00932809305602031C8E28D701D80113
:1031100008305602D9000830DA009328D701D801C8
:10312000D9015608DA008030DB0001305702F00088
:10313000F1010030F13B7008F1005B08F00071080C
:103140000319A528F036FF3EA0287008FF3CDB00DD
:10315000DB0A0330DB044401B9017730BA00803167
:103160005A22983143015B084401C0008031532149
:10317000983143015B084401C000803153219831EC
:1031800043015B084401C0008031532198311F3056
:103190004301DB044401B9017530BA0080315A2281
:1031A000983143015B084401C000803153219831BC
:1031B00043015B084401C000803153219831440130
:1031C000B9017A30BA0080315A22983143015B0844
:1031D0004401C00080315321983143015B08440110
:1031E000C00080315321983180304301DB00013031
:1031F0005802F000F1010030F13B7008F1005B086B
:10320000F000710803190729F036FF3E0229700803
:10321000FF3CDB00DB0A01304401B9007530BA0025
:1032200080315A2298314301D5015508063C031CD0
:1032300022295B084401C0008031532198314301A9
:10324000D50A15298030DB0001305902F000F10168
:103250000030F13B7008F1005B08F00071080319C1
:103260003429F036FF3E2F297008FF3CDB00DB0AD3
:1032700002304401B9007530BA0080315A229831C9
:103280004301D5015508063C031C4F295B08440146
:10329000C0008031532198314301D50A4229803042
:1032A000DB0001305A02F000F1010030F13B700800
:1032B000F1005B08F000710803196129F036FF3E48
:1032C0005C297008FF3CDB00DB0AC030DB04033004
:1032D0004401B9007530BA0080315A229831430157
:1032E000D5015508063C031C7E295B084401C0003B
:1032F0008031532198314301D50A71298031FA2157
:0433000098310800F8
:103304008B1340019E134E018C1216167E01CA12B5
:10331400C9164001161AAB2916160930FB001E30D7
:10332400FC00E430FD00FD0B9529FC0B9529FB0BFB
:10333400952900008031EE2798316830FC00E43094
:10334400FD00FD0BA329FC0BA329000088310020FC
:10335400983180319023983101304401AF00B0019D
:10336400BC30B1000030B2000B30B30080318F2488
:1033740098315230FB002B30FC000030FD00FD0B77
:10338400C129FC0BC129FB0BC12900001612171619
:1033940097154301D3015308003A031DE029053072
:1033A400FB000F30FC00F130FD00FD0BD729FC0BB6
:1033B400D729FB0BD7297E01CA1263000000053010
:1033C400FB000F30FC00F130FD00FD0BE729FC0B86
:1033D400E729FB0BE72940018D1AF2290314F3298D
:1033E4000310031CF8294301D30AFA294301D3012A
:1033F40053080F3C0318FF29002ACD294E01161249
:103404007E01C912CA1240019E178B174301BE14D4
:1034140088319722983140018D1A122A0314132AF5
:103424000310031C172A00000D2A4001E701420182
:083434006A084301D3000800FF
:10343C006430410169024301CD00003041016A3B17
:10344C004301CE000330FB000830FC007730FD0058
:10345C00FD0B2E2AFC0B2E2AFB0B2E2A5830CC00EF
:10346C00CF01D001D101D201CB014C084B02031882
:10347C00612A9031F520983180305006F000803070
:10348C003D067002031D4C2A3C084F020318562AB5
:10349C003C08CF003D08D0004108D1004208D200C2
:1034AC000B30FC006230FD00FD0B5A2AFC0B5A2A33
:1034BC000000CB0A3B2A8030F000803050067002AE
:1034CC00031D6A2A4F08003C0318BF2A4001161E30
:1034DC00BC2A42016208F0006308F1006408F200A3
:1034EC006508F300E830F4000330F500F601F7014D
:1034FC008031C4219831700842016A074301C3002E
:10350C00710842016B3D4301C400720842016C3DDD
:10351C004301C500730842016D3D4301C6004201E1
:10352C005E08F0005F08F1006008F2006108F3002B
:10353C00E830F4000330F500F601F7018031C421C6
:10354C009831700842016A074301C70071084201B3
:10355C006B3D4301C800720842016C3D4301C90038
:10356C00730842016D3D4301CA00BF2A883197227E
:10357C009831500842016F06031DC72A6E0843019B
:10358C004F060319FA2A43013E1CDA2A4401AF0103
:10359C002A30B000EB30B1000030B2000130B30083
:1035AC0080318F249831E72A4401AF012A30B000D2
:1035BC00ED30B1000030B2000130B30080318F2407
:1035CC00983143014F084201EE004301500842017B
:1035DC00EF0043014F084401A2004301500844018D
:1035EC00A3009031002098318030F00080304301EE
:1035FC0052067002031D042B5108633C0318352B33
:10360C0052082106031D0C2B200851060319352BDB
:10361C005108A0005208A10080305006F000803004
:10362C007002031D1B2B0A304F0203182A2BD101E9
:10363C00D20120084401AC00430121084401AD0033
:10364C008831F4209831462C430120084401AC0009
:10365C00430121084401AD008831F4209831430125
:10366C003E1CAC2B0330CC004C08003A0319762BD3
:10367C0002304401AF000630B0002030B100013000
:10368C00B2000930B30080318F2498311530FB0023
:10369C004B30FC00BE30FD00FD0B522BFC0B522BB3
:1036AC00FB0B522B000002304401AF00B0012A305A
:1036BC00B1000130B2000930B30080318F24983151
:1036CC001530FB004B30FC00BE30FD00FD0B6C2BAD
:1036DC00FC0B6C2BFB0B6C2B00004301CC033A2B2B
:1036EC0002304401AF00B0013430B1000130B200FF
:1036FC000930B30080318F24983102304401AF007F
:10370C002A30B000D630B1000030B2000130B30026
:10371C0080318F249831430151084401AC0043019E
:10372C0052084401AD008831F42098311530FB006B
:10373C004B30FC00BE30FD00FD0BA22BFC0BA22B72
:10374C00FB0BA22B000043013E10462C8030500690
:10375C00F0008030410149067002031DB82B480867
:10376C0043014F02031CD92B430180305006F0005B
:10377C00803041014B067002031DC72B4A084301E0
:10378C004F020318D92B430180305206F0008030D1
:10379C0041016A067002031DD62B690843015102D0
:1037AC00031CD92BE72B43018030033AF000803007
:1037BC0052067002031DE42B5108843C031CE72BBA
:1037CC00462C803042014406F00080304301520602
:1037DC007002031DF42B51084201430203180D2CF7
:1037EC004201430843015102F100420144084301E4
:1037FC00523BF20080304E06F000803072067002B0
:10380C00031D0A2C71084D0203180D2C422C430188
:10381C0080305206F0008030420144067002031DD5
:10382C001A2C4308430151020318342C430151084C
:10383C0042014302F100430152084201443BF200B1
:10384C00803043014E06F000803072067002031D7A
:10385C00312C71084D020318342C422C430180305A
:10386C00033AF000803052067002031D3F2C5108C1
:10387C00843C031C422C462C90317D279831462CDD
:02388C00080032
:10388E00B6304301B6000230B7002F30B800023018
:10389E00B90041019301940195019601EC309A050E
:0838AE0013161315931708000F
:1038B6007E01B801C3014314C3144315CE01E401CC
:1038C600D90153019013941340018C018D018E018F
:1038D6008F019001960197011030980006309900EB
:1038E6009A019101273092009301940195017E017E
:1038F6003A15BA15DB145B1540019F121F179F136B
:103906001E16C0309C00E0309D004E018C12400116
:103916009E174E0196161E304F019600FE309700F8
:10392600473098007F30990077309A00DF309B004F
:103936008B170530FB000F30FC00F130FD00FD0B4E
:0C394600A22CFC0BA22CFB0BA22C0800F6
:10395200883132219831400842014706031DB42CB8
:10396200460843013F060319C42C43013F084201A4
:10397200C600430140084201C70043013F08D3008B
:103982004008D400002080300E3AF000803043011D
:1039920040067002031DCF2C3F08743C0318E32C31
:1039A2004001971117160230FB003830FC00AD3091
:1039B200FD00FD0BDA2CFC0BDA2CFB0BDA2C971535
:1039C2001716132D80300E3AF00080304301400666
:1039D2007002031DEE2C3F08063C0318022D400125
:1039E200971117120230FB003830FC00AD30FD0099
:1039F200FD0BF92CFC0BF92CFB0BF92C9715171668
:103A0200132D4001171297150230FB003830FC00CD
:103A1200AD30FD00FD0B0B2DFC0B0B2DFB0B0B2D0D
:103A220017169715803043014006F00080300D3A9A
:103A32007002031D1E2D48303F0203183F2D8031B6
:103A42009023983101304401AF00B001B030B10091
:103A52000030B2000B30B30080318F2498315230E5
:103A6200FB002B30FC000030FD00FD0B362DFC0B63
:0E3A7200362DFB0B362D0000161282210800A7
:103A8000A031E02198315B2440011716191543013C
:103A9000BE14883197229831472443013E104201D9
:103AA0006208F0006308F1006408F2006508F300A2
:103AB000E830F4000330F500F601F7018031C4214D
:103AC0009831700842016A074301C300710842013E
:103AD0006B3D4301C400720842016C3D4301C500C7
:103AE000730842016D3D4301C60042015E08F000CB
:103AF0005F08F1006008F2006108F300E830F400AC
:103B00000330F500F601F7018031C42198317008C7
:103B100042016A074301C700710842016B3D43013E
:103B2000C800720842016C3D4301C900730842019C
:103B30006D3D4301CA0040016E084301BA004001D7
:103B40006F084301BB00420169086D02031DB22DDD
:103B500068086C02031DB22D67086B02031DB22DAD
:103B600066086A02031CBC2DB830E6070B30E73D3F
:103B70000030E83DE93DA9244301250842016D02DA
:103B8000031DD22D4301240842016C02031DD22DD6
:103B90004301230842016B02031DD22D4301220879
:103BA00042016A02031CDD2D2C304301A2070130C3
:103BB000A33D0030A43DA53D1E224301460842011D
:103BC0006D02031DF32D4301450842016C02031DE4
:103BD000F32D4301440842016B02031DF32D430101
:103BE000430842016A02031CF72D400116124301EB
:103BF0004A0842016D02031D0D2E4301490842018E
:103C00006C02031D0D2E4301480842016B02031D87
:103C10000D2E4301470842016A02031C102E822127
:103C20004301BE1E1D2E4001161E1A2E9031792012
:103C300098311D2E8831972298313E1F292E400140
:103C4000161E262E90317D279831292E88319722F5
:103C500098313E1E352E4001161E322E9031EC2733
:103C60009831352E883197229831BE1D402E400163
:103C7000161A3D2E8831972298319031792098314B
:103C80003E1D4F2E4001161A4C2E9031DE279831E2
:103C90008831972298314F2E90317D279831A32D6E
:023CA000502EA4
:1043C000523084009E3085003D30F0000130F10015
:1043D0002F308600003087009031F027A031383030
:1043E00084009F3085001030F0000130F100A030D3
:1043F0008600003087009031F027A03156308400CD
:104400009F3085000230F0000130F1006C308600F2
:10441000003087009031F027A031483084009F3071
:1044200085000C30F0000130F100B0308600003023
:1044300087009031F027A031583084009F308500EC
:104440000230F0000130F1006E308600003087004D
:104450009031F027A031BF3084009E3085002F308E
:10446000F0000130F100BC30860000308700903150
:10447000F027A0311A3084009F3085001E30F000F4
:104480000130F10020308600013087009031F027A4
:10449000A031FC308400873085000430F00001300A
:1044A000F100EB308600003087009031F027A0311A
:1044B000543084009F3085000230F0000130F1005C
:1044C0003E308600013087009031F027A031033064
:1044D0008400803085000130F0000130F100EF30C1
:1044E0008600003087009031F027A0318F308400A3
:1044F0009E3085003030F0000130F1004030860001
:10450000013087009031F027A031F93084009730D6
:1045100085000630F0000130F100A0308600013047
:0A45200087009031F027A031080059
:020006000034C4
:040FF8003E3400344F
:040FFC003D3400344C
:042FF2000034003473
:082FF600003400340034003403
:0E3CA40031342E3434346D3431346134003414
:0A3CB20030342E3430343034003446
:103CBC002034443445345334493447344E34453439
:103CCC00443420344234593420344E343734443460
:063CDC00443443340034BF
:103CE2002034463457342034563445345234533415
:0A3CF20049344F344E3420340034BE
:0E3CFC0031342E3434346D34313461340034BC
:0A3D0A0030342E34303430340034ED
:023D1400003479
:083D160030342E343034003447
:043D1E003D340034FC
:023D220000346B
:043D240064340034CF
:023D2800003465
:043D2A00003400342D
:023D2E0000345F
:103D30005334573452342034203420342034203447
:043D400020340034F7
:023D4400003449
:103D46005034573452342034203420342034203434
:043D560057340034AA
:083D5A00083407340034003482
:083D62002C340134003400345C
:083D6A00003400340034003481
:083D7200003400340034003479
:043D7A000F342734A7
:103D7E00203450344F3457344534523420344F3479
:083D8E004634463420340034B1
:043D96000A340034B7
:043D9A009634003427
:043D9E007834003441
:083DA200003400340034003449
:023DAA000034E3
:023DAC004034A1
:023DAE000134DE
:023DB0000234DB
:043DB2003D34003468
:103DB600543455344E3445342034203420342034A1
:043DC6002034003471
:0A3DCA0053345734523420340034CF
:043DD4003D34003446
:043DD80082340034FD
:103DDC00F834F8341F341F340334033403341F34E1
:103DEC001F34F834F834FF34FF340034003400341A
:103DFC000034003400340034FF34FF34FF34FF341B
:103E0C000034003400340034003400340034FF3407
:103E1C00FF34FF34FF34C034C034C034C034C03439
:083E2C00C034C034FF34FF3440
:103E34004F345634453452344C344F344134443482
:043E440020340034F2
:103E480020342034203420342034203420342034CA
:043E580020340034DE
:103E5C00533457345234203420342034203420341A
:043E6C0020340034CA
:103E700052344534533445345434203420342034BF
:043E800020340034B6
:0C3E8400533457345234203420340034BE
:103E9000203420344C344F345734203442344134AD
:083EA000543454342034003482
:043EA8003D34003471
:043EAC003D3400346D
:043EB000073400349F
:1040000000340034003400340034003400345F34B1
:1040100000340034003407340034073400341434DE
:104020007F3414347F34143424342A347F342A34D3
:10403000123423341334083464346234363449344B
:104040005534223450340034053403340034003401
:1040500000341C34223441340034003441342234DE
:104060001C34003408342A341C342A34083408340C
:1040700008343E34083408340034503430340034CA
:104080000034083408340834083408340034303438
:104090003034003400342034103408340434023412
:1040A0003E345134493445343E34003442347F3454
:1040B000403400344234613451344934463421347C
:1040C000413445344B3431341834143412347F3491
:1040D0001034273445344534453439343C344A347B
:1040E00049344934303401347134093405340334EB
:1040F0003634493449344934363406344934493441
:1041000029341E340034363436340034003400345C
:104110005634363400340034003408341434223435
:1041200041341434143414341434143441342234E7
:104130001434083400340234013451340934063460
:1041400032344934793441343E347E3411341134BC
:1041500011347E347F3449344934493436343E3462
:1041600041344134413422347F34413441342234A7
:104170001C347F3449344934493441347F34093460
:104180000934013401343E34413441345134323441
:104190007F340834083408347F34003441347F34A9
:1041A000413400342034403441343F3401347F34CE
:1041B00008341434223441347F34403440344034A1
:1041C00040347F340234043402347F347F34043486
:1041D000083410347F343E344134413441343E3469
:1041E0007F3409340934093406343E3441345134BF
:1041F00021345E347F34093419342934463446344A
:104200004934493449343134013401347F34013480
:1042100001343F344034403440343F341F34203480
:10422000403420341F347F342034183420347F3419
:104230006334143408341434633403340434783469
:104240000434033461345134493445344334003444
:1042500000347F344134413402340434083410349F
:104260002034413441347F34003400340434023487
:104270000134023404344034403440344034403457
:1042800000340134023404340034203454345434BF
:10429000543478347F3448344434443438343834F3
:1042A000443444344434203438344434443448347A
:1042B0007F343834543454345434183408347E340D
:1042C00009340134023408341434543454343C3442
:1042D0007F340834043404347834003444347D3476
:1042E000403400342034403444343D34003400340D
:1042F0007F34103428344434003441347F34403423
:1043000000347C3404341834043478347C34083475
:104310000434043478343834443444344434383441
:104320007C341434143414340834083414341434FD
:1043300018347C347C34083404340434083448346D
:10434000543454345434203404343F3444344034EA
:1043500020343C344034403420347C341C34203409
:10436000403420341C343C344034303440343C3409
:10437000443428341034283444340C345034503409
:1043800050343C344434643454344C344434003475
:104390000834363441340034003400347F3400347F
:1043A00000340034413436340834003408340834DE
:1043B0002A341C34083408341C342A3408340834B1
:020000040001F9
:0A000E000429213E1F3F03300300C8
:00000001FF
